{
  "contractName": "BasicTokenMock",
  "abi": [
    {
      "constant": true,
      "inputs": [],
      "name": "totalSupply",
      "outputs": [
        {
          "name": "",
          "type": "uint256"
        }
      ],
      "payable": false,
      "stateMutability": "view",
      "type": "function"
    },
    {
      "constant": true,
      "inputs": [
        {
          "name": "_owner",
          "type": "address"
        }
      ],
      "name": "balanceOf",
      "outputs": [
        {
          "name": "balance",
          "type": "uint256"
        }
      ],
      "payable": false,
      "stateMutability": "view",
      "type": "function"
    },
    {
      "constant": false,
      "inputs": [
        {
          "name": "_to",
          "type": "address"
        },
        {
          "name": "_value",
          "type": "uint256"
        }
      ],
      "name": "transfer",
      "outputs": [
        {
          "name": "",
          "type": "bool"
        }
      ],
      "payable": false,
      "stateMutability": "nonpayable",
      "type": "function"
    },
    {
      "inputs": [
        {
          "name": "initialAccount",
          "type": "address"
        },
        {
          "name": "initialBalance",
          "type": "uint256"
        }
      ],
      "payable": false,
      "stateMutability": "nonpayable",
      "type": "constructor"
    },
    {
      "anonymous": false,
      "inputs": [
        {
          "indexed": true,
          "name": "from",
          "type": "address"
        },
        {
          "indexed": true,
          "name": "to",
          "type": "address"
        },
        {
          "indexed": false,
          "name": "value",
          "type": "uint256"
        }
      ],
      "name": "Transfer",
      "type": "event"
    }
  ],
  "bytecode": "0x6060604052341561000f57600080fd5b6040516040806102b58339810160405280805191906020018051600160a060020a039093166000908152602081905260409020839055505060015561025c806100596000396000f3006060604052600436106100565763ffffffff7c010000000000000000000000000000000000000000000000000000000060003504166318160ddd811461005b57806370a0823114610080578063a9059cbb1461009f575b600080fd5b341561006657600080fd5b61006e6100d5565b60405190815260200160405180910390f35b341561008b57600080fd5b61006e600160a060020a03600435166100db565b34156100aa57600080fd5b6100c1600160a060020a03600435166024356100f6565b604051901515815260200160405180910390f35b60015490565b600160a060020a031660009081526020819052604090205490565b6000600160a060020a038316151561010d57600080fd5b600160a060020a03331660009081526020819052604090205482111561013257600080fd5b600160a060020a03331660009081526020819052604090205461015b908363ffffffff61020816565b600160a060020a033381166000908152602081905260408082209390935590851681522054610190908363ffffffff61021a16565b60008085600160a060020a0316600160a060020a031681526020019081526020016000208190555082600160a060020a031633600160a060020a03167fddf252ad1be2c89b69c2b068fc378daa952ba7f163c4a11628f55a4df523b3ef8460405190815260200160405180910390a350600192915050565b60008282111561021457fe5b50900390565b60008282018381101561022957fe5b93925050505600a165627a7a72305820993d96092f3590e272b6eda89ceefbaf68526936a7e5f1005d8ca2540e7f8cf40029",
  "source": "pragma solidity ^0.4.19;\n\n\nimport \"zeppelin-solidity/contracts/token/ERC20/BasicToken.sol\";\n\n\n// mock class using BasicToken\ncontract BasicTokenMock is BasicToken {\n\n  function BasicTokenMock(address initialAccount, uint256 initialBalance) public {\n    balances[initialAccount] = initialBalance;\n    totalSupply_ = initialBalance;\n    //assert(balances[initialAccount] > 0 && totalSupply_ > 0 && initialAccount != address(0));\n  }\n\n}\n",
  "sourcePath": "/home/cheshta/Documents/projects-nodejs/crowdsale_v1.1/contracts/BasicTokenMock.sol",
  "compiler": {
    "name": "solc",
    "version": "0.4.19+commit.c4cbbb05.Emscripten.clang"
  },
  "schemaVersion": "1.0.1",
  "updatedAt": "2018-05-15T10:21:12.897Z"
}