{
  "contractName": "Crowdsale",
  "abi": [
    {
      "constant": true,
      "inputs": [],
      "name": "hasClosed",
      "outputs": [
        {
          "name": "",
          "type": "bool"
        }
      ],
      "payable": false,
      "stateMutability": "view",
      "type": "function"
    },
    {
      "constant": false,
      "inputs": [
        {
          "name": "_myid",
          "type": "bytes32"
        },
        {
          "name": "_result",
          "type": "string"
        }
      ],
      "name": "__callback",
      "outputs": [],
      "payable": false,
      "stateMutability": "nonpayable",
      "type": "function"
    },
    {
      "constant": true,
      "inputs": [],
      "name": "rate",
      "outputs": [
        {
          "name": "",
          "type": "uint256"
        }
      ],
      "payable": false,
      "stateMutability": "view",
      "type": "function"
    },
    {
      "constant": false,
      "inputs": [
        {
          "name": "_myid",
          "type": "bytes32"
        },
        {
          "name": "_result",
          "type": "string"
        },
        {
          "name": "proof",
          "type": "bytes"
        }
      ],
      "name": "__callback",
      "outputs": [],
      "payable": false,
      "stateMutability": "nonpayable",
      "type": "function"
    },
    {
      "constant": true,
      "inputs": [],
      "name": "weiRaised",
      "outputs": [
        {
          "name": "",
          "type": "uint256"
        }
      ],
      "payable": false,
      "stateMutability": "view",
      "type": "function"
    },
    {
      "constant": true,
      "inputs": [],
      "name": "wallet",
      "outputs": [
        {
          "name": "",
          "type": "address"
        }
      ],
      "payable": false,
      "stateMutability": "view",
      "type": "function"
    },
    {
      "constant": true,
      "inputs": [],
      "name": "owner",
      "outputs": [
        {
          "name": "",
          "type": "address"
        }
      ],
      "payable": false,
      "stateMutability": "view",
      "type": "function"
    },
    {
      "constant": true,
      "inputs": [],
      "name": "minTransactionValue",
      "outputs": [
        {
          "name": "",
          "type": "uint256"
        }
      ],
      "payable": false,
      "stateMutability": "view",
      "type": "function"
    },
    {
      "constant": true,
      "inputs": [],
      "name": "tokenCount",
      "outputs": [
        {
          "name": "",
          "type": "uint256"
        }
      ],
      "payable": false,
      "stateMutability": "view",
      "type": "function"
    },
    {
      "constant": true,
      "inputs": [],
      "name": "price",
      "outputs": [
        {
          "name": "",
          "type": "uint256"
        }
      ],
      "payable": false,
      "stateMutability": "view",
      "type": "function"
    },
    {
      "constant": false,
      "inputs": [],
      "name": "update",
      "outputs": [],
      "payable": true,
      "stateMutability": "payable",
      "type": "function"
    },
    {
      "constant": true,
      "inputs": [],
      "name": "currentExchangeRate",
      "outputs": [
        {
          "name": "",
          "type": "uint256"
        }
      ],
      "payable": false,
      "stateMutability": "view",
      "type": "function"
    },
    {
      "constant": true,
      "inputs": [],
      "name": "releaseTime",
      "outputs": [
        {
          "name": "",
          "type": "uint256"
        }
      ],
      "payable": false,
      "stateMutability": "view",
      "type": "function"
    },
    {
      "constant": true,
      "inputs": [],
      "name": "tokenTimelock",
      "outputs": [
        {
          "name": "",
          "type": "address"
        }
      ],
      "payable": false,
      "stateMutability": "view",
      "type": "function"
    },
    {
      "constant": false,
      "inputs": [
        {
          "name": "newOwner",
          "type": "address"
        }
      ],
      "name": "transferOwnership",
      "outputs": [],
      "payable": false,
      "stateMutability": "nonpayable",
      "type": "function"
    },
    {
      "constant": true,
      "inputs": [],
      "name": "token",
      "outputs": [
        {
          "name": "",
          "type": "address"
        }
      ],
      "payable": false,
      "stateMutability": "view",
      "type": "function"
    },
    {
      "inputs": [
        {
          "name": "_rate",
          "type": "uint256"
        },
        {
          "name": "_wallet",
          "type": "address"
        },
        {
          "name": "_releaseTime",
          "type": "uint256"
        },
        {
          "name": "_minTransactionValue",
          "type": "uint256"
        }
      ],
      "payable": false,
      "stateMutability": "nonpayable",
      "type": "constructor"
    },
    {
      "payable": true,
      "stateMutability": "payable",
      "type": "fallback"
    },
    {
      "anonymous": false,
      "inputs": [
        {
          "indexed": true,
          "name": "purchaser",
          "type": "address"
        },
        {
          "indexed": true,
          "name": "beneficiary",
          "type": "address"
        },
        {
          "indexed": false,
          "name": "value",
          "type": "uint256"
        },
        {
          "indexed": false,
          "name": "amount",
          "type": "uint256"
        }
      ],
      "name": "TokenPurchase",
      "type": "event"
    },
    {
      "anonymous": false,
      "inputs": [
        {
          "indexed": false,
          "name": "receiver",
          "type": "address"
        },
        {
          "indexed": false,
          "name": "tokenCount",
          "type": "uint256"
        },
        {
          "indexed": false,
          "name": "tokens",
          "type": "uint256"
        }
      ],
      "name": "Invested",
      "type": "event"
    },
    {
      "anonymous": false,
      "inputs": [
        {
          "indexed": false,
          "name": "text",
          "type": "string"
        }
      ],
      "name": "Log",
      "type": "event"
    },
    {
      "anonymous": false,
      "inputs": [
        {
          "indexed": true,
          "name": "previousOwner",
          "type": "address"
        },
        {
          "indexed": true,
          "name": "newOwner",
          "type": "address"
        }
      ],
      "name": "OwnershipTransferred",
      "type": "event"
    },
    {
      "constant": false,
      "inputs": [
        {
          "name": "beneficiary",
          "type": "address"
        }
      ],
      "name": "buyTokens",
      "outputs": [],
      "payable": true,
      "stateMutability": "payable",
      "type": "function"
    },
    {
      "constant": false,
      "inputs": [],
      "name": "shutdown",
      "outputs": [
        {
          "name": "",
          "type": "bool"
        }
      ],
      "payable": false,
      "stateMutability": "nonpayable",
      "type": "function"
    },
    {
      "constant": true,
      "inputs": [],
      "name": "hasEnded",
      "outputs": [
        {
          "name": "",
          "type": "bool"
        }
      ],
      "payable": false,
      "stateMutability": "view",
      "type": "function"
    },
    {
      "constant": false,
      "inputs": [
        {
          "name": "beneficiary",
          "type": "address"
        },
        {
          "name": "tokenCount",
          "type": "uint256"
        }
      ],
      "name": "preallocate",
      "outputs": [],
      "payable": false,
      "stateMutability": "nonpayable",
      "type": "function"
    },
    {
      "constant": false,
      "inputs": [],
      "name": "releaseTokens",
      "outputs": [],
      "payable": false,
      "stateMutability": "nonpayable",
      "type": "function"
    }
  ],
  "bytecode": "0x6060604052600d805460a060020a60ff021916905534156200002057600080fd5b604051608080620039138339810160405280805191906020018051919060200180519190602001805160008054600160a060020a03191633600160a060020a031617905591506200008090506401000000006200011c81026200088a1704565b600084116200008e57600080fd5b600160a060020a0383161515620000a457600080fd5b60008111620000b257600080fd5b42821015620000c057600080fd5b620000d86401000000006200165f620001ef82021704565b60078054600160a060020a0319908116600160a060020a0393841617909155600b95909555600a805490951693169290921790925560089190915560095562000af3565b620001ec6040805190810160405280600381526020017f55524c000000000000000000000000000000000000000000000000000000000081525060806040519081016040908152604982527f6a736f6e2868747470733a2f2f6d696e2d6170692e63727970746f636f6d706160208301527f72652e636f6d2f646174612f70726963653f6673796d3d455448267473796d73908201527f3d555344292e5553440000000000000000000000000000000000000000000000606082015264010000000062000eae6200021882021704565b50565b6000620001fb62000a40565b604051809103906000f08015156200021257600080fd5b90505b90565b6001546000908190600160a060020a031615806200025857506001546200025690600160a060020a0316640100000000620012666200062a82021704565b155b156200027a576200027860006401000000006200126a6200062e82021704565b505b600154600160a060020a03166338cc48316000604051602001526040518163ffffffff167c0100000000000000000000000000000000000000000000000000000000028152600401602060405180830381600087803b1515620002dc57600080fd5b6102c65a03f11515620002ee57600080fd5b5050506040518051600254600160a060020a039081169116149050620003ac57600154600160a060020a03166338cc48316000604051602001526040518163ffffffff167c0100000000000000000000000000000000000000000000000000000000028152600401602060405180830381600087803b15156200037057600080fd5b6102c65a03f115156200038257600080fd5b505050604051805160028054600160a060020a031916600160a060020a0392909216919091179055505b600254600160a060020a031663524f3889856000604051602001526040518263ffffffff167c01000000000000000000000000000000000000000000000000000000000281526004018080602001828103825283818151815260200191508051906020019080838360005b838110156200043157808201518382015260200162000417565b50505050905090810190601f1680156200045f5780820380516001836020036101000a031916815260200191505b5092505050602060405180830381600087803b15156200047e57600080fd5b6102c65a03f115156200049057600080fd5b5050506040518051915050670de0b6b3a764000062030d403a0201811115620004bd576000915062000623565b600254600160a060020a031663adf59f99826000878782604051602001526040518563ffffffff167c0100000000000000000000000000000000000000000000000000000000028152600401808481526020018060200180602001838103835285818151815260200191508051906020019080838360005b838110156200054f57808201518382015260200162000535565b50505050905090810190601f1680156200057d5780820380516001836020036101000a031916815260200191505b50838103825284818151815260200191508051906020019080838360005b83811015620005b55780820151838201526020016200059b565b50505050905090810190601f168015620005e35780820380516001836020036101000a031916815260200191505b50955050505050506020604051808303818588803b15156200060457600080fd5b6125ee5a03f115156200061657600080fd5b5050505060405180519250505b5092915050565b3b90565b600062000648640100000000620012706200064e82021704565b92915050565b6000806200067e731d3b2638a7cc9f2cb3d298a3da7a90b67e5506ed640100000000620012666200062a82021704565b1115620007005760018054600160a060020a031916731d3b2638a7cc9f2cb3d298a3da7a90b67e5506ed179055620006f760408051908101604052600b81527f6574685f6d61696e6e657400000000000000000000000000000000000000000060208201526401000000006200158e62000a2782021704565b50600162000215565b60006200072f73c03a2615d5efaf5f49f60b7bb6583eaec212fdf1640100000000620012666200062a82021704565b1115620007a85760018054600160a060020a03191673c03a2615d5efaf5f49f60b7bb6583eaec212fdf1179055620006f760408051908101604052600c81527f6574685f726f707374656e33000000000000000000000000000000000000000060208201526401000000006200158e62000a2782021704565b6000620007d773b7a07bcf2ba2f2703b24c0691b5278999c59ac7e640100000000620012666200062a82021704565b1115620008505760018054600160a060020a03191673b7a07bcf2ba2f2703b24c0691b5278999c59ac7e179055620006f760408051908101604052600981527f6574685f6b6f76616e000000000000000000000000000000000000000000000060208201526401000000006200158e62000a2782021704565b60006200087f73146500cfd35b22e4a392fe0adc06de1a1368ed48640100000000620012666200062a82021704565b1115620008f85760018054600160a060020a03191673146500cfd35b22e4a392fe0adc06de1a1368ed48179055620006f760408051908101604052600b81527f6574685f72696e6b65627900000000000000000000000000000000000000000060208201526401000000006200158e62000a2782021704565b600062000927736f485c8bf6fc43ea212e93bbf8ce046c7f1cb475640100000000620012666200062a82021704565b11156200095b575060018054600160a060020a031916736f485c8bf6fc43ea212e93bbf8ce046c7f1cb47517815562000215565b60006200098a7320e12a1f859b3feae5fb2a0a32c18f5a65555bbf640100000000620012666200062a82021704565b1115620009be575060018054600160a060020a0319167320e12a1f859b3feae5fb2a0a32c18f5a65555bbf17815562000215565b6000620009ed7351efaf4c8b3c9afbd5ab9f4bbc82784ab6ef8faa640100000000620012666200062a82021704565b111562000a21575060018054600160a060020a0319167351efaf4c8b3c9afbd5ab9f4bbc82784ab6ef8faa17815562000215565b50600090565b600381805162000a3c92916020019062000a51565b5050565b604051610a4b8062002ec883390190565b828054600181600116156101000203166002900490600052602060002090601f016020900481019282601f1062000a9457805160ff191683800117855562000ac4565b8280016001018555821562000ac4579182015b8281111562000ac457825182559160200191906001019062000aa7565b5062000ad292915062000ad6565b5090565b6200021591905b8082111562000ad2576000815560010162000add565b6123c58062000b036000396000f3006060604052600436106101035763ffffffff60e060020a6000350416631515bc2b811461010e57806327dc297e146101355780632c4e722e1461018b57806338bbfa50146101b05780634042b66f146102485780635100602a1461025b578063521eb2731461027d5780638da5cb5b146102ac57806397ca05e4146102bf5780639f181b5e146102d2578063a035b1fe146102e5578063a2e62045146102f8578063a368497714610300578063a96f866814610313578063b91d400114610326578063bba5251614610339578063ec8ac4d81461034c578063ecb70fb714610360578063f2fde38b14610373578063fc0c546a14610392578063fc0e74d1146103a5575b61010c336103b8565b005b341561011957600080fd5b610121610566565b604051901515815260200160405180910390f35b341561014057600080fd5b61010c600480359060446024803590810190830135806020601f8201819004810201604051908101604052818152929190602084018383808284375094965061057695505050505050565b341561019657600080fd5b61019e610647565b60405190815260200160405180910390f35b34156101bb57600080fd5b61010c600480359060446024803590810190830135806020601f8201819004810201604051908101604052818152929190602084018383808284378201915050505050509190803590602001908201803590602001908080601f01602080910402602001604051908101604052818152929190602084018383808284375094965061064d95505050505050565b341561025357600080fd5b61019e61071f565b341561026657600080fd5b61010c600160a060020a0360043516602435610725565b341561028857600080fd5b61029061085a565b604051600160a060020a03909116815260200160405180910390f35b34156102b757600080fd5b610290610869565b34156102ca57600080fd5b61019e610878565b34156102dd57600080fd5b61019e61087e565b34156102f057600080fd5b61019e610884565b61010c61088a565b341561030b57600080fd5b61019e61094e565b341561031e57600080fd5b61010c610954565b341561033157600080fd5b61019e6109d7565b341561034457600080fd5b6102906109dd565b61010c600160a060020a03600435166103b8565b341561036b57600080fd5b6101216109ec565b341561037e57600080fd5b61010c600160a060020a03600435166109fd565b341561039d57600080fd5b610290610a8b565b34156103b057600080fd5b610121610a9a565b600080600160a060020a03831615156103d057600080fd5b6103d8610ae7565b15156103e357600080fd5b600d5460a060020a900460ff161515600114156103ff57600080fd5b34915061040b82610b08565b600c54909150610421908363ffffffff610b3d16565b600c55600754600854600160a060020a039091169084906104406115a5565b600160a060020a0393841681529190921660208201526040808201929092526060019051809103906000f080151561047757600080fd5b600d8054600160a060020a031916600160a060020a0392831617908190556007548216916340c10f1991168360006040516020015260405160e060020a63ffffffff8516028152600160a060020a0390921660048301526024820152604401602060405180830381600087803b15156104ef57600080fd5b6102c65a03f1151561050057600080fd5b505050604051805190505082600160a060020a031633600160a060020a03167f623b3804fa71d67900d064613da8f94b9617215ee90799290593e1745087ad18848460405191825260208201526040908101905180910390a3610561610b57565b505050565b600d5460a060020a900460ff1681565b61057e610b8d565b600160a060020a031633600160a060020a031614151561059d57600080fd5b7fcf34ef537ac33ee1ac626ca1587a0a7e8e51561e5514f8cb36afa1c5102b3bab8160405160208082528190810183818151815260200191508051906020019080838360005b838110156105fb5780820151838201526020016105e3565b50505050905090810190601f1680156106285780820380516001836020036101000a031916815260200191505b509250505060405180910390a1610640816002610d2d565b6006555050565b600b5481565b610655610b8d565b600160a060020a031633600160a060020a031614151561067457600080fd5b7fcf34ef537ac33ee1ac626ca1587a0a7e8e51561e5514f8cb36afa1c5102b3bab8260405160208082528190810183818151815260200191508051906020019080838360005b838110156106d25780820151838201526020016106ba565b50505050905090810190601f1680156106ff5780820380516001836020036101000a031916815260200191505b509250505060405180910390a1610717826002610d2d565b600655505050565b600c5481565b6000805433600160a060020a0390811691161461074157600080fd5b600160a060020a038316151561075657600080fd5b600d5460a060020a900460ff1615156001141561077257600080fd5b61077b82610e9b565b600754909150600160a060020a03166340c10f19848360006040516020015260405160e060020a63ffffffff8516028152600160a060020a0390921660048301526024820152604401602060405180830381600087803b15156107dd57600080fd5b6102c65a03f115156107ee57600080fd5b50505060405180519050507f9e9d071824fd57d062ca63fd8b786d8da48a6807eebbcb2d83f9e8d21398e28c8383836040518084600160a060020a0316600160a060020a03168152602001838152602001828152602001935050505060405180910390a1610561610b57565b600a54600160a060020a031681565b600054600160a060020a031681565b60095481565b600f5481565b60065481565b61094b6040805190810160405280600381526020017f55524c0000000000000000000000000000000000000000000000000000000000815250608060405190810160405280604981526020017f6a736f6e2868747470733a2f2f6d696e2d6170692e63727970746f636f6d706181526020017f72652e636f6d2f646174612f70726963653f6673796d3d455448267473796d7381526020017f3d555344292e5553440000000000000000000000000000000000000000000000815250610eae565b50565b600e5481565b60005433600160a060020a0390811691161461096f57600080fd5b600d5460a060020a900460ff16151561098757600080fd5b600d54600160a060020a03166386d1a69f6040518163ffffffff1660e060020a028152600401600060405180830381600087803b15156109c657600080fd5b6102c65a03f1151561056157600080fd5b60085481565b600d54600160a060020a031681565b600d5460a060020a900460ff165b90565b60005433600160a060020a03908116911614610a1857600080fd5b600160a060020a0381161515610a2d57600080fd5b600054600160a060020a0380831691167f8be0079c531659141344cd1fd0a4f28419497f9722a3daafe3b4186f6b6457e060405160405180910390a360008054600160a060020a031916600160a060020a0392909216919091179055565b600754600160a060020a031681565b6000805433600160a060020a03908116911614610ab657600080fd5b50600d805474ff0000000000000000000000000000000000000000191660a060020a90811791829055900460ff1690565b60095460009034801580159290911015908290610b015750805b9250505090565b6000610b21600654600b5461122490919063ffffffff16565b600e819055610b3790839063ffffffff61123b16565b92915050565b600082820183811015610b4c57fe5b8091505b5092915050565b600a54600160a060020a03163480156108fc0290604051600060405180830381858888f193505050501515610b8b57600080fd5b565b600154600090600160a060020a03161580610bba5750600154610bb890600160a060020a0316611266565b155b15610bcb57610bc9600061126a565b505b600154600160a060020a03166338cc48316000604051602001526040518163ffffffff1660e060020a028152600401602060405180830381600087803b1515610c1357600080fd5b6102c65a03f11515610c2457600080fd5b5050506040518051600254600160a060020a039081169116149050610cc657600154600160a060020a03166338cc48316000604051602001526040518163ffffffff1660e060020a028152600401602060405180830381600087803b1515610c8b57600080fd5b6102c65a03f11515610c9c57600080fd5b505050604051805160028054600160a060020a031916600160a060020a0392909216919091179055505b600254600160a060020a031663c281d19e6000604051602001526040518163ffffffff1660e060020a028152600401602060405180830381600087803b1515610d0e57600080fd5b6102c65a03f11515610d1f57600080fd5b505050604051805191505090565b6000610d376115b5565b5082600080805b8351811015610e7e577f3000000000000000000000000000000000000000000000000000000000000000848281518110610d7457fe5b016020015160f860020a900460f860020a02600160f860020a03191610158015610de557507f3900000000000000000000000000000000000000000000000000000000000000848281518110610dc657fe5b016020015160f860020a900460f860020a02600160f860020a03191611155b15610e3b578115610e0457851515610dfc57610e7e565b600019909501945b600a830292506030848281518110610e1857fe5b016020015160f860020a900460f860020a0260f860020a90040383019250610e76565b838181518110610e4757fe5b016020015160f860020a900460f860020a02600160f860020a031916602e60f860020a021415610e7657600191505b600101610d3e565b6000861115610e905785600a0a830292505b509095945050505050565b6000610b3782600163ffffffff61123b16565b6001546000908190600160a060020a03161580610edd5750600154610edb90600160a060020a0316611266565b155b15610eee57610eec600061126a565b505b600154600160a060020a03166338cc48316000604051602001526040518163ffffffff1660e060020a028152600401602060405180830381600087803b1515610f3657600080fd5b6102c65a03f11515610f4757600080fd5b5050506040518051600254600160a060020a039081169116149050610fe957600154600160a060020a03166338cc48316000604051602001526040518163ffffffff1660e060020a028152600401602060405180830381600087803b1515610fae57600080fd5b6102c65a03f11515610fbf57600080fd5b505050604051805160028054600160a060020a031916600160a060020a0392909216919091179055505b600254600160a060020a031663524f3889856000604051602001526040518263ffffffff1660e060020a0281526004018080602001828103825283818151815260200191508051906020019080838360005b8381101561105357808201518382015260200161103b565b50505050905090810190601f1680156110805780820380516001836020036101000a031916815260200191505b5092505050602060405180830381600087803b151561109e57600080fd5b6102c65a03f115156110af57600080fd5b5050506040518051915050670de0b6b3a764000062030d403a02018111156110da5760009150610b50565b600254600160a060020a031663adf59f99826000878782604051602001526040518563ffffffff1660e060020a028152600401808481526020018060200180602001838103835285818151815260200191508051906020019080838360005b83811015611151578082015183820152602001611139565b50505050905090810190601f16801561117e5780820380516001836020036101000a031916815260200191505b50838103825284818151815260200191508051906020019080838360005b838110156111b457808201518382015260200161119c565b50505050905090810190601f1680156111e15780820380516001836020036101000a031916815260200191505b50955050505050506020604051808303818588803b151561120157600080fd5b6125ee5a03f1151561121257600080fd5b50505050604051805195945050505050565b600080828481151561123257fe5b04949350505050565b60008083151561124e5760009150610b50565b5082820282848281151561125e57fe5b0414610b4c57fe5b3b90565b6000610b375b600080611290731d3b2638a7cc9f2cb3d298a3da7a90b67e5506ed611266565b11156113005760018054600160a060020a031916731d3b2638a7cc9f2cb3d298a3da7a90b67e5506ed1790556112f860408051908101604052600b81527f6574685f6d61696e6e6574000000000000000000000000000000000000000000602082015261158e565b5060016109fa565b600061131f73c03a2615d5efaf5f49f60b7bb6583eaec212fdf1611266565b11156113875760018054600160a060020a03191673c03a2615d5efaf5f49f60b7bb6583eaec212fdf11790556112f860408051908101604052600c81527f6574685f726f707374656e330000000000000000000000000000000000000000602082015261158e565b60006113a673b7a07bcf2ba2f2703b24c0691b5278999c59ac7e611266565b111561140e5760018054600160a060020a03191673b7a07bcf2ba2f2703b24c0691b5278999c59ac7e1790556112f860408051908101604052600981527f6574685f6b6f76616e0000000000000000000000000000000000000000000000602082015261158e565b600061142d73146500cfd35b22e4a392fe0adc06de1a1368ed48611266565b11156114955760018054600160a060020a03191673146500cfd35b22e4a392fe0adc06de1a1368ed481790556112f860408051908101604052600b81527f6574685f72696e6b656279000000000000000000000000000000000000000000602082015261158e565b60006114b4736f485c8bf6fc43ea212e93bbf8ce046c7f1cb475611266565b11156114e6575060018054600160a060020a031916736f485c8bf6fc43ea212e93bbf8ce046c7f1cb4751781556109fa565b60006115057320e12a1f859b3feae5fb2a0a32c18f5a65555bbf611266565b1115611537575060018054600160a060020a0319167320e12a1f859b3feae5fb2a0a32c18f5a65555bbf1781556109fa565b60006115567351efaf4c8b3c9afbd5ab9f4bbc82784ab6ef8faa611266565b1115611588575060018054600160a060020a0319167351efaf4c8b3c9afbd5ab9f4bbc82784ab6ef8faa1781556109fa565b50600090565b60038180516115a19291602001906115c7565b5050565b6040516102ba8061169583390190565b60206040519081016040526000815290565b828054600181600116156101000203166002900490600052602060002090601f016020900481019282601f1061160857805160ff1916838001178555611635565b82800160010185558215611635579182015b8281111561163557825182559160200191906001019061161a565b50611641929150611645565b5090565b6109fa91905b80821115611641576000815560010161164b565b6000611669611684565b604051809103906000f080151561167f57600080fd5b905090565b604051610a4b8061194f8339019056006060604052341561000f57600080fd5b6040516060806102ba83398101604052808051919060200180519190602001805160008054600160a060020a03968716600160a060020a03199182161790915560018054959096169416939093179093555060025550610246806100746000396000f3006060604052600436106100485763ffffffff60e060020a60003504166338af3eed811461004d57806386d1a69f1461007c578063b91d400114610091578063fc0c546a146100b6575b600080fd5b341561005857600080fd5b6100606100c9565b604051600160a060020a03909116815260200160405180910390f35b341561008757600080fd5b61008f6100d8565b005b341561009c57600080fd5b6100a4610180565b60405190815260200160405180910390f35b34156100c157600080fd5b610060610186565b600154600160a060020a031681565b60008054600160a060020a03166370a0823130836040516020015260405160e060020a63ffffffff8416028152600160a060020a039091166004820152602401602060405180830381600087803b151561013157600080fd5b6102c65a03f1151561014257600080fd5b50505060405180519150506000811161015a57600080fd5b60015460005461017d91600160a060020a0391821691168363ffffffff61019516565b50565b60025481565b600054600160a060020a031681565b82600160a060020a031663a9059cbb838360006040516020015260405160e060020a63ffffffff8516028152600160a060020a0390921660048301526024820152604401602060405180830381600087803b15156101f257600080fd5b6102c65a03f1151561020357600080fd5b50505060405180519050151561021557fe5b5050505600a165627a7a72305820438c0d0c6419e879789c8ba1fd79264b1075b8dcfe65b7236cef8fbb9d35285e0029606060405260038054600160a860020a03191633600160a060020a0316179055610a1d8061002e6000396000f3006060604052600436106100c45763ffffffff7c010000000000000000000000000000000000000000000000000000000060003504166305d2035b81146100c9578063095ea7b3146100f057806318160ddd1461011257806323b872dd1461013757806340c10f191461015f578063661884631461018157806370a08231146101a35780637d64bcb4146101c25780638da5cb5b146101d5578063a9059cbb14610204578063d73dd62314610226578063dd62ed3e14610248578063f2fde38b1461026d575b600080fd5b34156100d457600080fd5b6100dc61028e565b604051901515815260200160405180910390f35b34156100fb57600080fd5b6100dc600160a060020a036004351660243561029e565b341561011d57600080fd5b61012561030a565b60405190815260200160405180910390f35b341561014257600080fd5b6100dc600160a060020a0360043581169060243516604435610310565b341561016a57600080fd5b6100dc600160a060020a0360043516602435610490565b341561018c57600080fd5b6100dc600160a060020a036004351660243561059e565b34156101ae57600080fd5b610125600160a060020a0360043516610698565b34156101cd57600080fd5b6100dc6106b3565b34156101e057600080fd5b6101e861073e565b604051600160a060020a03909116815260200160405180910390f35b341561020f57600080fd5b6100dc600160a060020a036004351660243561074d565b341561023157600080fd5b6100dc600160a060020a036004351660243561085f565b341561025357600080fd5b610125600160a060020a0360043581169060243516610903565b341561027857600080fd5b61028c600160a060020a036004351661092e565b005b60035460a060020a900460ff1681565b600160a060020a03338116600081815260026020908152604080832094871680845294909152808220859055909291907f8c5be1e5ebec7d5bd14f71427d1e84f3dd0314c0f7b2291e5b200ac8c7c3b9259085905190815260200160405180910390a350600192915050565b60015490565b6000600160a060020a038316151561032757600080fd5b600160a060020a03841660009081526020819052604090205482111561034c57600080fd5b600160a060020a038085166000908152600260209081526040808320339094168352929052205482111561037f57600080fd5b600160a060020a0384166000908152602081905260409020546103a8908363ffffffff6109c916565b600160a060020a0380861660009081526020819052604080822093909355908516815220546103dd908363ffffffff6109db16565b600160a060020a0380851660009081526020818152604080832094909455878316825260028152838220339093168252919091522054610423908363ffffffff6109c916565b600160a060020a03808616600081815260026020908152604080832033861684529091529081902093909355908516917fddf252ad1be2c89b69c2b068fc378daa952ba7f163c4a11628f55a4df523b3ef9085905190815260200160405180910390a35060019392505050565b60035460009033600160a060020a039081169116146104ae57600080fd5b60035460a060020a900460ff16156104c557600080fd5b6001546104d8908363ffffffff6109db16565b600155600160a060020a038316600090815260208190526040902054610504908363ffffffff6109db16565b600160a060020a0384166000818152602081905260409081902092909255907f0f6798a560793a54c3bcfe86a93cde1e73087d944c0ea20544137d41213968859084905190815260200160405180910390a2600160a060020a03831660007fddf252ad1be2c89b69c2b068fc378daa952ba7f163c4a11628f55a4df523b3ef8460405190815260200160405180910390a350600192915050565b600160a060020a033381166000908152600260209081526040808320938616835292905290812054808311156105fb57600160a060020a033381166000908152600260209081526040808320938816835292905290812055610632565b61060b818463ffffffff6109c916565b600160a060020a033381166000908152600260209081526040808320938916835292905220555b600160a060020a0333811660008181526002602090815260408083209489168084529490915290819020547f8c5be1e5ebec7d5bd14f71427d1e84f3dd0314c0f7b2291e5b200ac8c7c3b925915190815260200160405180910390a35060019392505050565b600160a060020a031660009081526020819052604090205490565b60035460009033600160a060020a039081169116146106d157600080fd5b60035460a060020a900460ff16156106e857600080fd5b6003805474ff0000000000000000000000000000000000000000191660a060020a1790557fae5184fba832cb2b1f702aca6117b8d265eaf03ad33eb133f19dde0f5920fa0860405160405180910390a150600190565b600354600160a060020a031681565b6000600160a060020a038316151561076457600080fd5b600160a060020a03331660009081526020819052604090205482111561078957600080fd5b600160a060020a0333166000908152602081905260409020546107b2908363ffffffff6109c916565b600160a060020a0333811660009081526020819052604080822093909355908516815220546107e7908363ffffffff6109db16565b60008085600160a060020a0316600160a060020a031681526020019081526020016000208190555082600160a060020a031633600160a060020a03167fddf252ad1be2c89b69c2b068fc378daa952ba7f163c4a11628f55a4df523b3ef8460405190815260200160405180910390a350600192915050565b600160a060020a033381166000908152600260209081526040808320938616835292905290812054610897908363ffffffff6109db16565b600160a060020a0333811660008181526002602090815260408083209489168084529490915290819020849055919290917f8c5be1e5ebec7d5bd14f71427d1e84f3dd0314c0f7b2291e5b200ac8c7c3b92591905190815260200160405180910390a350600192915050565b600160a060020a03918216600090815260026020908152604080832093909416825291909152205490565b60035433600160a060020a0390811691161461094957600080fd5b600160a060020a038116151561095e57600080fd5b600354600160a060020a0380831691167f8be0079c531659141344cd1fd0a4f28419497f9722a3daafe3b4186f6b6457e060405160405180910390a36003805473ffffffffffffffffffffffffffffffffffffffff1916600160a060020a0392909216919091179055565b6000828211156109d557fe5b50900390565b6000828201838110156109ea57fe5b93925050505600a165627a7a723058200072569129bfa7c3a789478b2f48b512f45be324e1594c66431bc7a43982f8320029a165627a7a72305820241913644717bd07b0c4d8a9d6fa73b1229b42b6f8a15830c18541908f5c5ba40029606060405260038054600160a860020a03191633600160a060020a0316179055610a1d8061002e6000396000f3006060604052600436106100c45763ffffffff7c010000000000000000000000000000000000000000000000000000000060003504166305d2035b81146100c9578063095ea7b3146100f057806318160ddd1461011257806323b872dd1461013757806340c10f191461015f578063661884631461018157806370a08231146101a35780637d64bcb4146101c25780638da5cb5b146101d5578063a9059cbb14610204578063d73dd62314610226578063dd62ed3e14610248578063f2fde38b1461026d575b600080fd5b34156100d457600080fd5b6100dc61028e565b604051901515815260200160405180910390f35b34156100fb57600080fd5b6100dc600160a060020a036004351660243561029e565b341561011d57600080fd5b61012561030a565b60405190815260200160405180910390f35b341561014257600080fd5b6100dc600160a060020a0360043581169060243516604435610310565b341561016a57600080fd5b6100dc600160a060020a0360043516602435610490565b341561018c57600080fd5b6100dc600160a060020a036004351660243561059e565b34156101ae57600080fd5b610125600160a060020a0360043516610698565b34156101cd57600080fd5b6100dc6106b3565b34156101e057600080fd5b6101e861073e565b604051600160a060020a03909116815260200160405180910390f35b341561020f57600080fd5b6100dc600160a060020a036004351660243561074d565b341561023157600080fd5b6100dc600160a060020a036004351660243561085f565b341561025357600080fd5b610125600160a060020a0360043581169060243516610903565b341561027857600080fd5b61028c600160a060020a036004351661092e565b005b60035460a060020a900460ff1681565b600160a060020a03338116600081815260026020908152604080832094871680845294909152808220859055909291907f8c5be1e5ebec7d5bd14f71427d1e84f3dd0314c0f7b2291e5b200ac8c7c3b9259085905190815260200160405180910390a350600192915050565b60015490565b6000600160a060020a038316151561032757600080fd5b600160a060020a03841660009081526020819052604090205482111561034c57600080fd5b600160a060020a038085166000908152600260209081526040808320339094168352929052205482111561037f57600080fd5b600160a060020a0384166000908152602081905260409020546103a8908363ffffffff6109c916565b600160a060020a0380861660009081526020819052604080822093909355908516815220546103dd908363ffffffff6109db16565b600160a060020a0380851660009081526020818152604080832094909455878316825260028152838220339093168252919091522054610423908363ffffffff6109c916565b600160a060020a03808616600081815260026020908152604080832033861684529091529081902093909355908516917fddf252ad1be2c89b69c2b068fc378daa952ba7f163c4a11628f55a4df523b3ef9085905190815260200160405180910390a35060019392505050565b60035460009033600160a060020a039081169116146104ae57600080fd5b60035460a060020a900460ff16156104c557600080fd5b6001546104d8908363ffffffff6109db16565b600155600160a060020a038316600090815260208190526040902054610504908363ffffffff6109db16565b600160a060020a0384166000818152602081905260409081902092909255907f0f6798a560793a54c3bcfe86a93cde1e73087d944c0ea20544137d41213968859084905190815260200160405180910390a2600160a060020a03831660007fddf252ad1be2c89b69c2b068fc378daa952ba7f163c4a11628f55a4df523b3ef8460405190815260200160405180910390a350600192915050565b600160a060020a033381166000908152600260209081526040808320938616835292905290812054808311156105fb57600160a060020a033381166000908152600260209081526040808320938816835292905290812055610632565b61060b818463ffffffff6109c916565b600160a060020a033381166000908152600260209081526040808320938916835292905220555b600160a060020a0333811660008181526002602090815260408083209489168084529490915290819020547f8c5be1e5ebec7d5bd14f71427d1e84f3dd0314c0f7b2291e5b200ac8c7c3b925915190815260200160405180910390a35060019392505050565b600160a060020a031660009081526020819052604090205490565b60035460009033600160a060020a039081169116146106d157600080fd5b60035460a060020a900460ff16156106e857600080fd5b6003805474ff0000000000000000000000000000000000000000191660a060020a1790557fae5184fba832cb2b1f702aca6117b8d265eaf03ad33eb133f19dde0f5920fa0860405160405180910390a150600190565b600354600160a060020a031681565b6000600160a060020a038316151561076457600080fd5b600160a060020a03331660009081526020819052604090205482111561078957600080fd5b600160a060020a0333166000908152602081905260409020546107b2908363ffffffff6109c916565b600160a060020a0333811660009081526020819052604080822093909355908516815220546107e7908363ffffffff6109db16565b60008085600160a060020a0316600160a060020a031681526020019081526020016000208190555082600160a060020a031633600160a060020a03167fddf252ad1be2c89b69c2b068fc378daa952ba7f163c4a11628f55a4df523b3ef8460405190815260200160405180910390a350600192915050565b600160a060020a033381166000908152600260209081526040808320938616835292905290812054610897908363ffffffff6109db16565b600160a060020a0333811660008181526002602090815260408083209489168084529490915290819020849055919290917f8c5be1e5ebec7d5bd14f71427d1e84f3dd0314c0f7b2291e5b200ac8c7c3b92591905190815260200160405180910390a350600192915050565b600160a060020a03918216600090815260026020908152604080832093909416825291909152205490565b60035433600160a060020a0390811691161461094957600080fd5b600160a060020a038116151561095e57600080fd5b600354600160a060020a0380831691167f8be0079c531659141344cd1fd0a4f28419497f9722a3daafe3b4186f6b6457e060405160405180910390a36003805473ffffffffffffffffffffffffffffffffffffffff1916600160a060020a0392909216919091179055565b6000828211156109d557fe5b50900390565b6000828201838110156109ea57fe5b93925050505600a165627a7a723058200072569129bfa7c3a789478b2f48b512f45be324e1594c66431bc7a43982f8320029",
  "source": "pragma solidity ^0.4.18;\n\nimport \"../token/MintableToken.sol\";\nimport \"zeppelin-solidity/contracts/math/SafeMath.sol\";\nimport \"zeppelin-solidity/contracts/token/ERC20/TokenTimelock.sol\";\nimport \"zeppelin-solidity/contracts/ownership/Ownable.sol\";\nimport \"../TestOraclizeCall.sol\";\n\n\n\n/**\n * @title Crowdsale\n * @dev Crowdsale is a base contract for managing a token crowdsale.\n * Crowdsales have a start and end timestamps, where investors can make\n * token purchases and the crowdsale will assign them tokens based\n * on a token per ETH rate. Funds collected are forwarded to a wallet\n * as they arrive.\n */\ncontract Crowdsale is Ownable, TestOraclizeCall{\n  using SafeMath for uint256;\n\n  // The token being sold\n  MintableToken public token;\n\n  // start and end timestamps where investments are allowed (both inclusive)\n  uint256 public releaseTime;\n\n  // Minumum transaction value\n  uint256 public minTransactionValue;\n  // address where funds are collected\n  address public wallet;\n\n  // how many token units a buyer gets per wei\n  uint256 public rate;\n\n  // amount of raised money in wei\n  uint256 public weiRaised;\n\n  TokenTimelock public tokenTimelock;\n\n  bool public hasClosed = false;\n\n  //current exchange rate\n  uint256 public currentExchangeRate;\n\n  uint256 public tokenCount;\n\n  //uint256 public constant _releaseTime = now + 10 minutes;\n\n  /**\n   * event for token purchase logging\n   * @param purchaser who paid for the tokens\n   * @param beneficiary who got the tokens\n   * @param value weis paid for purchase\n   * @param amount amount of tokens purchased\n   */\n  event TokenPurchase(address indexed purchaser, address indexed beneficiary, uint256 value, uint256 amount);\n\n  event Invested(address receiver, uint256 tokenCount, uint256 tokens);\n\n\n  function Crowdsale(uint256 _rate, address _wallet, uint256 _releaseTime, uint256 _minTransactionValue) public {\n    //require(_startTime >= now);\n    //require(_endTime >= _startTime);\n    require(_rate > 0);\n    require(_wallet != address(0)); // checking if wallet address is not empty\n    require(_minTransactionValue > 0);\n    require(_releaseTime >= now);\n\n    token = createTokenContract();\n    \n    rate = _rate;\n    wallet = _wallet;\n    releaseTime = _releaseTime;\n    minTransactionValue = _minTransactionValue;\n  }\n\n  // fallback function can be used to buy tokens\n  function () external payable {\n    buyTokens(msg.sender);\n  }\n\n  function getNow() internal view returns (uint256) {\n    return now;\n  }\n\n  // low level token purchase function\n  function buyTokens(address beneficiary) public payable {\n    require(beneficiary != address(0));\n    require(validPurchase());\n    require(hasClosed != true);\n\n    uint256 weiAmount = msg.value;\n\n    // calculate token amount to be created\n    uint256 tokens = getTokenAmount(weiAmount);\n\n    // update state\n    weiRaised = weiRaised.add(weiAmount);\n\n    \n    tokenTimelock = new TokenTimelock(token, beneficiary, releaseTime);\n    token.mint(tokenTimelock,tokens);\n    TokenPurchase(msg.sender, beneficiary, weiAmount, tokens);\n    forwardFunds();\n    \n  }\n\n  function shutdown() onlyOwner external returns (bool){\n    hasClosed = true;\n    return hasClosed;\n  }\n  \n\n  // @return true if crowdsale event has ended\n  function hasEnded() public view returns (bool) {\n    return hasClosed;\n\n  }\n\n  // creates the token to be sold.\n  // override this method to have crowdsale of a specific mintable token.\n  function createTokenContract() internal returns (MintableToken) {\n    return new MintableToken();\n  }\n\n  // Override this method to have a way to add business logic to your crowdsale when buying\n  function getTokenAmount(uint256 weiAmount) internal view returns(uint256) {\n    currentExchangeRate = rate.div(price);\n    return weiAmount.mul(currentExchangeRate);\n  }\n\n  function getTokens(uint256 tokenCount) internal view returns(uint256) {\n    return tokenCount.mul(1);\n  }\n\n  // send ether to the fund collection wallet\n  // override to create custom fund forwarding mechanisms\n  function forwardFunds() internal {\n    wallet.transfer(msg.value);\n  }\n\n  // @return true if the transaction can buy tokens\n  function validPurchase() internal view returns (bool) {\n    bool nonZeroPurchase = msg.value != 0;\n    bool aboveMinInvestment = msg.value >= minTransactionValue;\n    return  nonZeroPurchase && aboveMinInvestment;\n  }\n\n  function preallocate(address beneficiary, uint256 tokenCount) onlyOwner external {\n    require(beneficiary != address(0));\n    require(hasClosed != true);\n    uint256 tokens = getTokens(tokenCount);\n    token.mint(beneficiary, tokens);\n    Invested(beneficiary, tokenCount, tokens);\n    forwardFunds();\n\n  }\n\n  function releaseTokens() onlyOwner external {\n    require(hasClosed != false);\n     tokenTimelock.release();\n  }\n\n}",
  "sourcePath": "/home/cheshta/Documents/projects-nodejs/crowdsale_v1.1/contracts/crowdsale/Crowdsale.sol",
  "compiler": {
    "name": "solc",
    "version": "0.4.19+commit.c4cbbb05.Emscripten.clang"
  },
  "schemaVersion": "1.0.1",
  "updatedAt": "2018-05-15T10:21:12.912Z"
}