{
  "contractName": "Crowdsale",
  "abi": [
    {
      "constant": true,
      "inputs": [],
      "name": "hasClosed",
      "outputs": [
        {
          "name": "",
          "type": "bool"
        }
      ],
      "payable": false,
      "stateMutability": "view",
      "type": "function"
    },
    {
      "constant": false,
      "inputs": [
        {
          "name": "myid",
          "type": "bytes32"
        },
        {
          "name": "result",
          "type": "string"
        }
      ],
      "name": "__callback",
      "outputs": [],
      "payable": false,
      "stateMutability": "nonpayable",
      "type": "function"
    },
    {
      "constant": true,
      "inputs": [],
      "name": "rate",
      "outputs": [
        {
          "name": "",
          "type": "uint256"
        }
      ],
      "payable": false,
      "stateMutability": "view",
      "type": "function"
    },
    {
      "constant": false,
      "inputs": [
        {
          "name": "_myid",
          "type": "bytes32"
        },
        {
          "name": "_result",
          "type": "string"
        },
        {
          "name": "proof",
          "type": "bytes"
        }
      ],
      "name": "__callback",
      "outputs": [],
      "payable": false,
      "stateMutability": "nonpayable",
      "type": "function"
    },
    {
      "constant": true,
      "inputs": [],
      "name": "weiRaised",
      "outputs": [
        {
          "name": "",
          "type": "uint256"
        }
      ],
      "payable": false,
      "stateMutability": "view",
      "type": "function"
    },
    {
      "constant": true,
      "inputs": [],
      "name": "tokensSold",
      "outputs": [
        {
          "name": "",
          "type": "uint256"
        }
      ],
      "payable": false,
      "stateMutability": "view",
      "type": "function"
    },
    {
      "constant": true,
      "inputs": [],
      "name": "wallet",
      "outputs": [
        {
          "name": "",
          "type": "address"
        }
      ],
      "payable": false,
      "stateMutability": "view",
      "type": "function"
    },
    {
      "constant": false,
      "inputs": [],
      "name": "updatePrice",
      "outputs": [],
      "payable": true,
      "stateMutability": "payable",
      "type": "function"
    },
    {
      "constant": true,
      "inputs": [],
      "name": "oraclizeGetPrice",
      "outputs": [
        {
          "name": "",
          "type": "uint256"
        }
      ],
      "payable": false,
      "stateMutability": "view",
      "type": "function"
    },
    {
      "constant": true,
      "inputs": [],
      "name": "owner",
      "outputs": [
        {
          "name": "",
          "type": "address"
        }
      ],
      "payable": false,
      "stateMutability": "view",
      "type": "function"
    },
    {
      "constant": true,
      "inputs": [],
      "name": "minTransactionValue",
      "outputs": [
        {
          "name": "",
          "type": "uint256"
        }
      ],
      "payable": false,
      "stateMutability": "view",
      "type": "function"
    },
    {
      "constant": true,
      "inputs": [],
      "name": "tokens",
      "outputs": [
        {
          "name": "",
          "type": "uint256"
        }
      ],
      "payable": false,
      "stateMutability": "view",
      "type": "function"
    },
    {
      "constant": true,
      "inputs": [],
      "name": "price",
      "outputs": [
        {
          "name": "",
          "type": "uint256"
        }
      ],
      "payable": false,
      "stateMutability": "view",
      "type": "function"
    },
    {
      "constant": false,
      "inputs": [
        {
          "name": "newOwner",
          "type": "address"
        }
      ],
      "name": "transferOwnership",
      "outputs": [],
      "payable": false,
      "stateMutability": "nonpayable",
      "type": "function"
    },
    {
      "constant": true,
      "inputs": [],
      "name": "token",
      "outputs": [
        {
          "name": "",
          "type": "address"
        }
      ],
      "payable": false,
      "stateMutability": "view",
      "type": "function"
    },
    {
      "inputs": [
        {
          "name": "_rate",
          "type": "uint256"
        },
        {
          "name": "_wallet",
          "type": "address"
        },
        {
          "name": "_minTransactionValue",
          "type": "uint256"
        }
      ],
      "payable": false,
      "stateMutability": "nonpayable",
      "type": "constructor"
    },
    {
      "payable": true,
      "stateMutability": "payable",
      "type": "fallback"
    },
    {
      "anonymous": false,
      "inputs": [
        {
          "indexed": true,
          "name": "purchaser",
          "type": "address"
        },
        {
          "indexed": true,
          "name": "beneficiary",
          "type": "address"
        },
        {
          "indexed": false,
          "name": "value",
          "type": "uint256"
        },
        {
          "indexed": false,
          "name": "amount",
          "type": "uint256"
        }
      ],
      "name": "TokenPurchase",
      "type": "event"
    },
    {
      "anonymous": false,
      "inputs": [
        {
          "indexed": false,
          "name": "receiver",
          "type": "address"
        },
        {
          "indexed": false,
          "name": "tokenCount",
          "type": "uint256"
        },
        {
          "indexed": false,
          "name": "tokens",
          "type": "uint256"
        }
      ],
      "name": "Invested",
      "type": "event"
    },
    {
      "anonymous": false,
      "inputs": [
        {
          "indexed": false,
          "name": "text",
          "type": "string"
        }
      ],
      "name": "Log",
      "type": "event"
    },
    {
      "anonymous": false,
      "inputs": [
        {
          "indexed": false,
          "name": "text",
          "type": "string"
        }
      ],
      "name": "LogFailure",
      "type": "event"
    },
    {
      "anonymous": false,
      "inputs": [
        {
          "indexed": false,
          "name": "amt",
          "type": "uint256"
        }
      ],
      "name": "LogPrice",
      "type": "event"
    },
    {
      "anonymous": false,
      "inputs": [
        {
          "indexed": true,
          "name": "previousOwner",
          "type": "address"
        },
        {
          "indexed": true,
          "name": "newOwner",
          "type": "address"
        }
      ],
      "name": "OwnershipTransferred",
      "type": "event"
    },
    {
      "constant": false,
      "inputs": [
        {
          "name": "beneficiary",
          "type": "address"
        }
      ],
      "name": "buyTokens",
      "outputs": [],
      "payable": true,
      "stateMutability": "payable",
      "type": "function"
    },
    {
      "constant": false,
      "inputs": [],
      "name": "shutdown",
      "outputs": [
        {
          "name": "",
          "type": "bool"
        }
      ],
      "payable": false,
      "stateMutability": "nonpayable",
      "type": "function"
    },
    {
      "constant": true,
      "inputs": [],
      "name": "hasEnded",
      "outputs": [
        {
          "name": "",
          "type": "bool"
        }
      ],
      "payable": false,
      "stateMutability": "view",
      "type": "function"
    },
    {
      "constant": false,
      "inputs": [
        {
          "name": "beneficiary",
          "type": "address"
        },
        {
          "name": "tokenCount",
          "type": "uint256"
        }
      ],
      "name": "preallocate",
      "outputs": [],
      "payable": false,
      "stateMutability": "nonpayable",
      "type": "function"
    }
  ],
  "bytecode": "0x6060604052600e805460ff1916905534156200001a57600080fd5b60405160608062003f9783398101604052808051919060200180519190602001805160008054600160a060020a03191633600160a060020a031617905591506200007390506401000000006200016d8102620007761704565b600083116200008157600080fd5b600160a060020a03821615156200009757600080fd5b60008111620000a557600080fd5b620000bd640100000000620017dd620002d982021704565b60088054600160a060020a031916600160a060020a03928316179081905516638456cb596040518163ffffffff167c0100000000000000000000000000000000000000000000000000000000028152600401600060405180830381600087803b15156200012957600080fd5b6102c65a03f115156200013b57600080fd5b505050600c92909255600b8054600160a060020a031916600160a060020a0392909216919091179055600a5562000e62565b60007f3d0eca545e3cd19801e484dd4ad2c6e1a2c2384066ae97c5c003f8f6ec700bc3620001dc60408051908101604052600381527f55524c0000000000000000000000000000000000000000000000000000000000602082015264010000000062000cd76200030282021704565b60405190815260200160405180910390a1620002bd6040805190810160405280600381526020017f55524c000000000000000000000000000000000000000000000000000000000081525060806040519081016040908152604982527f6a736f6e2868747470733a2f2f6d696e2d6170692e63727970746f636f6d706160208301527f72652e636f6d2f646174612f70726963653f6673796d3d455448267473796d73908201527f3d555344292e5553440000000000000000000000000000000000000000000000606082015264010000000062000ee56200058782021704565b6000908152600760205260409020805460ff1916600117905550565b6000620002e562000daf565b604051809103906000f0801515620002fc57600080fd5b90505b90565b600154600090600160a060020a031615806200034057506001546200033e90600160a060020a0316640100000000620012866200099982021704565b155b1562000362576200036060006401000000006200128a6200099d82021704565b505b600154600160a060020a03166338cc48316000604051602001526040518163ffffffff167c0100000000000000000000000000000000000000000000000000000000028152600401602060405180830381600087803b1515620003c457600080fd5b6102c65a03f11515620003d657600080fd5b5050506040518051600254600160a060020a0390811691161490506200049457600154600160a060020a03166338cc48316000604051602001526040518163ffffffff167c0100000000000000000000000000000000000000000000000000000000028152600401602060405180830381600087803b15156200045857600080fd5b6102c65a03f115156200046a57600080fd5b505050604051805160028054600160a060020a031916600160a060020a0392909216919091179055505b600254600160a060020a031663524f3889836000604051602001526040518263ffffffff167c01000000000000000000000000000000000000000000000000000000000281526004018080602001828103825283818151815260200191508051906020019080838360005b8381101562000519578082015183820152602001620004ff565b50505050905090810190601f168015620005475780820380516001836020036101000a031916815260200191505b5092505050602060405180830381600087803b15156200056657600080fd5b6102c65a03f115156200057857600080fd5b50505060405180519392505050565b6001546000908190600160a060020a03161580620005c75750600154620005c590600160a060020a0316640100000000620012866200099982021704565b155b15620005e957620005e760006401000000006200128a6200099d82021704565b505b600154600160a060020a03166338cc48316000604051602001526040518163ffffffff167c0100000000000000000000000000000000000000000000000000000000028152600401602060405180830381600087803b15156200064b57600080fd5b6102c65a03f115156200065d57600080fd5b5050506040518051600254600160a060020a0390811691161490506200071b57600154600160a060020a03166338cc48316000604051602001526040518163ffffffff167c0100000000000000000000000000000000000000000000000000000000028152600401602060405180830381600087803b1515620006df57600080fd5b6102c65a03f11515620006f157600080fd5b505050604051805160028054600160a060020a031916600160a060020a0392909216919091179055505b600254600160a060020a031663524f3889856000604051602001526040518263ffffffff167c01000000000000000000000000000000000000000000000000000000000281526004018080602001828103825283818151815260200191508051906020019080838360005b83811015620007a057808201518382015260200162000786565b50505050905090810190601f168015620007ce5780820380516001836020036101000a031916815260200191505b5092505050602060405180830381600087803b1515620007ed57600080fd5b6102c65a03f11515620007ff57600080fd5b5050506040518051915050670de0b6b3a764000062030d403a02018111156200082c576000915062000992565b600254600160a060020a031663adf59f99826000878782604051602001526040518563ffffffff167c0100000000000000000000000000000000000000000000000000000000028152600401808481526020018060200180602001838103835285818151815260200191508051906020019080838360005b83811015620008be578082015183820152602001620008a4565b50505050905090810190601f168015620008ec5780820380516001836020036101000a031916815260200191505b50838103825284818151815260200191508051906020019080838360005b83811015620009245780820151838201526020016200090a565b50505050905090810190601f168015620009525780820380516001836020036101000a031916815260200191505b50955050505050506020604051808303818588803b15156200097357600080fd5b6125ee5a03f115156200098557600080fd5b5050505060405180519250505b5092915050565b3b90565b6000620009b764010000000062001402620009bd82021704565b92915050565b600080620009ed731d3b2638a7cc9f2cb3d298a3da7a90b67e5506ed640100000000620012866200099982021704565b111562000a6f5760018054600160a060020a031916731d3b2638a7cc9f2cb3d298a3da7a90b67e5506ed17905562000a6660408051908101604052600b81527f6574685f6d61696e6e657400000000000000000000000000000000000000000060208201526401000000006200172062000d9682021704565b506001620002ff565b600062000a9e73c03a2615d5efaf5f49f60b7bb6583eaec212fdf1640100000000620012866200099982021704565b111562000b175760018054600160a060020a03191673c03a2615d5efaf5f49f60b7bb6583eaec212fdf117905562000a6660408051908101604052600c81527f6574685f726f707374656e33000000000000000000000000000000000000000060208201526401000000006200172062000d9682021704565b600062000b4673b7a07bcf2ba2f2703b24c0691b5278999c59ac7e640100000000620012866200099982021704565b111562000bbf5760018054600160a060020a03191673b7a07bcf2ba2f2703b24c0691b5278999c59ac7e17905562000a6660408051908101604052600981527f6574685f6b6f76616e000000000000000000000000000000000000000000000060208201526401000000006200172062000d9682021704565b600062000bee73146500cfd35b22e4a392fe0adc06de1a1368ed48640100000000620012866200099982021704565b111562000c675760018054600160a060020a03191673146500cfd35b22e4a392fe0adc06de1a1368ed4817905562000a6660408051908101604052600b81527f6574685f72696e6b65627900000000000000000000000000000000000000000060208201526401000000006200172062000d9682021704565b600062000c96736f485c8bf6fc43ea212e93bbf8ce046c7f1cb475640100000000620012866200099982021704565b111562000cca575060018054600160a060020a031916736f485c8bf6fc43ea212e93bbf8ce046c7f1cb475178155620002ff565b600062000cf97320e12a1f859b3feae5fb2a0a32c18f5a65555bbf640100000000620012866200099982021704565b111562000d2d575060018054600160a060020a0319167320e12a1f859b3feae5fb2a0a32c18f5a65555bbf178155620002ff565b600062000d5c7351efaf4c8b3c9afbd5ab9f4bbc82784ab6ef8faa640100000000620012866200099982021704565b111562000d90575060018054600160a060020a0319167351efaf4c8b3c9afbd5ab9f4bbc82784ab6ef8faa178155620002ff565b50600090565b600381805162000dab92916020019062000dc0565b5050565b604051610c76806200332183390190565b828054600181600116156101000203166002900490600052602060002090601f016020900481019282601f1062000e0357805160ff191683800117855562000e33565b8280016001018555821562000e33579182015b8281111562000e3357825182559160200191906001019062000e16565b5062000e4192915062000e45565b5090565b620002ff91905b8082111562000e41576000815560010162000e4c565b6124af8062000e726000396000f3006060604052600436106100ed5763ffffffff60e060020a6000350416631515bc2b81146100f857806327dc297e1461011f5780632c4e722e1461017557806338bbfa501461019a5780634042b66f146102325780635100602a14610245578063518ab2a814610267578063521eb2731461027a578063673a7e28146102a95780638805493f146102b15780638da5cb5b146102c457806397ca05e4146102d75780639d63848a146102ea578063a035b1fe146102fd578063ec8ac4d814610310578063ecb70fb714610324578063f2fde38b14610337578063fc0c546a14610356578063fc0e74d114610369575b6100f63361037c565b005b341561010357600080fd5b61010b6104d5565b604051901515815260200160405180910390f35b341561012a57600080fd5b6100f6600480359060446024803590810190830135806020601f820181900481020160405190810160405281815292919060208401838380828437509496506104de95505050505050565b341561018057600080fd5b610188610510565b60405190815260200160405180910390f35b34156101a557600080fd5b6100f6600480359060446024803590810190830135806020601f8201819004810201604051908101604052818152929190602084018383808284378201915050505050509190803590602001908201803590602001908080601f01602080910402602001604051908101604052818152929190602084018383808284375094965061051695505050505050565b341561023d57600080fd5b610188610618565b341561025057600080fd5b6100f6600160a060020a036004351660243561061e565b341561027257600080fd5b610188610761565b341561028557600080fd5b61028d610767565b604051600160a060020a03909116815260200160405180910390f35b6100f6610776565b34156102bc57600080fd5b6101886108c3565b34156102cf57600080fd5b61028d610907565b34156102e257600080fd5b610188610916565b34156102f557600080fd5b61018861091c565b341561030857600080fd5b610188610922565b6100f6600160a060020a036004351661037c565b341561032f57600080fd5b61010b610928565b341561034257600080fd5b6100f6600160a060020a0360043516610931565b341561036157600080fd5b61028d6109bf565b341561037457600080fd5b61010b6109ce565b600080600160a060020a038316151561039457600080fd5b61039c610776565b6103a4610a00565b15156103af57600080fd5b600e5460ff161515600114156103c457600080fd5b3491506103d082610a51565b600d549091506103e6908363ffffffff610ac116565b600d55600f546103fc908263ffffffff610ac116565b600f55600854600160a060020a03166340c10f19848360006040516020015260405160e060020a63ffffffff8516028152600160a060020a0390921660048301526024820152604401602060405180830381600087803b151561045e57600080fd5b6102c65a03f1151561046f57600080fd5b505050604051805190505082600160a060020a031633600160a060020a03167f623b3804fa71d67900d064613da8f94b9617215ee90799290593e1745087ad18848460405191825260208201526040908101905180910390a36104d0610adb565b505050565b600e5460ff1681565b61050c828260006040518059106104f25750595b818152601f19601f83011681016020016040529050610516565b5050565b600c5481565b60008381526007602052604090205460ff16151561053357600080fd5b61053b610b11565b600160a060020a031633600160a060020a031614151561055a57600080fd5b7fcf34ef537ac33ee1ac626ca1587a0a7e8e51561e5514f8cb36afa1c5102b3bab8260405160208082528190810183818151815260200191508051906020019080838360005b838110156105b85780820151838201526020016105a0565b50505050905090810190601f1680156105e55780820380516001836020036101000a031916815260200191505b509250505060405180910390a16105fb82610cb1565b60065550506000908152600760205260409020805460ff19169055565b600d5481565b6000805433600160a060020a0390811691161461063a57600080fd5b600160a060020a038316151561064f57600080fd5b600e5460ff1615156001141561066457600080fd5b61066d82610cc4565b600854909150600160a060020a03166340c10f19848360006040516020015260405160e060020a63ffffffff8516028152600160a060020a0390921660048301526024820152604401602060405180830381600087803b15156106cf57600080fd5b6102c65a03f115156106e057600080fd5b50505060405180515050600f546106fd908263ffffffff610ac116565b600f557f9e9d071824fd57d062ca63fd8b786d8da48a6807eebbcb2d83f9e8d21398e28c8383836040518084600160a060020a0316600160a060020a03168152602001838152602001828152602001935050505060405180910390a16104d0610adb565b600f5481565b600b54600160a060020a031681565b60007f3d0eca545e3cd19801e484dd4ad2c6e1a2c2384066ae97c5c003f8f6ec700bc36107d560408051908101604052600381527f55524c00000000000000000000000000000000000000000000000000000000006020820152610cd7565b60405190815260200160405180910390a16108a76040805190810160405280600381526020017f55524c0000000000000000000000000000000000000000000000000000000000815250608060405190810160405280604981526020017f6a736f6e2868747470733a2f2f6d696e2d6170692e63727970746f636f6d706181526020017f72652e636f6d2f646174612f70726963653f6673796d3d455448267473796d7381526020017f3d555344292e5553440000000000000000000000000000000000000000000000815250610ee5565b6000908152600760205260409020805460ff1916600117905550565b600061090160408051908101604052600381527f55524c00000000000000000000000000000000000000000000000000000000006020820152610cd7565b90505b90565b600054600160a060020a031681565b600a5481565b60095481565b60065481565b600e5460ff1690565b60005433600160a060020a0390811691161461094c57600080fd5b600160a060020a038116151561096157600080fd5b600054600160a060020a0380831691167f8be0079c531659141344cd1fd0a4f28419497f9722a3daafe3b4186f6b6457e060405160405180910390a360008054600160a060020a031916600160a060020a0392909216919091179055565b600854600160a060020a031681565b6000805433600160a060020a039081169116146109ea57600080fd5b50600e805460ff19166001179081905560ff1690565b60008060008034600014159250670de0b6b3a7640000610a2b3460065461125b90919063ffffffff16565b811515610a3457fe5b049150600a548210159050828015610a495750805b935050505090565b6000806000670de0b6b3a7640000610a8585610a79606460065461125b90919063ffffffff16565b9063ffffffff61125b16565b811515610a8e57fe5b049150600c54670de0b6b3a7640000811515610aa657fe5b049050610ab9818363ffffffff61125b16565b949350505050565b600082820183811015610ad057fe5b8091505b5092915050565b600b54600160a060020a03163480156108fc0290604051600060405180830381858888f193505050501515610b0f57600080fd5b565b600154600090600160a060020a03161580610b3e5750600154610b3c90600160a060020a0316611286565b155b15610b4f57610b4d600061128a565b505b600154600160a060020a03166338cc48316000604051602001526040518163ffffffff1660e060020a028152600401602060405180830381600087803b1515610b9757600080fd5b6102c65a03f11515610ba857600080fd5b5050506040518051600254600160a060020a039081169116149050610c4a57600154600160a060020a03166338cc48316000604051602001526040518163ffffffff1660e060020a028152600401602060405180830381600087803b1515610c0f57600080fd5b6102c65a03f11515610c2057600080fd5b505050604051805160028054600160a060020a031916600160a060020a0392909216919091179055505b600254600160a060020a031663c281d19e6000604051602001526040518163ffffffff1660e060020a028152600401602060405180830381600087803b1515610c9257600080fd5b6102c65a03f11515610ca357600080fd5b505050604051805191505090565b6000610cbe826000611294565b92915050565b6000610cbe82600163ffffffff61125b16565b600154600090600160a060020a03161580610d045750600154610d0290600160a060020a0316611286565b155b15610d1557610d13600061128a565b505b600154600160a060020a03166338cc48316000604051602001526040518163ffffffff1660e060020a028152600401602060405180830381600087803b1515610d5d57600080fd5b6102c65a03f11515610d6e57600080fd5b5050506040518051600254600160a060020a039081169116149050610e1057600154600160a060020a03166338cc48316000604051602001526040518163ffffffff1660e060020a028152600401602060405180830381600087803b1515610dd557600080fd5b6102c65a03f11515610de657600080fd5b505050604051805160028054600160a060020a031916600160a060020a0392909216919091179055505b600254600160a060020a031663524f3889836000604051602001526040518263ffffffff1660e060020a0281526004018080602001828103825283818151815260200191508051906020019080838360005b83811015610e7a578082015183820152602001610e62565b50505050905090810190601f168015610ea75780820380516001836020036101000a031916815260200191505b5092505050602060405180830381600087803b1515610ec557600080fd5b6102c65a03f11515610ed657600080fd5b50505060405180519392505050565b6001546000908190600160a060020a03161580610f145750600154610f1290600160a060020a0316611286565b155b15610f2557610f23600061128a565b505b600154600160a060020a03166338cc48316000604051602001526040518163ffffffff1660e060020a028152600401602060405180830381600087803b1515610f6d57600080fd5b6102c65a03f11515610f7e57600080fd5b5050506040518051600254600160a060020a03908116911614905061102057600154600160a060020a03166338cc48316000604051602001526040518163ffffffff1660e060020a028152600401602060405180830381600087803b1515610fe557600080fd5b6102c65a03f11515610ff657600080fd5b505050604051805160028054600160a060020a031916600160a060020a0392909216919091179055505b600254600160a060020a031663524f3889856000604051602001526040518263ffffffff1660e060020a0281526004018080602001828103825283818151815260200191508051906020019080838360005b8381101561108a578082015183820152602001611072565b50505050905090810190601f1680156110b75780820380516001836020036101000a031916815260200191505b5092505050602060405180830381600087803b15156110d557600080fd5b6102c65a03f115156110e657600080fd5b5050506040518051915050670de0b6b3a764000062030d403a02018111156111115760009150610ad4565b600254600160a060020a031663adf59f99826000878782604051602001526040518563ffffffff1660e060020a028152600401808481526020018060200180602001838103835285818151815260200191508051906020019080838360005b83811015611188578082015183820152602001611170565b50505050905090810190601f1680156111b55780820380516001836020036101000a031916815260200191505b50838103825284818151815260200191508051906020019080838360005b838110156111eb5780820151838201526020016111d3565b50505050905090810190601f1680156112185780820380516001836020036101000a031916815260200191505b50955050505050506020604051808303818588803b151561123857600080fd5b6125ee5a03f1151561124957600080fd5b50505050604051805195945050505050565b60008083151561126e5760009150610ad4565b5082820282848281151561127e57fe5b0414610ad057fe5b3b90565b6000610cbe611402565b600061129e611733565b5082600080805b83518110156113e5577f30000000000000000000000000000000000000000000000000000000000000008482815181106112db57fe5b016020015160f860020a900460f860020a02600160f860020a0319161015801561134c57507f390000000000000000000000000000000000000000000000000000000000000084828151811061132d57fe5b016020015160f860020a900460f860020a02600160f860020a03191611155b156113a257811561136b57851515611363576113e5565b600019909501945b600a83029250603084828151811061137f57fe5b016020015160f860020a900460f860020a0260f860020a900403830192506113dd565b8381815181106113ae57fe5b016020015160f860020a900460f860020a02600160f860020a031916602e60f860020a0214156113dd57600191505b6001016112a5565b60008611156113f75785600a0a830292505b509095945050505050565b600080611422731d3b2638a7cc9f2cb3d298a3da7a90b67e5506ed611286565b11156114925760018054600160a060020a031916731d3b2638a7cc9f2cb3d298a3da7a90b67e5506ed17905561148a60408051908101604052600b81527f6574685f6d61696e6e65740000000000000000000000000000000000000000006020820152611720565b506001610904565b60006114b173c03a2615d5efaf5f49f60b7bb6583eaec212fdf1611286565b11156115195760018054600160a060020a03191673c03a2615d5efaf5f49f60b7bb6583eaec212fdf117905561148a60408051908101604052600c81527f6574685f726f707374656e3300000000000000000000000000000000000000006020820152611720565b600061153873b7a07bcf2ba2f2703b24c0691b5278999c59ac7e611286565b11156115a05760018054600160a060020a03191673b7a07bcf2ba2f2703b24c0691b5278999c59ac7e17905561148a60408051908101604052600981527f6574685f6b6f76616e00000000000000000000000000000000000000000000006020820152611720565b60006115bf73146500cfd35b22e4a392fe0adc06de1a1368ed48611286565b11156116275760018054600160a060020a03191673146500cfd35b22e4a392fe0adc06de1a1368ed4817905561148a60408051908101604052600b81527f6574685f72696e6b6562790000000000000000000000000000000000000000006020820152611720565b6000611646736f485c8bf6fc43ea212e93bbf8ce046c7f1cb475611286565b1115611678575060018054600160a060020a031916736f485c8bf6fc43ea212e93bbf8ce046c7f1cb475178155610904565b60006116977320e12a1f859b3feae5fb2a0a32c18f5a65555bbf611286565b11156116c9575060018054600160a060020a0319167320e12a1f859b3feae5fb2a0a32c18f5a65555bbf178155610904565b60006116e87351efaf4c8b3c9afbd5ab9f4bbc82784ab6ef8faa611286565b111561171a575060018054600160a060020a0319167351efaf4c8b3c9afbd5ab9f4bbc82784ab6ef8faa178155610904565b50600090565b600381805161050c929160200190611745565b60206040519081016040526000815290565b828054600181600116156101000203166002900490600052602060002090601f016020900481019282601f1061178657805160ff19168380011785556117b3565b828001600101855582156117b3579182015b828111156117b3578251825591602001919060010190611798565b506117bf9291506117c3565b5090565b61090491905b808211156117bf57600081556001016117c9565b60006117e76117fd565b604051809103906000f080151561090157600080fd5b604051610c768061180e833901905600606060405260038054600160b060020a03191633600160a060020a0316179055610c488061002e6000396000f3006060604052600436106100e55763ffffffff7c010000000000000000000000000000000000000000000000000000000060003504166305d2035b81146100ea578063095ea7b31461011157806318160ddd1461013357806323b872dd146101585780633f4ba83a1461018057806340c10f19146101955780635c975abb146101b757806366188463146101ca57806370a08231146101ec5780637d64bcb41461020b5780638456cb591461021e5780638da5cb5b14610231578063a9059cbb14610260578063d73dd62314610282578063dd62ed3e146102a4578063f2fde38b146102c9575b600080fd5b34156100f557600080fd5b6100fd6102e8565b604051901515815260200160405180910390f35b341561011c57600080fd5b6100fd600160a060020a03600435166024356102f8565b341561013e57600080fd5b610146610323565b60405190815260200160405180910390f35b341561016357600080fd5b6100fd600160a060020a0360043581169060243516604435610329565b341561018b57600080fd5b610193610356565b005b34156101a057600080fd5b6100fd600160a060020a03600435166024356103d5565b34156101c257600080fd5b6100fd6104e3565b34156101d557600080fd5b6100fd600160a060020a03600435166024356104f3565b34156101f757600080fd5b610146600160a060020a0360043516610517565b341561021657600080fd5b6100fd610532565b341561022957600080fd5b6101936105be565b341561023c57600080fd5b610244610642565b604051600160a060020a03909116815260200160405180910390f35b341561026b57600080fd5b6100fd600160a060020a0360043516602435610651565b341561028d57600080fd5b6100fd600160a060020a0360043516602435610675565b34156102af57600080fd5b610146600160a060020a0360043581169060243516610699565b34156102d457600080fd5b610193600160a060020a03600435166106c4565b60035460a860020a900460ff1681565b60035460009060a060020a900460ff161561031257600080fd5b61031c838361075f565b9392505050565b60015490565b60035460009060a060020a900460ff161561034357600080fd5b61034e8484846107cb565b949350505050565b60035433600160a060020a0390811691161461037157600080fd5b60035460a060020a900460ff16151561038957600080fd5b6003805474ff0000000000000000000000000000000000000000191690557f7805862f689e2f13df9f062ff482ad3ad112aca9e0847911ed832e158c525b3360405160405180910390a1565b60035460009033600160a060020a039081169116146103f357600080fd5b60035460a860020a900460ff161561040a57600080fd5b60015461041d908363ffffffff61094b16565b600155600160a060020a038316600090815260208190526040902054610449908363ffffffff61094b16565b600160a060020a0384166000818152602081905260409081902092909255907f0f6798a560793a54c3bcfe86a93cde1e73087d944c0ea20544137d41213968859084905190815260200160405180910390a2600160a060020a03831660007fddf252ad1be2c89b69c2b068fc378daa952ba7f163c4a11628f55a4df523b3ef8460405190815260200160405180910390a350600192915050565b60035460a060020a900460ff1681565b60035460009060a060020a900460ff161561050d57600080fd5b61031c838361095a565b600160a060020a031660009081526020819052604090205490565b60035460009033600160a060020a0390811691161461055057600080fd5b60035460a860020a900460ff161561056757600080fd5b6003805475ff000000000000000000000000000000000000000000191660a860020a1790557fae5184fba832cb2b1f702aca6117b8d265eaf03ad33eb133f19dde0f5920fa0860405160405180910390a150600190565b60035433600160a060020a039081169116146105d957600080fd5b60035460a060020a900460ff16156105f057600080fd5b6003805474ff0000000000000000000000000000000000000000191660a060020a1790557f6985a02210a168e66602d3235cb6db0e70f92b3ba4d376a33c0f3d9434bff62560405160405180910390a1565b600354600160a060020a031681565b60035460009060a060020a900460ff161561066b57600080fd5b61031c8383610a54565b60035460009060a060020a900460ff161561068f57600080fd5b61031c8383610b66565b600160a060020a03918216600090815260026020908152604080832093909416825291909152205490565b60035433600160a060020a039081169116146106df57600080fd5b600160a060020a03811615156106f457600080fd5b600354600160a060020a0380831691167f8be0079c531659141344cd1fd0a4f28419497f9722a3daafe3b4186f6b6457e060405160405180910390a36003805473ffffffffffffffffffffffffffffffffffffffff1916600160a060020a0392909216919091179055565b600160a060020a03338116600081815260026020908152604080832094871680845294909152808220859055909291907f8c5be1e5ebec7d5bd14f71427d1e84f3dd0314c0f7b2291e5b200ac8c7c3b9259085905190815260200160405180910390a350600192915050565b6000600160a060020a03831615156107e257600080fd5b600160a060020a03841660009081526020819052604090205482111561080757600080fd5b600160a060020a038085166000908152600260209081526040808320339094168352929052205482111561083a57600080fd5b600160a060020a038416600090815260208190526040902054610863908363ffffffff610c0a16565b600160a060020a038086166000908152602081905260408082209390935590851681522054610898908363ffffffff61094b16565b600160a060020a03808516600090815260208181526040808320949094558783168252600281528382203390931682529190915220546108de908363ffffffff610c0a16565b600160a060020a03808616600081815260026020908152604080832033861684529091529081902093909355908516917fddf252ad1be2c89b69c2b068fc378daa952ba7f163c4a11628f55a4df523b3ef9085905190815260200160405180910390a35060019392505050565b60008282018381101561031c57fe5b600160a060020a033381166000908152600260209081526040808320938616835292905290812054808311156109b757600160a060020a0333811660009081526002602090815260408083209388168352929052908120556109ee565b6109c7818463ffffffff610c0a16565b600160a060020a033381166000908152600260209081526040808320938916835292905220555b600160a060020a0333811660008181526002602090815260408083209489168084529490915290819020547f8c5be1e5ebec7d5bd14f71427d1e84f3dd0314c0f7b2291e5b200ac8c7c3b925915190815260200160405180910390a35060019392505050565b6000600160a060020a0383161515610a6b57600080fd5b600160a060020a033316600090815260208190526040902054821115610a9057600080fd5b600160a060020a033316600090815260208190526040902054610ab9908363ffffffff610c0a16565b600160a060020a033381166000908152602081905260408082209390935590851681522054610aee908363ffffffff61094b16565b60008085600160a060020a0316600160a060020a031681526020019081526020016000208190555082600160a060020a031633600160a060020a03167fddf252ad1be2c89b69c2b068fc378daa952ba7f163c4a11628f55a4df523b3ef8460405190815260200160405180910390a350600192915050565b600160a060020a033381166000908152600260209081526040808320938616835292905290812054610b9e908363ffffffff61094b16565b600160a060020a0333811660008181526002602090815260408083209489168084529490915290819020849055919290917f8c5be1e5ebec7d5bd14f71427d1e84f3dd0314c0f7b2291e5b200ac8c7c3b92591905190815260200160405180910390a350600192915050565b600082821115610c1657fe5b509003905600a165627a7a72305820f7d966fba35b2a385130ef8d02ebdbbd695e5c935655ab005a67d7998fb029ed0029a165627a7a7230582010df62718472ff4b72fd8a9234bf19b060cc60cfa89e783b164443142e78807c0029606060405260038054600160b060020a03191633600160a060020a0316179055610c488061002e6000396000f3006060604052600436106100e55763ffffffff7c010000000000000000000000000000000000000000000000000000000060003504166305d2035b81146100ea578063095ea7b31461011157806318160ddd1461013357806323b872dd146101585780633f4ba83a1461018057806340c10f19146101955780635c975abb146101b757806366188463146101ca57806370a08231146101ec5780637d64bcb41461020b5780638456cb591461021e5780638da5cb5b14610231578063a9059cbb14610260578063d73dd62314610282578063dd62ed3e146102a4578063f2fde38b146102c9575b600080fd5b34156100f557600080fd5b6100fd6102e8565b604051901515815260200160405180910390f35b341561011c57600080fd5b6100fd600160a060020a03600435166024356102f8565b341561013e57600080fd5b610146610323565b60405190815260200160405180910390f35b341561016357600080fd5b6100fd600160a060020a0360043581169060243516604435610329565b341561018b57600080fd5b610193610356565b005b34156101a057600080fd5b6100fd600160a060020a03600435166024356103d5565b34156101c257600080fd5b6100fd6104e3565b34156101d557600080fd5b6100fd600160a060020a03600435166024356104f3565b34156101f757600080fd5b610146600160a060020a0360043516610517565b341561021657600080fd5b6100fd610532565b341561022957600080fd5b6101936105be565b341561023c57600080fd5b610244610642565b604051600160a060020a03909116815260200160405180910390f35b341561026b57600080fd5b6100fd600160a060020a0360043516602435610651565b341561028d57600080fd5b6100fd600160a060020a0360043516602435610675565b34156102af57600080fd5b610146600160a060020a0360043581169060243516610699565b34156102d457600080fd5b610193600160a060020a03600435166106c4565b60035460a860020a900460ff1681565b60035460009060a060020a900460ff161561031257600080fd5b61031c838361075f565b9392505050565b60015490565b60035460009060a060020a900460ff161561034357600080fd5b61034e8484846107cb565b949350505050565b60035433600160a060020a0390811691161461037157600080fd5b60035460a060020a900460ff16151561038957600080fd5b6003805474ff0000000000000000000000000000000000000000191690557f7805862f689e2f13df9f062ff482ad3ad112aca9e0847911ed832e158c525b3360405160405180910390a1565b60035460009033600160a060020a039081169116146103f357600080fd5b60035460a860020a900460ff161561040a57600080fd5b60015461041d908363ffffffff61094b16565b600155600160a060020a038316600090815260208190526040902054610449908363ffffffff61094b16565b600160a060020a0384166000818152602081905260409081902092909255907f0f6798a560793a54c3bcfe86a93cde1e73087d944c0ea20544137d41213968859084905190815260200160405180910390a2600160a060020a03831660007fddf252ad1be2c89b69c2b068fc378daa952ba7f163c4a11628f55a4df523b3ef8460405190815260200160405180910390a350600192915050565b60035460a060020a900460ff1681565b60035460009060a060020a900460ff161561050d57600080fd5b61031c838361095a565b600160a060020a031660009081526020819052604090205490565b60035460009033600160a060020a0390811691161461055057600080fd5b60035460a860020a900460ff161561056757600080fd5b6003805475ff000000000000000000000000000000000000000000191660a860020a1790557fae5184fba832cb2b1f702aca6117b8d265eaf03ad33eb133f19dde0f5920fa0860405160405180910390a150600190565b60035433600160a060020a039081169116146105d957600080fd5b60035460a060020a900460ff16156105f057600080fd5b6003805474ff0000000000000000000000000000000000000000191660a060020a1790557f6985a02210a168e66602d3235cb6db0e70f92b3ba4d376a33c0f3d9434bff62560405160405180910390a1565b600354600160a060020a031681565b60035460009060a060020a900460ff161561066b57600080fd5b61031c8383610a54565b60035460009060a060020a900460ff161561068f57600080fd5b61031c8383610b66565b600160a060020a03918216600090815260026020908152604080832093909416825291909152205490565b60035433600160a060020a039081169116146106df57600080fd5b600160a060020a03811615156106f457600080fd5b600354600160a060020a0380831691167f8be0079c531659141344cd1fd0a4f28419497f9722a3daafe3b4186f6b6457e060405160405180910390a36003805473ffffffffffffffffffffffffffffffffffffffff1916600160a060020a0392909216919091179055565b600160a060020a03338116600081815260026020908152604080832094871680845294909152808220859055909291907f8c5be1e5ebec7d5bd14f71427d1e84f3dd0314c0f7b2291e5b200ac8c7c3b9259085905190815260200160405180910390a350600192915050565b6000600160a060020a03831615156107e257600080fd5b600160a060020a03841660009081526020819052604090205482111561080757600080fd5b600160a060020a038085166000908152600260209081526040808320339094168352929052205482111561083a57600080fd5b600160a060020a038416600090815260208190526040902054610863908363ffffffff610c0a16565b600160a060020a038086166000908152602081905260408082209390935590851681522054610898908363ffffffff61094b16565b600160a060020a03808516600090815260208181526040808320949094558783168252600281528382203390931682529190915220546108de908363ffffffff610c0a16565b600160a060020a03808616600081815260026020908152604080832033861684529091529081902093909355908516917fddf252ad1be2c89b69c2b068fc378daa952ba7f163c4a11628f55a4df523b3ef9085905190815260200160405180910390a35060019392505050565b60008282018381101561031c57fe5b600160a060020a033381166000908152600260209081526040808320938616835292905290812054808311156109b757600160a060020a0333811660009081526002602090815260408083209388168352929052908120556109ee565b6109c7818463ffffffff610c0a16565b600160a060020a033381166000908152600260209081526040808320938916835292905220555b600160a060020a0333811660008181526002602090815260408083209489168084529490915290819020547f8c5be1e5ebec7d5bd14f71427d1e84f3dd0314c0f7b2291e5b200ac8c7c3b925915190815260200160405180910390a35060019392505050565b6000600160a060020a0383161515610a6b57600080fd5b600160a060020a033316600090815260208190526040902054821115610a9057600080fd5b600160a060020a033316600090815260208190526040902054610ab9908363ffffffff610c0a16565b600160a060020a033381166000908152602081905260408082209390935590851681522054610aee908363ffffffff61094b16565b60008085600160a060020a0316600160a060020a031681526020019081526020016000208190555082600160a060020a031633600160a060020a03167fddf252ad1be2c89b69c2b068fc378daa952ba7f163c4a11628f55a4df523b3ef8460405190815260200160405180910390a350600192915050565b600160a060020a033381166000908152600260209081526040808320938616835292905290812054610b9e908363ffffffff61094b16565b600160a060020a0333811660008181526002602090815260408083209489168084529490915290819020849055919290917f8c5be1e5ebec7d5bd14f71427d1e84f3dd0314c0f7b2291e5b200ac8c7c3b92591905190815260200160405180910390a350600192915050565b600082821115610c1657fe5b509003905600a165627a7a72305820f7d966fba35b2a385130ef8d02ebdbbd695e5c935655ab005a67d7998fb029ed0029",
  "source": "pragma solidity ^0.4.18;\n\nimport \"../token/MintableToken.sol\";\nimport \"zeppelin-solidity/contracts/math/SafeMath.sol\";\nimport \"zeppelin-solidity/contracts/token/ERC20/TokenTimelock.sol\";\nimport \"zeppelin-solidity/contracts/ownership/Ownable.sol\";\nimport \"../TestOraclizeCall.sol\";\n\n\n\n/**\n * @title Crowdsale\n * @dev Crowdsale is a base contract for managing a token crowdsale.\n * Crowdsales have a start and end timestamps, where investors can make\n * token purchases and the crowdsale will assign them tokens based\n * on a token per ETH rate. Funds collected are forwarded to a wallet\n * as they arrive.\n */\ncontract Crowdsale is Ownable, TestOraclizeCall{\n  using SafeMath for uint256;\n\n  // The token being sold\n  MintableToken public token;\n\n  // Number of tokens that need to minted\n  uint256 public tokens;\n\n\n  // Minumum transaction value\n  uint256 public minTransactionValue;\n\n  // address where funds are collected\n  address public wallet;\n\n  // Per token value in cent i.e 1 token = 25 cent\n  uint256 public rate;\n\n  // amount of raised money in wei\n  uint256 public weiRaised;\n\n  bool public hasClosed = false;\n\n  uint256 public tokensSold;\n\n\n\n\n  //uint256 public constant _releaseTime = now + 10 minutes;\n\n  /**\n   * event for token purchase logging\n   * @param purchaser who paid for the tokens\n   * @param beneficiary who got the tokens\n   * @param value weis paid for purchase\n   * @param amount amount of tokens purchased\n   */\n  event TokenPurchase(address indexed purchaser, address indexed beneficiary, uint256 value, uint256 amount);\n\n  event Invested(address receiver, uint256 tokenCount, uint256 tokens);\n\n\n  function Crowdsale(uint256 _rate, address _wallet, uint256 _minTransactionValue) public {\n    //require(_startTime >= now);\n    //require(_endTime >= _startTime);\n    require(_rate > 0);\n    require(_wallet != address(0)); // checking if wallet address is not empty\n    require(_minTransactionValue > 0);\n\n    token = createTokenContract();\n    MintableToken(token).pause();\n    rate = _rate;\n    wallet = _wallet;\n    \n    minTransactionValue = _minTransactionValue;\n  }\n\n  // fallback function can be used to buy tokens\n  function () external payable {\n    buyTokens(msg.sender);\n  }\n\n  function getNow() internal view returns (uint256) {\n    return now;\n  }\n\n  // low level token purchase function\n  function buyTokens(address beneficiary) public payable {\n    require(beneficiary != address(0));\n    updatePrice(); // Calling oraclize query to update current exchange rate\n    require(validPurchase());\n    require(hasClosed != true);\n     \n    uint256 weiAmount = msg.value;\n    \n    // calculate token amount to be created\n    uint256 tokens = getTokenAmount(weiAmount);\n     \n    // update state\n    weiRaised = weiRaised.add(weiAmount);\n    tokensSold = tokensSold.add(tokens);\n\n    \n    token.mint(beneficiary,tokens);\n    TokenPurchase(msg.sender, beneficiary, weiAmount, tokens);\n    forwardFunds();\n    \n  }\n\n  function shutdown() onlyOwner external returns (bool){\n    hasClosed = true;\n    return hasClosed;\n  }\n  \n\n  // @return true if crowdsale event has ended\n  function hasEnded() public view returns (bool) {\n    return hasClosed;\n\n  }\n\n  // creates the token to be sold.\n  // override this method to have crowdsale of a specific mintable token.\n  function createTokenContract() internal returns (MintableToken) {\n    return new MintableToken();\n  }\n\n  // Override this method to have a way to add business logic to your crowdsale when buying\n  // price is referred to current exchange rate of USD in ETH\n  // rate is referred as per token value in USD\n  function getTokenAmount(uint256 weiAmount) internal view returns(uint256) {\n    uint256 centValueOfCustomerEther = price.mul(100).mul(weiAmount) / 1 ether; // price is multiplied by 100 to convert USD to cent\n    uint256 tokenPerCent = 1 ether / rate;\n    return tokenPerCent.mul(centValueOfCustomerEther);\n  \n  }\n\n  function getTokens(uint256 tokenCount) internal returns(uint256) {\n    return tokenCount.mul(1);\n  }\n\n  // send ether to the fund collection wallet\n  // override to create custom fund forwarding mechanisms\n  function forwardFunds() internal {\n    wallet.transfer(msg.value);\n    \n  }\n\n  // @return true if the transaction can buy tokens\n  function validPurchase() internal view returns (bool) {\n    bool nonZeroPurchase = msg.value != 0;\n    uint256 usdValueOfCustomerEther = price.mul(msg.value) / 1 ether;\n    bool aboveMinInvestment = usdValueOfCustomerEther >= minTransactionValue;\n    return  nonZeroPurchase && aboveMinInvestment;\n  }\n\n  function preallocate(address beneficiary, uint256 tokenCount) onlyOwner external {\n    require(beneficiary != address(0));\n    require(hasClosed != true);\n    uint256 tokens = getTokens(tokenCount);\n    token.mint(beneficiary, tokens);\n    tokensSold = tokensSold.add(tokens);\n    Invested(beneficiary, tokenCount, tokens);\n    forwardFunds();\n  }\n\n\n}",
  "sourcePath": "/home/cheshta/Desktop/smartcontract/contracts/crowdsale/Crowdsale.sol",
  "compiler": {
    "name": "solc",
    "version": "0.4.19+commit.c4cbbb05.Emscripten.clang"
  },
  "schemaVersion": "1.0.1",
  "updatedAt": "2018-07-20T10:46:37.518Z"
}