{
  "contractName": "Crowdsale",
  "abi": [
    {
      "constant": true,
      "inputs": [],
      "name": "rate",
      "outputs": [
        {
          "name": "",
          "type": "uint256"
        }
      ],
      "payable": false,
      "stateMutability": "view",
      "type": "function"
    },
    {
      "constant": true,
      "inputs": [],
      "name": "endTime",
      "outputs": [
        {
          "name": "",
          "type": "uint256"
        }
      ],
      "payable": false,
      "stateMutability": "view",
      "type": "function"
    },
    {
      "constant": true,
      "inputs": [],
      "name": "weiRaised",
      "outputs": [
        {
          "name": "",
          "type": "uint256"
        }
      ],
      "payable": false,
      "stateMutability": "view",
      "type": "function"
    },
    {
      "constant": true,
      "inputs": [],
      "name": "wallet",
      "outputs": [
        {
          "name": "",
          "type": "address"
        }
      ],
      "payable": false,
      "stateMutability": "view",
      "type": "function"
    },
    {
      "constant": true,
      "inputs": [],
      "name": "startTime",
      "outputs": [
        {
          "name": "",
          "type": "uint256"
        }
      ],
      "payable": false,
      "stateMutability": "view",
      "type": "function"
    },
    {
      "constant": true,
      "inputs": [],
      "name": "minTransactionValue",
      "outputs": [
        {
          "name": "",
          "type": "uint256"
        }
      ],
      "payable": false,
      "stateMutability": "view",
      "type": "function"
    },
    {
      "constant": true,
      "inputs": [],
      "name": "releaseTime",
      "outputs": [
        {
          "name": "",
          "type": "uint256"
        }
      ],
      "payable": false,
      "stateMutability": "view",
      "type": "function"
    },
    {
      "constant": true,
      "inputs": [],
      "name": "tokenTimelock",
      "outputs": [
        {
          "name": "",
          "type": "address"
        }
      ],
      "payable": false,
      "stateMutability": "view",
      "type": "function"
    },
    {
      "constant": true,
      "inputs": [],
      "name": "token",
      "outputs": [
        {
          "name": "",
          "type": "address"
        }
      ],
      "payable": false,
      "stateMutability": "view",
      "type": "function"
    },
    {
      "inputs": [
        {
          "name": "_startTime",
          "type": "uint256"
        },
        {
          "name": "_endTime",
          "type": "uint256"
        },
        {
          "name": "_rate",
          "type": "uint256"
        },
        {
          "name": "_wallet",
          "type": "address"
        },
        {
          "name": "_releaseTime",
          "type": "uint256"
        },
        {
          "name": "_minTransactionValue",
          "type": "uint256"
        }
      ],
      "payable": false,
      "stateMutability": "nonpayable",
      "type": "constructor"
    },
    {
      "payable": true,
      "stateMutability": "payable",
      "type": "fallback"
    },
    {
      "anonymous": false,
      "inputs": [
        {
          "indexed": true,
          "name": "purchaser",
          "type": "address"
        },
        {
          "indexed": true,
          "name": "beneficiary",
          "type": "address"
        },
        {
          "indexed": false,
          "name": "value",
          "type": "uint256"
        },
        {
          "indexed": false,
          "name": "amount",
          "type": "uint256"
        }
      ],
      "name": "TokenPurchase",
      "type": "event"
    },
    {
      "constant": false,
      "inputs": [
        {
          "name": "beneficiary",
          "type": "address"
        }
      ],
      "name": "buyTokens",
      "outputs": [],
      "payable": true,
      "stateMutability": "payable",
      "type": "function"
    },
    {
      "constant": true,
      "inputs": [],
      "name": "hasEnded",
      "outputs": [
        {
          "name": "",
          "type": "bool"
        }
      ],
      "payable": false,
      "stateMutability": "view",
      "type": "function"
    }
  ],
  "bytecode": "0x6060604052341561000f57600080fd5b60405160c080611de18339810160405280805191906020018051919060200180519190602001805191906020018051919060200180519150504286101561005557600080fd5b8585101561006257600080fd5b6000841161006f57600080fd5b600160a060020a038316151561008457600080fd5b6000811161009157600080fd5b8482101561009e57600080fd5b6100b36401000000006104cd6100fe82021704565b60008054600160a060020a0319908116600160a060020a0393841617909155600197909755600295909555600693909355600580549095169190931617909255600355600455610133565b6000610108610123565b604051809103906000f080151561011e57600080fd5b905090565b604051610a4b8061139683390190565b611254806101426000396000f3006060604052600436106100ae5763ffffffff7c01000000000000000000000000000000000000000000000000000000006000350416632c4e722e81146100b95780633197cbb6146100de5780634042b66f146100f1578063521eb2731461010457806378e979251461013357806397ca05e414610146578063b91d400114610159578063bba525161461016c578063ec8ac4d81461017f578063ecb70fb714610193578063fc0c546a146101ba575b6100b7336101cd565b005b34156100c457600080fd5b6100cc610386565b60405190815260200160405180910390f35b34156100e957600080fd5b6100cc61038c565b34156100fc57600080fd5b6100cc610392565b341561010f57600080fd5b610117610398565b604051600160a060020a03909116815260200160405180910390f35b341561013e57600080fd5b6100cc6103a7565b341561015157600080fd5b6100cc6103ad565b341561016457600080fd5b6100cc6103b3565b341561017757600080fd5b6101176103b9565b6100b7600160a060020a03600435166101cd565b341561019e57600080fd5b6101a66103c8565b604051901515815260200160405180910390f35b34156101c557600080fd5b6101176103d0565b600080600160a060020a03831615156101e557600080fd5b6101ed6103df565b15156101f857600080fd5b34915061020482610425565b60075490915061021a908363ffffffff61044216565b600755600054600354600160a060020a039091169084906102396104bd565b600160a060020a0393841681529190921660208201526040808201929092526060019051809103906000f080151561027057600080fd5b6008805473ffffffffffffffffffffffffffffffffffffffff1916600160a060020a039283161790819055600080548316926340c10f199216908490604051602001526040517c010000000000000000000000000000000000000000000000000000000063ffffffff8516028152600160a060020a0390921660048301526024820152604401602060405180830381600087803b151561030f57600080fd5b6102c65a03f1151561032057600080fd5b505050604051805190505082600160a060020a031633600160a060020a03167f623b3804fa71d67900d064613da8f94b9617215ee90799290593e1745087ad18848460405191825260208201526040908101905180910390a361038161045c565b505050565b60065481565b60025481565b60075481565b600554600160a060020a031681565b60015481565b60045481565b60035481565b600854600160a060020a031681565b600254421190565b600054600160a060020a031681565b60008060008060015442101580156103f957506002544211155b92503460001415915060045434101590508280156104145750815b801561041d5750805b935050505090565b600061043c6006548361049290919063ffffffff16565b92915050565b60008282018381101561045157fe5b8091505b5092915050565b600554600160a060020a03163480156108fc0290604051600060405180830381858888f19350505050151561049057600080fd5b565b6000808315156104a55760009150610455565b508282028284828115156104b557fe5b041461045157fe5b6040516102db8061050383390190565b60006104d76104f2565b604051809103906000f08015156104ed57600080fd5b905090565b604051610a4b806107de8339019056006060604052341561000f57600080fd5b6040516060806102db83398101604052808051919060200180519190602001805191505042811161003f57600080fd5b60008054600160a060020a03948516600160a060020a031991821617909155600180549390941692169190911790915560025561025a806100816000396000f3006060604052600436106100485763ffffffff60e060020a60003504166338af3eed811461004d57806386d1a69f1461007c578063b91d400114610091578063fc0c546a146100b6575b600080fd5b341561005857600080fd5b6100606100c9565b604051600160a060020a03909116815260200160405180910390f35b341561008757600080fd5b61008f6100d8565b005b341561009c57600080fd5b6100a4610194565b60405190815260200160405180910390f35b34156100c157600080fd5b61006061019a565b600154600160a060020a031681565b6002546000904210156100ea57600080fd5b60008054600160a060020a0316906370a082319030906040516020015260405160e060020a63ffffffff8416028152600160a060020a039091166004820152602401602060405180830381600087803b151561014557600080fd5b6102c65a03f1151561015657600080fd5b50505060405180519150506000811161016e57600080fd5b60015460005461019191600160a060020a0391821691168363ffffffff6101a916565b50565b60025481565b600054600160a060020a031681565b82600160a060020a031663a9059cbb838360006040516020015260405160e060020a63ffffffff8516028152600160a060020a0390921660048301526024820152604401602060405180830381600087803b151561020657600080fd5b6102c65a03f1151561021757600080fd5b50505060405180519050151561022957fe5b5050505600a165627a7a7230582086fcdb1253f88f6468f5d5ae734f61a01e7264540f2c89762fc1d061f04aa50f0029606060405260038054600160a860020a03191633600160a060020a0316179055610a1d8061002e6000396000f3006060604052600436106100c45763ffffffff7c010000000000000000000000000000000000000000000000000000000060003504166305d2035b81146100c9578063095ea7b3146100f057806318160ddd1461011257806323b872dd1461013757806340c10f191461015f578063661884631461018157806370a08231146101a35780637d64bcb4146101c25780638da5cb5b146101d5578063a9059cbb14610204578063d73dd62314610226578063dd62ed3e14610248578063f2fde38b1461026d575b600080fd5b34156100d457600080fd5b6100dc61028e565b604051901515815260200160405180910390f35b34156100fb57600080fd5b6100dc600160a060020a036004351660243561029e565b341561011d57600080fd5b61012561030a565b60405190815260200160405180910390f35b341561014257600080fd5b6100dc600160a060020a0360043581169060243516604435610310565b341561016a57600080fd5b6100dc600160a060020a0360043516602435610490565b341561018c57600080fd5b6100dc600160a060020a036004351660243561059e565b34156101ae57600080fd5b610125600160a060020a0360043516610698565b34156101cd57600080fd5b6100dc6106b3565b34156101e057600080fd5b6101e861073e565b604051600160a060020a03909116815260200160405180910390f35b341561020f57600080fd5b6100dc600160a060020a036004351660243561074d565b341561023157600080fd5b6100dc600160a060020a036004351660243561085f565b341561025357600080fd5b610125600160a060020a0360043581169060243516610903565b341561027857600080fd5b61028c600160a060020a036004351661092e565b005b60035460a060020a900460ff1681565b600160a060020a03338116600081815260026020908152604080832094871680845294909152808220859055909291907f8c5be1e5ebec7d5bd14f71427d1e84f3dd0314c0f7b2291e5b200ac8c7c3b9259085905190815260200160405180910390a350600192915050565b60015490565b6000600160a060020a038316151561032757600080fd5b600160a060020a03841660009081526020819052604090205482111561034c57600080fd5b600160a060020a038085166000908152600260209081526040808320339094168352929052205482111561037f57600080fd5b600160a060020a0384166000908152602081905260409020546103a8908363ffffffff6109c916565b600160a060020a0380861660009081526020819052604080822093909355908516815220546103dd908363ffffffff6109db16565b600160a060020a0380851660009081526020818152604080832094909455878316825260028152838220339093168252919091522054610423908363ffffffff6109c916565b600160a060020a03808616600081815260026020908152604080832033861684529091529081902093909355908516917fddf252ad1be2c89b69c2b068fc378daa952ba7f163c4a11628f55a4df523b3ef9085905190815260200160405180910390a35060019392505050565b60035460009033600160a060020a039081169116146104ae57600080fd5b60035460a060020a900460ff16156104c557600080fd5b6001546104d8908363ffffffff6109db16565b600155600160a060020a038316600090815260208190526040902054610504908363ffffffff6109db16565b600160a060020a0384166000818152602081905260409081902092909255907f0f6798a560793a54c3bcfe86a93cde1e73087d944c0ea20544137d41213968859084905190815260200160405180910390a2600160a060020a03831660007fddf252ad1be2c89b69c2b068fc378daa952ba7f163c4a11628f55a4df523b3ef8460405190815260200160405180910390a350600192915050565b600160a060020a033381166000908152600260209081526040808320938616835292905290812054808311156105fb57600160a060020a033381166000908152600260209081526040808320938816835292905290812055610632565b61060b818463ffffffff6109c916565b600160a060020a033381166000908152600260209081526040808320938916835292905220555b600160a060020a0333811660008181526002602090815260408083209489168084529490915290819020547f8c5be1e5ebec7d5bd14f71427d1e84f3dd0314c0f7b2291e5b200ac8c7c3b925915190815260200160405180910390a35060019392505050565b600160a060020a031660009081526020819052604090205490565b60035460009033600160a060020a039081169116146106d157600080fd5b60035460a060020a900460ff16156106e857600080fd5b6003805474ff0000000000000000000000000000000000000000191660a060020a1790557fae5184fba832cb2b1f702aca6117b8d265eaf03ad33eb133f19dde0f5920fa0860405160405180910390a150600190565b600354600160a060020a031681565b6000600160a060020a038316151561076457600080fd5b600160a060020a03331660009081526020819052604090205482111561078957600080fd5b600160a060020a0333166000908152602081905260409020546107b2908363ffffffff6109c916565b600160a060020a0333811660009081526020819052604080822093909355908516815220546107e7908363ffffffff6109db16565b60008085600160a060020a0316600160a060020a031681526020019081526020016000208190555082600160a060020a031633600160a060020a03167fddf252ad1be2c89b69c2b068fc378daa952ba7f163c4a11628f55a4df523b3ef8460405190815260200160405180910390a350600192915050565b600160a060020a033381166000908152600260209081526040808320938616835292905290812054610897908363ffffffff6109db16565b600160a060020a0333811660008181526002602090815260408083209489168084529490915290819020849055919290917f8c5be1e5ebec7d5bd14f71427d1e84f3dd0314c0f7b2291e5b200ac8c7c3b92591905190815260200160405180910390a350600192915050565b600160a060020a03918216600090815260026020908152604080832093909416825291909152205490565b60035433600160a060020a0390811691161461094957600080fd5b600160a060020a038116151561095e57600080fd5b600354600160a060020a0380831691167f8be0079c531659141344cd1fd0a4f28419497f9722a3daafe3b4186f6b6457e060405160405180910390a36003805473ffffffffffffffffffffffffffffffffffffffff1916600160a060020a0392909216919091179055565b6000828211156109d557fe5b50900390565b6000828201838110156109ea57fe5b93925050505600a165627a7a72305820cf0f1ba84aeec952bb4d0a642a24e2d9e0e495afe0426b02d177074fd9c3aa0d0029a165627a7a72305820a398e49b7b418b1737608b44efa27b226424be33a1adef6457ed243a90ca78b40029606060405260038054600160a860020a03191633600160a060020a0316179055610a1d8061002e6000396000f3006060604052600436106100c45763ffffffff7c010000000000000000000000000000000000000000000000000000000060003504166305d2035b81146100c9578063095ea7b3146100f057806318160ddd1461011257806323b872dd1461013757806340c10f191461015f578063661884631461018157806370a08231146101a35780637d64bcb4146101c25780638da5cb5b146101d5578063a9059cbb14610204578063d73dd62314610226578063dd62ed3e14610248578063f2fde38b1461026d575b600080fd5b34156100d457600080fd5b6100dc61028e565b604051901515815260200160405180910390f35b34156100fb57600080fd5b6100dc600160a060020a036004351660243561029e565b341561011d57600080fd5b61012561030a565b60405190815260200160405180910390f35b341561014257600080fd5b6100dc600160a060020a0360043581169060243516604435610310565b341561016a57600080fd5b6100dc600160a060020a0360043516602435610490565b341561018c57600080fd5b6100dc600160a060020a036004351660243561059e565b34156101ae57600080fd5b610125600160a060020a0360043516610698565b34156101cd57600080fd5b6100dc6106b3565b34156101e057600080fd5b6101e861073e565b604051600160a060020a03909116815260200160405180910390f35b341561020f57600080fd5b6100dc600160a060020a036004351660243561074d565b341561023157600080fd5b6100dc600160a060020a036004351660243561085f565b341561025357600080fd5b610125600160a060020a0360043581169060243516610903565b341561027857600080fd5b61028c600160a060020a036004351661092e565b005b60035460a060020a900460ff1681565b600160a060020a03338116600081815260026020908152604080832094871680845294909152808220859055909291907f8c5be1e5ebec7d5bd14f71427d1e84f3dd0314c0f7b2291e5b200ac8c7c3b9259085905190815260200160405180910390a350600192915050565b60015490565b6000600160a060020a038316151561032757600080fd5b600160a060020a03841660009081526020819052604090205482111561034c57600080fd5b600160a060020a038085166000908152600260209081526040808320339094168352929052205482111561037f57600080fd5b600160a060020a0384166000908152602081905260409020546103a8908363ffffffff6109c916565b600160a060020a0380861660009081526020819052604080822093909355908516815220546103dd908363ffffffff6109db16565b600160a060020a0380851660009081526020818152604080832094909455878316825260028152838220339093168252919091522054610423908363ffffffff6109c916565b600160a060020a03808616600081815260026020908152604080832033861684529091529081902093909355908516917fddf252ad1be2c89b69c2b068fc378daa952ba7f163c4a11628f55a4df523b3ef9085905190815260200160405180910390a35060019392505050565b60035460009033600160a060020a039081169116146104ae57600080fd5b60035460a060020a900460ff16156104c557600080fd5b6001546104d8908363ffffffff6109db16565b600155600160a060020a038316600090815260208190526040902054610504908363ffffffff6109db16565b600160a060020a0384166000818152602081905260409081902092909255907f0f6798a560793a54c3bcfe86a93cde1e73087d944c0ea20544137d41213968859084905190815260200160405180910390a2600160a060020a03831660007fddf252ad1be2c89b69c2b068fc378daa952ba7f163c4a11628f55a4df523b3ef8460405190815260200160405180910390a350600192915050565b600160a060020a033381166000908152600260209081526040808320938616835292905290812054808311156105fb57600160a060020a033381166000908152600260209081526040808320938816835292905290812055610632565b61060b818463ffffffff6109c916565b600160a060020a033381166000908152600260209081526040808320938916835292905220555b600160a060020a0333811660008181526002602090815260408083209489168084529490915290819020547f8c5be1e5ebec7d5bd14f71427d1e84f3dd0314c0f7b2291e5b200ac8c7c3b925915190815260200160405180910390a35060019392505050565b600160a060020a031660009081526020819052604090205490565b60035460009033600160a060020a039081169116146106d157600080fd5b60035460a060020a900460ff16156106e857600080fd5b6003805474ff0000000000000000000000000000000000000000191660a060020a1790557fae5184fba832cb2b1f702aca6117b8d265eaf03ad33eb133f19dde0f5920fa0860405160405180910390a150600190565b600354600160a060020a031681565b6000600160a060020a038316151561076457600080fd5b600160a060020a03331660009081526020819052604090205482111561078957600080fd5b600160a060020a0333166000908152602081905260409020546107b2908363ffffffff6109c916565b600160a060020a0333811660009081526020819052604080822093909355908516815220546107e7908363ffffffff6109db16565b60008085600160a060020a0316600160a060020a031681526020019081526020016000208190555082600160a060020a031633600160a060020a03167fddf252ad1be2c89b69c2b068fc378daa952ba7f163c4a11628f55a4df523b3ef8460405190815260200160405180910390a350600192915050565b600160a060020a033381166000908152600260209081526040808320938616835292905290812054610897908363ffffffff6109db16565b600160a060020a0333811660008181526002602090815260408083209489168084529490915290819020849055919290917f8c5be1e5ebec7d5bd14f71427d1e84f3dd0314c0f7b2291e5b200ac8c7c3b92591905190815260200160405180910390a350600192915050565b600160a060020a03918216600090815260026020908152604080832093909416825291909152205490565b60035433600160a060020a0390811691161461094957600080fd5b600160a060020a038116151561095e57600080fd5b600354600160a060020a0380831691167f8be0079c531659141344cd1fd0a4f28419497f9722a3daafe3b4186f6b6457e060405160405180910390a36003805473ffffffffffffffffffffffffffffffffffffffff1916600160a060020a0392909216919091179055565b6000828211156109d557fe5b50900390565b6000828201838110156109ea57fe5b93925050505600a165627a7a72305820cf0f1ba84aeec952bb4d0a642a24e2d9e0e495afe0426b02d177074fd9c3aa0d0029",
  "source": "pragma solidity ^0.4.18;\n\nimport \"../token/MintableToken.sol\";\nimport \"zeppelin-solidity/contracts/math/SafeMath.sol\";\nimport \"zeppelin-solidity/contracts/token/ERC20/TokenTimelock.sol\";\n\n\n\n/**\n * @title Crowdsale\n * @dev Crowdsale is a base contract for managing a token crowdsale.\n * Crowdsales have a start and end timestamps, where investors can make\n * token purchases and the crowdsale will assign them tokens based\n * on a token per ETH rate. Funds collected are forwarded to a wallet\n * as they arrive.\n */\ncontract Crowdsale {\n  using SafeMath for uint256;\n\n  // The token being sold\n  MintableToken public token;\n\n  // start and end timestamps where investments are allowed (both inclusive)\n  uint256 public startTime;\n  uint256 public endTime;\n  uint256 public releaseTime;\n\n  // Minumum transaction value\n  uint256 public minTransactionValue;\n  // address where funds are collected\n  address public wallet;\n\n  // how many token units a buyer gets per wei\n  uint256 public rate;\n\n  // amount of raised money in wei\n  uint256 public weiRaised;\n\n  TokenTimelock public tokenTimelock;\n\n  //uint256 public constant _releaseTime = now + 10 minutes;\n\n  /**\n   * event for token purchase logging\n   * @param purchaser who paid for the tokens\n   * @param beneficiary who got the tokens\n   * @param value weis paid for purchase\n   * @param amount amount of tokens purchased\n   */\n  event TokenPurchase(address indexed purchaser, address indexed beneficiary, uint256 value, uint256 amount);\n\n\n  function Crowdsale(uint256 _startTime, uint256 _endTime, uint256 _rate, address _wallet, uint256 _releaseTime, uint256 _minTransactionValue) public {\n    require(_startTime >= now);\n    require(_endTime >= _startTime);\n    require(_rate > 0);\n    require(_wallet != address(0)); // checking if wallet address is not empty\n    require(_minTransactionValue > 0);\n    require(_releaseTime >= _endTime);\n\n    token = createTokenContract();\n    \n    startTime = _startTime;\n    endTime = _endTime;\n    rate = _rate;\n    wallet = _wallet;\n    releaseTime = _releaseTime;\n    minTransactionValue = _minTransactionValue;\n  }\n\n  // fallback function can be used to buy tokens\n  function () external payable {\n    buyTokens(msg.sender);\n  }\n\n  function getNow() internal view returns (uint256) {\n    return now;\n  }\n\n  // low level token purchase function\n  function buyTokens(address beneficiary) public payable {\n    require(beneficiary != address(0));\n    require(validPurchase());\n\n    uint256 weiAmount = msg.value;\n\n    // calculate token amount to be created\n    uint256 tokens = getTokenAmount(weiAmount);\n\n    // update state\n    weiRaised = weiRaised.add(weiAmount);\n\n    \n    tokenTimelock = new TokenTimelock(token, beneficiary, releaseTime);\n    token.mint(tokenTimelock,tokens);\n    TokenPurchase(msg.sender, beneficiary, weiAmount, tokens);\n    forwardFunds();\n    \n  }\n\n  \n\n  // @return true if crowdsale event has ended\n  function hasEnded() public view returns (bool) {\n    return now > endTime;\n  }\n\n  // creates the token to be sold.\n  // override this method to have crowdsale of a specific mintable token.\n  function createTokenContract() internal returns (MintableToken) {\n    return new MintableToken();\n  }\n\n  // Override this method to have a way to add business logic to your crowdsale when buying\n  function getTokenAmount(uint256 weiAmount) internal view returns(uint256) {\n    return weiAmount.mul(rate);\n  }\n\n  // send ether to the fund collection wallet\n  // override to create custom fund forwarding mechanisms\n  function forwardFunds() internal {\n    wallet.transfer(msg.value);\n  }\n\n  // @return true if the transaction can buy tokens\n  function validPurchase() internal view returns (bool) {\n    bool withinPeriod = now >= startTime && now <= endTime;\n    bool nonZeroPurchase = msg.value != 0;\n    bool aboveMinInvestment = msg.value >= minTransactionValue;\n    return withinPeriod && nonZeroPurchase && aboveMinInvestment;\n  }\n\n}\n",
  "sourcePath": "/home/cheshta/Documents/projects-nodejs/crowdsale_vers2_testcasescovered_changes/contracts/crowdsale/Crowdsale.sol",
  "compiler": {
    "name": "solc",
    "version": "0.4.19+commit.c4cbbb05.Emscripten.clang"
  },
  "schemaVersion": "1.0.1",
  "updatedAt": "2018-04-09T09:58:53.087Z"
}