{
  "contractName": "PreIcoCrowdsale",
  "abi": [
    {
      "constant": true,
      "inputs": [],
      "name": "hasClosed",
      "outputs": [
        {
          "name": "",
          "type": "bool"
        }
      ],
      "payable": false,
      "stateMutability": "view",
      "type": "function"
    },
    {
      "constant": false,
      "inputs": [
        {
          "name": "_myid",
          "type": "bytes32"
        },
        {
          "name": "_result",
          "type": "string"
        }
      ],
      "name": "__callback",
      "outputs": [],
      "payable": false,
      "stateMutability": "nonpayable",
      "type": "function"
    },
    {
      "constant": true,
      "inputs": [],
      "name": "rate",
      "outputs": [
        {
          "name": "",
          "type": "uint256"
        }
      ],
      "payable": false,
      "stateMutability": "view",
      "type": "function"
    },
    {
      "constant": false,
      "inputs": [
        {
          "name": "_myid",
          "type": "bytes32"
        },
        {
          "name": "_result",
          "type": "string"
        },
        {
          "name": "proof",
          "type": "bytes"
        }
      ],
      "name": "__callback",
      "outputs": [],
      "payable": false,
      "stateMutability": "nonpayable",
      "type": "function"
    },
    {
      "constant": true,
      "inputs": [],
      "name": "goal",
      "outputs": [
        {
          "name": "",
          "type": "uint256"
        }
      ],
      "payable": false,
      "stateMutability": "view",
      "type": "function"
    },
    {
      "constant": true,
      "inputs": [],
      "name": "weiRaised",
      "outputs": [
        {
          "name": "",
          "type": "uint256"
        }
      ],
      "payable": false,
      "stateMutability": "view",
      "type": "function"
    },
    {
      "constant": false,
      "inputs": [],
      "name": "finalize",
      "outputs": [],
      "payable": false,
      "stateMutability": "nonpayable",
      "type": "function"
    },
    {
      "constant": false,
      "inputs": [
        {
          "name": "beneficiary",
          "type": "address"
        },
        {
          "name": "tokenCount",
          "type": "uint256"
        }
      ],
      "name": "preallocate",
      "outputs": [],
      "payable": false,
      "stateMutability": "nonpayable",
      "type": "function"
    },
    {
      "constant": true,
      "inputs": [],
      "name": "wallet",
      "outputs": [
        {
          "name": "",
          "type": "address"
        }
      ],
      "payable": false,
      "stateMutability": "view",
      "type": "function"
    },
    {
      "constant": true,
      "inputs": [],
      "name": "goalReached",
      "outputs": [
        {
          "name": "",
          "type": "bool"
        }
      ],
      "payable": false,
      "stateMutability": "view",
      "type": "function"
    },
    {
      "constant": false,
      "inputs": [],
      "name": "destroy",
      "outputs": [],
      "payable": false,
      "stateMutability": "nonpayable",
      "type": "function"
    },
    {
      "constant": true,
      "inputs": [],
      "name": "isFinalized",
      "outputs": [
        {
          "name": "",
          "type": "bool"
        }
      ],
      "payable": false,
      "stateMutability": "view",
      "type": "function"
    },
    {
      "constant": true,
      "inputs": [],
      "name": "owner",
      "outputs": [
        {
          "name": "",
          "type": "address"
        }
      ],
      "payable": false,
      "stateMutability": "view",
      "type": "function"
    },
    {
      "constant": true,
      "inputs": [],
      "name": "minTransactionValue",
      "outputs": [
        {
          "name": "",
          "type": "uint256"
        }
      ],
      "payable": false,
      "stateMutability": "view",
      "type": "function"
    },
    {
      "constant": true,
      "inputs": [],
      "name": "tokenCount",
      "outputs": [
        {
          "name": "",
          "type": "uint256"
        }
      ],
      "payable": false,
      "stateMutability": "view",
      "type": "function"
    },
    {
      "constant": true,
      "inputs": [],
      "name": "price",
      "outputs": [
        {
          "name": "",
          "type": "uint256"
        }
      ],
      "payable": false,
      "stateMutability": "view",
      "type": "function"
    },
    {
      "constant": false,
      "inputs": [],
      "name": "update",
      "outputs": [],
      "payable": true,
      "stateMutability": "payable",
      "type": "function"
    },
    {
      "constant": true,
      "inputs": [],
      "name": "currentExchangeRate",
      "outputs": [
        {
          "name": "",
          "type": "uint256"
        }
      ],
      "payable": false,
      "stateMutability": "view",
      "type": "function"
    },
    {
      "constant": false,
      "inputs": [],
      "name": "releaseTokens",
      "outputs": [],
      "payable": false,
      "stateMutability": "nonpayable",
      "type": "function"
    },
    {
      "constant": false,
      "inputs": [],
      "name": "claimRefund",
      "outputs": [],
      "payable": false,
      "stateMutability": "nonpayable",
      "type": "function"
    },
    {
      "constant": true,
      "inputs": [],
      "name": "releaseTime",
      "outputs": [
        {
          "name": "",
          "type": "uint256"
        }
      ],
      "payable": false,
      "stateMutability": "view",
      "type": "function"
    },
    {
      "constant": true,
      "inputs": [],
      "name": "tokenTimelock",
      "outputs": [
        {
          "name": "",
          "type": "address"
        }
      ],
      "payable": false,
      "stateMutability": "view",
      "type": "function"
    },
    {
      "constant": false,
      "inputs": [
        {
          "name": "beneficiary",
          "type": "address"
        }
      ],
      "name": "buyTokens",
      "outputs": [],
      "payable": true,
      "stateMutability": "payable",
      "type": "function"
    },
    {
      "constant": true,
      "inputs": [],
      "name": "hasEnded",
      "outputs": [
        {
          "name": "",
          "type": "bool"
        }
      ],
      "payable": false,
      "stateMutability": "view",
      "type": "function"
    },
    {
      "constant": false,
      "inputs": [
        {
          "name": "newOwner",
          "type": "address"
        }
      ],
      "name": "transferOwnership",
      "outputs": [],
      "payable": false,
      "stateMutability": "nonpayable",
      "type": "function"
    },
    {
      "constant": false,
      "inputs": [
        {
          "name": "_recipient",
          "type": "address"
        }
      ],
      "name": "destroyAndSend",
      "outputs": [],
      "payable": false,
      "stateMutability": "nonpayable",
      "type": "function"
    },
    {
      "constant": true,
      "inputs": [],
      "name": "vault",
      "outputs": [
        {
          "name": "",
          "type": "address"
        }
      ],
      "payable": false,
      "stateMutability": "view",
      "type": "function"
    },
    {
      "constant": true,
      "inputs": [],
      "name": "token",
      "outputs": [
        {
          "name": "",
          "type": "address"
        }
      ],
      "payable": false,
      "stateMutability": "view",
      "type": "function"
    },
    {
      "constant": false,
      "inputs": [],
      "name": "shutdown",
      "outputs": [
        {
          "name": "",
          "type": "bool"
        }
      ],
      "payable": false,
      "stateMutability": "nonpayable",
      "type": "function"
    },
    {
      "inputs": [
        {
          "name": "_rate",
          "type": "uint256"
        },
        {
          "name": "_goal",
          "type": "uint256"
        },
        {
          "name": "_wallet",
          "type": "address"
        },
        {
          "name": "_releaseTime",
          "type": "uint256"
        },
        {
          "name": "_minTransactionValue",
          "type": "uint256"
        }
      ],
      "payable": false,
      "stateMutability": "nonpayable",
      "type": "constructor"
    },
    {
      "payable": true,
      "stateMutability": "payable",
      "type": "fallback"
    },
    {
      "anonymous": false,
      "inputs": [],
      "name": "Finalized",
      "type": "event"
    },
    {
      "anonymous": false,
      "inputs": [
        {
          "indexed": true,
          "name": "purchaser",
          "type": "address"
        },
        {
          "indexed": true,
          "name": "beneficiary",
          "type": "address"
        },
        {
          "indexed": false,
          "name": "value",
          "type": "uint256"
        },
        {
          "indexed": false,
          "name": "amount",
          "type": "uint256"
        }
      ],
      "name": "TokenPurchase",
      "type": "event"
    },
    {
      "anonymous": false,
      "inputs": [
        {
          "indexed": false,
          "name": "receiver",
          "type": "address"
        },
        {
          "indexed": false,
          "name": "tokenCount",
          "type": "uint256"
        },
        {
          "indexed": false,
          "name": "tokens",
          "type": "uint256"
        }
      ],
      "name": "Invested",
      "type": "event"
    },
    {
      "anonymous": false,
      "inputs": [
        {
          "indexed": false,
          "name": "text",
          "type": "string"
        }
      ],
      "name": "Log",
      "type": "event"
    },
    {
      "anonymous": false,
      "inputs": [
        {
          "indexed": true,
          "name": "previousOwner",
          "type": "address"
        },
        {
          "indexed": true,
          "name": "newOwner",
          "type": "address"
        }
      ],
      "name": "OwnershipTransferred",
      "type": "event"
    }
  ],
  "bytecode": "0x6060604052600d805460a060020a60ff02191690556010805460ff1916905534156200002a57600080fd5b60405160a080620045c7833981016040528080519190602001805191906020018051919060200180519190602001805160008054600160a060020a03191633600160a060020a031617905591508490508584848462000096640100000000620001a6810262000a4b1704565b60008411620000a457600080fd5b600160a060020a0383161515620000ba57600080fd5b60008111620000c857600080fd5b42821015620000d657600080fd5b620000ee640100000000620019b86200027982021704565b60078054600160a060020a0319908116600160a060020a0393841617909155600b95909555600a8054909516931692909217909255600891909155600955600081116200013a57600080fd5b600a54600160a060020a03166200015062000aca565b600160a060020a039091168152602001604051809103906000f08015156200017757600080fd5b60128054600160a060020a031916600160a060020a03929092169190911790556011555062000b8e9350505050565b620002766040805190810160405280600381526020017f55524c000000000000000000000000000000000000000000000000000000000081525060806040519081016040908152604982527f6a736f6e2868747470733a2f2f6d696e2d6170692e63727970746f636f6d706160208301527f72652e636f6d2f646174612f70726963653f6673796d3d455448267473796d73908201527f3d555344292e5553440000000000000000000000000000000000000000000000606082015264010000000062001207620002a282021704565b50565b60006200028562000adb565b604051809103906000f08015156200029c57600080fd5b90505b90565b6001546000908190600160a060020a03161580620002e25750600154620002e090600160a060020a0316640100000000620015bf620006b482021704565b155b156200030457620003026000640100000000620015c3620006b882021704565b505b600154600160a060020a03166338cc48316000604051602001526040518163ffffffff167c0100000000000000000000000000000000000000000000000000000000028152600401602060405180830381600087803b15156200036657600080fd5b6102c65a03f115156200037857600080fd5b5050506040518051600254600160a060020a0390811691161490506200043657600154600160a060020a03166338cc48316000604051602001526040518163ffffffff167c0100000000000000000000000000000000000000000000000000000000028152600401602060405180830381600087803b1515620003fa57600080fd5b6102c65a03f115156200040c57600080fd5b505050604051805160028054600160a060020a031916600160a060020a0392909216919091179055505b600254600160a060020a031663524f3889856000604051602001526040518263ffffffff167c01000000000000000000000000000000000000000000000000000000000281526004018080602001828103825283818151815260200191508051906020019080838360005b83811015620004bb578082015183820152602001620004a1565b50505050905090810190601f168015620004e95780820380516001836020036101000a031916815260200191505b5092505050602060405180830381600087803b15156200050857600080fd5b6102c65a03f115156200051a57600080fd5b5050506040518051915050670de0b6b3a764000062030d403a0201811115620005475760009150620006ad565b600254600160a060020a031663adf59f99826000878782604051602001526040518563ffffffff167c0100000000000000000000000000000000000000000000000000000000028152600401808481526020018060200180602001838103835285818151815260200191508051906020019080838360005b83811015620005d9578082015183820152602001620005bf565b50505050905090810190601f168015620006075780820380516001836020036101000a031916815260200191505b50838103825284818151815260200191508051906020019080838360005b838110156200063f57808201518382015260200162000625565b50505050905090810190601f1680156200066d5780820380516001836020036101000a031916815260200191505b50955050505050506020604051808303818588803b15156200068e57600080fd5b6125ee5a03f11515620006a057600080fd5b5050505060405180519250505b5092915050565b3b90565b6000620006d2640100000000620015c9620006d882021704565b92915050565b60008062000708731d3b2638a7cc9f2cb3d298a3da7a90b67e5506ed640100000000620015bf620006b482021704565b11156200078a5760018054600160a060020a031916731d3b2638a7cc9f2cb3d298a3da7a90b67e5506ed1790556200078160408051908101604052600b81527f6574685f6d61696e6e65740000000000000000000000000000000000000000006020820152640100000000620018e762000ab182021704565b5060016200029f565b6000620007b973c03a2615d5efaf5f49f60b7bb6583eaec212fdf1640100000000620015bf620006b482021704565b1115620008325760018054600160a060020a03191673c03a2615d5efaf5f49f60b7bb6583eaec212fdf11790556200078160408051908101604052600c81527f6574685f726f707374656e3300000000000000000000000000000000000000006020820152640100000000620018e762000ab182021704565b60006200086173b7a07bcf2ba2f2703b24c0691b5278999c59ac7e640100000000620015bf620006b482021704565b1115620008da5760018054600160a060020a03191673b7a07bcf2ba2f2703b24c0691b5278999c59ac7e1790556200078160408051908101604052600981527f6574685f6b6f76616e00000000000000000000000000000000000000000000006020820152640100000000620018e762000ab182021704565b60006200090973146500cfd35b22e4a392fe0adc06de1a1368ed48640100000000620015bf620006b482021704565b1115620009825760018054600160a060020a03191673146500cfd35b22e4a392fe0adc06de1a1368ed481790556200078160408051908101604052600b81527f6574685f72696e6b6562790000000000000000000000000000000000000000006020820152640100000000620018e762000ab182021704565b6000620009b1736f485c8bf6fc43ea212e93bbf8ce046c7f1cb475640100000000620015bf620006b482021704565b1115620009e5575060018054600160a060020a031916736f485c8bf6fc43ea212e93bbf8ce046c7f1cb4751781556200029f565b600062000a147320e12a1f859b3feae5fb2a0a32c18f5a65555bbf640100000000620015bf620006b482021704565b111562000a48575060018054600160a060020a0319167320e12a1f859b3feae5fb2a0a32c18f5a65555bbf1781556200029f565b600062000a777351efaf4c8b3c9afbd5ab9f4bbc82784ab6ef8faa640100000000620015bf620006b482021704565b111562000aab575060018054600160a060020a0319167351efaf4c8b3c9afbd5ab9f4bbc82784ab6ef8faa1781556200029f565b50600090565b600381805162000ac692916020019062000aec565b5050565b60405161060c806200341683390190565b604051610ba58062003a2283390190565b828054600181600116156101000203166002900490600052602060002090601f016020900481019282601f1062000b2f57805160ff191683800117855562000b5f565b8280016001018555821562000b5f579182015b8281111562000b5f57825182559160200191906001019062000b42565b5062000b6d92915062000b71565b5090565b6200029f91905b8082111562000b6d576000815560010162000b78565b6128788062000b9e6000396000f30060606040526004361061015b5763ffffffff60e060020a6000350416631515bc2b811461016657806327dc297e1461018d5780632c4e722e146101e357806338bbfa501461020857806340193883146102a05780634042b66f146102b35780634bb278f3146102c65780635100602a146102d9578063521eb273146102fb5780637d3d65221461032a57806383197ef01461033d5780638d4e4083146103505780638da5cb5b1461036357806397ca05e4146103765780639f181b5e14610389578063a035b1fe1461039c578063a2e62045146103af578063a3684977146103b7578063a96f8668146103ca578063b5545a3c146103dd578063b91d4001146103f0578063bba5251614610403578063ec8ac4d814610416578063ecb70fb71461042a578063f2fde38b1461043d578063f5074f411461045c578063fbfa77cf1461047b578063fc0c546a1461048e578063fc0e74d1146104a1575b610164336104b4565b005b341561017157600080fd5b610179610662565b604051901515815260200160405180910390f35b341561019857600080fd5b610164600480359060446024803590810190830135806020601f8201819004810201604051908101604052818152929190602084018383808284375094965061067295505050505050565b34156101ee57600080fd5b6101f6610743565b60405190815260200160405180910390f35b341561021357600080fd5b610164600480359060446024803590810190830135806020601f8201819004810201604051908101604052818152929190602084018383808284378201915050505050509190803590602001908201803590602001908080601f01602080910402602001604051908101604052818152929190602084018383808284375094965061074995505050505050565b34156102ab57600080fd5b6101f661081b565b34156102be57600080fd5b6101f6610821565b34156102d157600080fd5b610164610827565b34156102e457600080fd5b610164600160a060020a03600435166024356108a8565b341561030657600080fd5b61030e6109dd565b604051600160a060020a03909116815260200160405180910390f35b341561033557600080fd5b6101796109ec565b341561034857600080fd5b6101646109f8565b341561035b57600080fd5b610179610a21565b341561036e57600080fd5b61030e610a2a565b341561038157600080fd5b6101f6610a39565b341561039457600080fd5b6101f6610a3f565b34156103a757600080fd5b6101f6610a45565b610164610a4b565b34156103c257600080fd5b6101f6610b0f565b34156103d557600080fd5b610164610b15565b34156103e857600080fd5b610164610b98565b34156103fb57600080fd5b6101f6610c0b565b341561040e57600080fd5b61030e610c11565b610164600160a060020a03600435166104b4565b341561043557600080fd5b610179610c20565b341561044857600080fd5b610164600160a060020a0360043516610c30565b341561046757600080fd5b610164600160a060020a0360043516610cbe565b341561048657600080fd5b61030e610ce5565b341561049957600080fd5b61030e610cf4565b34156104ac57600080fd5b610179610d03565b600080600160a060020a03831615156104cc57600080fd5b6104d4610d50565b15156104df57600080fd5b600d5460a060020a900460ff161515600114156104fb57600080fd5b34915061050782610d71565b600c5490915061051d908363ffffffff610da616565b600c55600754600854600160a060020a0390911690849061053c6118fe565b600160a060020a0393841681529190921660208201526040808201929092526060019051809103906000f080151561057357600080fd5b600d8054600160a060020a031916600160a060020a0392831617908190556007548216916340c10f1991168360006040516020015260405160e060020a63ffffffff8516028152600160a060020a0390921660048301526024820152604401602060405180830381600087803b15156105eb57600080fd5b6102c65a03f115156105fc57600080fd5b505050604051805190505082600160a060020a031633600160a060020a03167f623b3804fa71d67900d064613da8f94b9617215ee90799290593e1745087ad18848460405191825260208201526040908101905180910390a361065d610dc0565b505050565b600d5460a060020a900460ff1681565b61067a610e27565b600160a060020a031633600160a060020a031614151561069957600080fd5b7fcf34ef537ac33ee1ac626ca1587a0a7e8e51561e5514f8cb36afa1c5102b3bab8160405160208082528190810183818151815260200191508051906020019080838360005b838110156106f75780820151838201526020016106df565b50505050905090810190601f1680156107245780820380516001836020036101000a031916815260200191505b509250505060405180910390a161073c816002610fc7565b6006555050565b600b5481565b610751610e27565b600160a060020a031633600160a060020a031614151561077057600080fd5b7fcf34ef537ac33ee1ac626ca1587a0a7e8e51561e5514f8cb36afa1c5102b3bab8260405160208082528190810183818151815260200191508051906020019080838360005b838110156107ce5780820151838201526020016107b6565b50505050905090810190601f1680156107fb5780820380516001836020036101000a031916815260200191505b509250505060405180910390a1610813826002610fc7565b600655505050565b60115481565b600c5481565b60005433600160a060020a0390811691161461084257600080fd5b60105460ff161561085257600080fd5b61085a610c20565b151561086557600080fd5b61086d611135565b7f6823b073d48d6e3a7d385eeb601452d680e74bb46afe3255a7d778f3a9b1768160405160405180910390a16010805460ff19166001179055565b6000805433600160a060020a039081169116146108c457600080fd5b600160a060020a03831615156108d957600080fd5b600d5460a060020a900460ff161515600114156108f557600080fd5b6108fe826111f4565b600754909150600160a060020a03166340c10f19848360006040516020015260405160e060020a63ffffffff8516028152600160a060020a0390921660048301526024820152604401602060405180830381600087803b151561096057600080fd5b6102c65a03f1151561097157600080fd5b50505060405180519050507f9e9d071824fd57d062ca63fd8b786d8da48a6807eebbcb2d83f9e8d21398e28c8383836040518084600160a060020a0316600160a060020a03168152602001838152602001828152602001935050505060405180910390a161065d610dc0565b600a54600160a060020a031681565b601154600c5410155b90565b60005433600160a060020a03908116911614610a1357600080fd5b600054600160a060020a0316ff5b60105460ff1681565b600054600160a060020a031681565b60095481565b600f5481565b60065481565b610b0c6040805190810160405280600381526020017f55524c0000000000000000000000000000000000000000000000000000000000815250608060405190810160405280604981526020017f6a736f6e2868747470733a2f2f6d696e2d6170692e63727970746f636f6d706181526020017f72652e636f6d2f646174612f70726963653f6673796d3d455448267473796d7381526020017f3d555344292e5553440000000000000000000000000000000000000000000000815250611207565b50565b600e5481565b60005433600160a060020a03908116911614610b3057600080fd5b600d5460a060020a900460ff161515610b4857600080fd5b600d54600160a060020a03166386d1a69f6040518163ffffffff1660e060020a028152600401600060405180830381600087803b1515610b8757600080fd5b6102c65a03f1151561065d57600080fd5b60105460ff161515610ba957600080fd5b610bb16109ec565b15610bbb57600080fd5b601254600160a060020a031663fa89401a3360405160e060020a63ffffffff8416028152600160a060020a039091166004820152602401600060405180830381600087803b1515610b8757600080fd5b60085481565b600d54600160a060020a031681565b600d5460a060020a900460ff1690565b60005433600160a060020a03908116911614610c4b57600080fd5b600160a060020a0381161515610c6057600080fd5b600054600160a060020a0380831691167f8be0079c531659141344cd1fd0a4f28419497f9722a3daafe3b4186f6b6457e060405160405180910390a360008054600160a060020a031916600160a060020a0392909216919091179055565b60005433600160a060020a03908116911614610cd957600080fd5b80600160a060020a0316ff5b601254600160a060020a031681565b600754600160a060020a031681565b6000805433600160a060020a03908116911614610d1f57600080fd5b50600d805474ff0000000000000000000000000000000000000000191660a060020a90811791829055900460ff1690565b60095460009034801580159290911015908290610d6a5750805b9250505090565b6000610d8a600654600b5461157d90919063ffffffff16565b600e819055610da090839063ffffffff61159416565b92915050565b600082820183811015610db557fe5b8091505b5092915050565b601254600160a060020a031663f340fa01343360405160e060020a63ffffffff8516028152600160a060020a0390911660048201526024016000604051808303818588803b1515610e1057600080fd5b6125ee5a03f11515610e2157600080fd5b50505050565b600154600090600160a060020a03161580610e545750600154610e5290600160a060020a03166115bf565b155b15610e6557610e6360006115c3565b505b600154600160a060020a03166338cc48316000604051602001526040518163ffffffff1660e060020a028152600401602060405180830381600087803b1515610ead57600080fd5b6102c65a03f11515610ebe57600080fd5b5050506040518051600254600160a060020a039081169116149050610f6057600154600160a060020a03166338cc48316000604051602001526040518163ffffffff1660e060020a028152600401602060405180830381600087803b1515610f2557600080fd5b6102c65a03f11515610f3657600080fd5b505050604051805160028054600160a060020a031916600160a060020a0392909216919091179055505b600254600160a060020a031663c281d19e6000604051602001526040518163ffffffff1660e060020a028152600401602060405180830381600087803b1515610fa857600080fd5b6102c65a03f11515610fb957600080fd5b505050604051805191505090565b6000610fd161190e565b5082600080805b8351811015611118577f300000000000000000000000000000000000000000000000000000000000000084828151811061100e57fe5b016020015160f860020a900460f860020a02600160f860020a0319161015801561107f57507f390000000000000000000000000000000000000000000000000000000000000084828151811061106057fe5b016020015160f860020a900460f860020a02600160f860020a03191611155b156110d557811561109e5785151561109657611118565b600019909501945b600a8302925060308482815181106110b257fe5b016020015160f860020a900460f860020a0260f860020a90040383019250611110565b8381815181106110e157fe5b016020015160f860020a900460f860020a02600160f860020a031916602e60f860020a02141561111057600191505b600101610fd8565b600086111561112a5785600a0a830292505b509095945050505050565b61113d6109ec565b1561119a57601254600160a060020a03166343d726d66040518163ffffffff1660e060020a028152600401600060405180830381600087803b151561118157600080fd5b6102c65a03f1151561119257600080fd5b5050506111ee565b601254600160a060020a0316638c52dc416040518163ffffffff1660e060020a028152600401600060405180830381600087803b15156111d957600080fd5b6102c65a03f115156111ea57600080fd5b5050505b6111f25b565b6000610da082600163ffffffff61159416565b6001546000908190600160a060020a03161580611236575060015461123490600160a060020a03166115bf565b155b156112475761124560006115c3565b505b600154600160a060020a03166338cc48316000604051602001526040518163ffffffff1660e060020a028152600401602060405180830381600087803b151561128f57600080fd5b6102c65a03f115156112a057600080fd5b5050506040518051600254600160a060020a03908116911614905061134257600154600160a060020a03166338cc48316000604051602001526040518163ffffffff1660e060020a028152600401602060405180830381600087803b151561130757600080fd5b6102c65a03f1151561131857600080fd5b505050604051805160028054600160a060020a031916600160a060020a0392909216919091179055505b600254600160a060020a031663524f3889856000604051602001526040518263ffffffff1660e060020a0281526004018080602001828103825283818151815260200191508051906020019080838360005b838110156113ac578082015183820152602001611394565b50505050905090810190601f1680156113d95780820380516001836020036101000a031916815260200191505b5092505050602060405180830381600087803b15156113f757600080fd5b6102c65a03f1151561140857600080fd5b5050506040518051915050670de0b6b3a764000062030d403a02018111156114335760009150610db9565b600254600160a060020a031663adf59f99826000878782604051602001526040518563ffffffff1660e060020a028152600401808481526020018060200180602001838103835285818151815260200191508051906020019080838360005b838110156114aa578082015183820152602001611492565b50505050905090810190601f1680156114d75780820380516001836020036101000a031916815260200191505b50838103825284818151815260200191508051906020019080838360005b8381101561150d5780820151838201526020016114f5565b50505050905090810190601f16801561153a5780820380516001836020036101000a031916815260200191505b50955050505050506020604051808303818588803b151561155a57600080fd5b6125ee5a03f1151561156b57600080fd5b50505050604051805195945050505050565b600080828481151561158b57fe5b04949350505050565b6000808315156115a75760009150610db9565b508282028284828115156115b757fe5b0414610db557fe5b3b90565b6000610da05b6000806115e9731d3b2638a7cc9f2cb3d298a3da7a90b67e5506ed6115bf565b11156116595760018054600160a060020a031916731d3b2638a7cc9f2cb3d298a3da7a90b67e5506ed17905561165160408051908101604052600b81527f6574685f6d61696e6e657400000000000000000000000000000000000000000060208201526118e7565b5060016109f5565b600061167873c03a2615d5efaf5f49f60b7bb6583eaec212fdf16115bf565b11156116e05760018054600160a060020a03191673c03a2615d5efaf5f49f60b7bb6583eaec212fdf117905561165160408051908101604052600c81527f6574685f726f707374656e33000000000000000000000000000000000000000060208201526118e7565b60006116ff73b7a07bcf2ba2f2703b24c0691b5278999c59ac7e6115bf565b11156117675760018054600160a060020a03191673b7a07bcf2ba2f2703b24c0691b5278999c59ac7e17905561165160408051908101604052600981527f6574685f6b6f76616e000000000000000000000000000000000000000000000060208201526118e7565b600061178673146500cfd35b22e4a392fe0adc06de1a1368ed486115bf565b11156117ee5760018054600160a060020a03191673146500cfd35b22e4a392fe0adc06de1a1368ed4817905561165160408051908101604052600b81527f6574685f72696e6b65627900000000000000000000000000000000000000000060208201526118e7565b600061180d736f485c8bf6fc43ea212e93bbf8ce046c7f1cb4756115bf565b111561183f575060018054600160a060020a031916736f485c8bf6fc43ea212e93bbf8ce046c7f1cb4751781556109f5565b600061185e7320e12a1f859b3feae5fb2a0a32c18f5a65555bbf6115bf565b1115611890575060018054600160a060020a0319167320e12a1f859b3feae5fb2a0a32c18f5a65555bbf1781556109f5565b60006118af7351efaf4c8b3c9afbd5ab9f4bbc82784ab6ef8faa6115bf565b11156118e1575060018054600160a060020a0319167351efaf4c8b3c9afbd5ab9f4bbc82784ab6ef8faa1781556109f5565b50600090565b60038180516118fa929160200190611920565b5050565b6040516102ba806119ee83390190565b60206040519081016040526000815290565b828054600181600116156101000203166002900490600052602060002090601f016020900481019282601f1061196157805160ff191683800117855561198e565b8280016001018555821561198e579182015b8281111561198e578251825591602001919060010190611973565b5061199a92915061199e565b5090565b6109f591905b8082111561199a57600081556001016119a4565b60006119c26119dd565b604051809103906000f08015156119d857600080fd5b905090565b604051610ba580611ca88339019056006060604052341561000f57600080fd5b6040516060806102ba83398101604052808051919060200180519190602001805160008054600160a060020a03968716600160a060020a03199182161790915560018054959096169416939093179093555060025550610246806100746000396000f3006060604052600436106100485763ffffffff60e060020a60003504166338af3eed811461004d57806386d1a69f1461007c578063b91d400114610091578063fc0c546a146100b6575b600080fd5b341561005857600080fd5b6100606100c9565b604051600160a060020a03909116815260200160405180910390f35b341561008757600080fd5b61008f6100d8565b005b341561009c57600080fd5b6100a4610180565b60405190815260200160405180910390f35b34156100c157600080fd5b610060610186565b600154600160a060020a031681565b60008054600160a060020a03166370a0823130836040516020015260405160e060020a63ffffffff8416028152600160a060020a039091166004820152602401602060405180830381600087803b151561013157600080fd5b6102c65a03f1151561014257600080fd5b50505060405180519150506000811161015a57600080fd5b60015460005461017d91600160a060020a0391821691168363ffffffff61019516565b50565b60025481565b600054600160a060020a031681565b82600160a060020a031663a9059cbb838360006040516020015260405160e060020a63ffffffff8516028152600160a060020a0390921660048301526024820152604401602060405180830381600087803b15156101f257600080fd5b6102c65a03f1151561020357600080fd5b50505060405180519050151561021557fe5b5050505600a165627a7a72305820438c0d0c6419e879789c8ba1fd79264b1075b8dcfe65b7236cef8fbb9d35285e0029606060405260038054600160a860020a03191633600160a060020a0316179055610b778061002e6000396000f3006060604052600436106100e55763ffffffff7c010000000000000000000000000000000000000000000000000000000060003504166305d2035b81146100ea57806306fdde0314610111578063095ea7b31461019b57806318160ddd146101bd57806323b872dd146101e2578063313ce5671461020a57806340c10f1914610233578063661884631461025557806370a08231146102775780637d64bcb4146102965780638da5cb5b146102a957806395d89b41146102d8578063a9059cbb146102eb578063d73dd6231461030d578063dd62ed3e1461032f578063f2fde38b14610354575b600080fd5b34156100f557600080fd5b6100fd610375565b604051901515815260200160405180910390f35b341561011c57600080fd5b610124610385565b60405160208082528190810183818151815260200191508051906020019080838360005b83811015610160578082015183820152602001610148565b50505050905090810190601f16801561018d5780820380516001836020036101000a031916815260200191505b509250505060405180910390f35b34156101a657600080fd5b6100fd600160a060020a03600435166024356103bc565b34156101c857600080fd5b6101d0610428565b60405190815260200160405180910390f35b34156101ed57600080fd5b6100fd600160a060020a036004358116906024351660443561042e565b341561021557600080fd5b61021d6105ae565b60405160ff909116815260200160405180910390f35b341561023e57600080fd5b6100fd600160a060020a03600435166024356105b3565b341561026057600080fd5b6100fd600160a060020a03600435166024356106c1565b341561028257600080fd5b6101d0600160a060020a03600435166107bb565b34156102a157600080fd5b6100fd6107d6565b34156102b457600080fd5b6102bc610861565b604051600160a060020a03909116815260200160405180910390f35b34156102e357600080fd5b610124610870565b34156102f657600080fd5b6100fd600160a060020a03600435166024356108a7565b341561031857600080fd5b6100fd600160a060020a03600435166024356109b9565b341561033a57600080fd5b6101d0600160a060020a0360043581169060243516610a5d565b341561035f57600080fd5b610373600160a060020a0360043516610a88565b005b60035460a060020a900460ff1681565b60408051908101604052600581527f44756d6d79000000000000000000000000000000000000000000000000000000602082015281565b600160a060020a03338116600081815260026020908152604080832094871680845294909152808220859055909291907f8c5be1e5ebec7d5bd14f71427d1e84f3dd0314c0f7b2291e5b200ac8c7c3b9259085905190815260200160405180910390a350600192915050565b60015490565b6000600160a060020a038316151561044557600080fd5b600160a060020a03841660009081526020819052604090205482111561046a57600080fd5b600160a060020a038085166000908152600260209081526040808320339094168352929052205482111561049d57600080fd5b600160a060020a0384166000908152602081905260409020546104c6908363ffffffff610b2316565b600160a060020a0380861660009081526020819052604080822093909355908516815220546104fb908363ffffffff610b3516565b600160a060020a0380851660009081526020818152604080832094909455878316825260028152838220339093168252919091522054610541908363ffffffff610b2316565b600160a060020a03808616600081815260026020908152604080832033861684529091529081902093909355908516917fddf252ad1be2c89b69c2b068fc378daa952ba7f163c4a11628f55a4df523b3ef9085905190815260200160405180910390a35060019392505050565b601281565b60035460009033600160a060020a039081169116146105d157600080fd5b60035460a060020a900460ff16156105e857600080fd5b6001546105fb908363ffffffff610b3516565b600155600160a060020a038316600090815260208190526040902054610627908363ffffffff610b3516565b600160a060020a0384166000818152602081905260409081902092909255907f0f6798a560793a54c3bcfe86a93cde1e73087d944c0ea20544137d41213968859084905190815260200160405180910390a2600160a060020a03831660007fddf252ad1be2c89b69c2b068fc378daa952ba7f163c4a11628f55a4df523b3ef8460405190815260200160405180910390a350600192915050565b600160a060020a0333811660009081526002602090815260408083209386168352929052908120548083111561071e57600160a060020a033381166000908152600260209081526040808320938816835292905290812055610755565b61072e818463ffffffff610b2316565b600160a060020a033381166000908152600260209081526040808320938916835292905220555b600160a060020a0333811660008181526002602090815260408083209489168084529490915290819020547f8c5be1e5ebec7d5bd14f71427d1e84f3dd0314c0f7b2291e5b200ac8c7c3b925915190815260200160405180910390a35060019392505050565b600160a060020a031660009081526020819052604090205490565b60035460009033600160a060020a039081169116146107f457600080fd5b60035460a060020a900460ff161561080b57600080fd5b6003805474ff0000000000000000000000000000000000000000191660a060020a1790557fae5184fba832cb2b1f702aca6117b8d265eaf03ad33eb133f19dde0f5920fa0860405160405180910390a150600190565b600354600160a060020a031681565b60408051908101604052600181527f4400000000000000000000000000000000000000000000000000000000000000602082015281565b6000600160a060020a03831615156108be57600080fd5b600160a060020a0333166000908152602081905260409020548211156108e357600080fd5b600160a060020a03331660009081526020819052604090205461090c908363ffffffff610b2316565b600160a060020a033381166000908152602081905260408082209390935590851681522054610941908363ffffffff610b3516565b60008085600160a060020a0316600160a060020a031681526020019081526020016000208190555082600160a060020a031633600160a060020a03167fddf252ad1be2c89b69c2b068fc378daa952ba7f163c4a11628f55a4df523b3ef8460405190815260200160405180910390a350600192915050565b600160a060020a0333811660009081526002602090815260408083209386168352929052908120546109f1908363ffffffff610b3516565b600160a060020a0333811660008181526002602090815260408083209489168084529490915290819020849055919290917f8c5be1e5ebec7d5bd14f71427d1e84f3dd0314c0f7b2291e5b200ac8c7c3b92591905190815260200160405180910390a350600192915050565b600160a060020a03918216600090815260026020908152604080832093909416825291909152205490565b60035433600160a060020a03908116911614610aa357600080fd5b600160a060020a0381161515610ab857600080fd5b600354600160a060020a0380831691167f8be0079c531659141344cd1fd0a4f28419497f9722a3daafe3b4186f6b6457e060405160405180910390a36003805473ffffffffffffffffffffffffffffffffffffffff1916600160a060020a0392909216919091179055565b600082821115610b2f57fe5b50900390565b600082820183811015610b4457fe5b93925050505600a165627a7a723058200870d1386164bc6fc733d94fe88a71ad4ba11c4f4ffd39528d2507c721dd27ec0029a165627a7a7230582022e5dfac77e07920652a1e07c10a74009b996d285a5df3ee5d04243759bcc4a100296060604052341561000f57600080fd5b60405160208061060c8339810160405280805160008054600160a060020a03191633600160a060020a039081169190911790915590925082161515905061005557600080fd5b60028054600160a060020a031916600160a060020a03929092169190911760a060020a60ff021916905561057e8061008e6000396000f3006060604052600436106100985763ffffffff7c010000000000000000000000000000000000000000000000000000000060003504166343d726d6811461009d578063521eb273146100b25780638c52dc41146100e15780638da5cb5b146100f4578063c19d93fb14610107578063cb13cddb1461013e578063f2fde38b1461016f578063f340fa011461018e578063fa89401a146101a2575b600080fd5b34156100a857600080fd5b6100b06101c1565b005b34156100bd57600080fd5b6100c561029c565b604051600160a060020a03909116815260200160405180910390f35b34156100ec57600080fd5b6100b06102ab565b34156100ff57600080fd5b6100c561033c565b341561011257600080fd5b61011a61034b565b6040518082600281111561012a57fe5b60ff16815260200191505060405180910390f35b341561014957600080fd5b61015d600160a060020a036004351661035b565b60405190815260200160405180910390f35b341561017a57600080fd5b6100b0600160a060020a036004351661036d565b6100b0600160a060020a0360043516610408565b34156101ad57600080fd5b6100b0600160a060020a036004351661048c565b60005433600160a060020a039081169116146101dc57600080fd5b60006002805460a060020a900460ff16908111156101f657fe5b1461020057600080fd5b6002805474ff00000000000000000000000000000000000000001916740200000000000000000000000000000000000000001790557f1cdde67b72a90f19919ac732a437ac2f7a10fc128d28c2a6e525d89ce5cd9d3a60405160405180910390a1600254600160a060020a039081169030163180156108fc0290604051600060405180830381858888f19350505050151561029a57600080fd5b565b600254600160a060020a031681565b60005433600160a060020a039081169116146102c657600080fd5b60006002805460a060020a900460ff16908111156102e057fe5b146102ea57600080fd5b6002805474ff0000000000000000000000000000000000000000191660a060020a1790557f599d8e5a83cffb867d051598c4d70e805d59802d8081c1c7d6dffc5b6aca2b8960405160405180910390a1565b600054600160a060020a031681565b60025460a060020a900460ff1681565b60016020526000908152604090205481565b60005433600160a060020a0390811691161461038857600080fd5b600160a060020a038116151561039d57600080fd5b600054600160a060020a0380831691167f8be0079c531659141344cd1fd0a4f28419497f9722a3daafe3b4186f6b6457e060405160405180910390a36000805473ffffffffffffffffffffffffffffffffffffffff1916600160a060020a0392909216919091179055565b60005433600160a060020a0390811691161461042357600080fd5b60006002805460a060020a900460ff169081111561043d57fe5b1461044757600080fd5b600160a060020a038116600090815260016020526040902054610470903463ffffffff61053c16565b600160a060020a03909116600090815260016020526040902055565b600060016002805460a060020a900460ff16908111156104a857fe5b146104b257600080fd5b50600160a060020a038116600081815260016020526040808220805492905590919082156108fc0290839051600060405180830381858888f1935050505015156104fb57600080fd5b81600160a060020a03167fd7dee2702d63ad89917b6a4da9981c90c4d24f8c2bdfd64c604ecae57d8d06518260405190815260200160405180910390a25050565b60008282018381101561054b57fe5b93925050505600a165627a7a72305820a773f0d1fb76300cced31acf9528258287bc5e1029fe78860691b8df8646ef080029606060405260038054600160a860020a03191633600160a060020a0316179055610b778061002e6000396000f3006060604052600436106100e55763ffffffff7c010000000000000000000000000000000000000000000000000000000060003504166305d2035b81146100ea57806306fdde0314610111578063095ea7b31461019b57806318160ddd146101bd57806323b872dd146101e2578063313ce5671461020a57806340c10f1914610233578063661884631461025557806370a08231146102775780637d64bcb4146102965780638da5cb5b146102a957806395d89b41146102d8578063a9059cbb146102eb578063d73dd6231461030d578063dd62ed3e1461032f578063f2fde38b14610354575b600080fd5b34156100f557600080fd5b6100fd610375565b604051901515815260200160405180910390f35b341561011c57600080fd5b610124610385565b60405160208082528190810183818151815260200191508051906020019080838360005b83811015610160578082015183820152602001610148565b50505050905090810190601f16801561018d5780820380516001836020036101000a031916815260200191505b509250505060405180910390f35b34156101a657600080fd5b6100fd600160a060020a03600435166024356103bc565b34156101c857600080fd5b6101d0610428565b60405190815260200160405180910390f35b34156101ed57600080fd5b6100fd600160a060020a036004358116906024351660443561042e565b341561021557600080fd5b61021d6105ae565b60405160ff909116815260200160405180910390f35b341561023e57600080fd5b6100fd600160a060020a03600435166024356105b3565b341561026057600080fd5b6100fd600160a060020a03600435166024356106c1565b341561028257600080fd5b6101d0600160a060020a03600435166107bb565b34156102a157600080fd5b6100fd6107d6565b34156102b457600080fd5b6102bc610861565b604051600160a060020a03909116815260200160405180910390f35b34156102e357600080fd5b610124610870565b34156102f657600080fd5b6100fd600160a060020a03600435166024356108a7565b341561031857600080fd5b6100fd600160a060020a03600435166024356109b9565b341561033a57600080fd5b6101d0600160a060020a0360043581169060243516610a5d565b341561035f57600080fd5b610373600160a060020a0360043516610a88565b005b60035460a060020a900460ff1681565b60408051908101604052600581527f44756d6d79000000000000000000000000000000000000000000000000000000602082015281565b600160a060020a03338116600081815260026020908152604080832094871680845294909152808220859055909291907f8c5be1e5ebec7d5bd14f71427d1e84f3dd0314c0f7b2291e5b200ac8c7c3b9259085905190815260200160405180910390a350600192915050565b60015490565b6000600160a060020a038316151561044557600080fd5b600160a060020a03841660009081526020819052604090205482111561046a57600080fd5b600160a060020a038085166000908152600260209081526040808320339094168352929052205482111561049d57600080fd5b600160a060020a0384166000908152602081905260409020546104c6908363ffffffff610b2316565b600160a060020a0380861660009081526020819052604080822093909355908516815220546104fb908363ffffffff610b3516565b600160a060020a0380851660009081526020818152604080832094909455878316825260028152838220339093168252919091522054610541908363ffffffff610b2316565b600160a060020a03808616600081815260026020908152604080832033861684529091529081902093909355908516917fddf252ad1be2c89b69c2b068fc378daa952ba7f163c4a11628f55a4df523b3ef9085905190815260200160405180910390a35060019392505050565b601281565b60035460009033600160a060020a039081169116146105d157600080fd5b60035460a060020a900460ff16156105e857600080fd5b6001546105fb908363ffffffff610b3516565b600155600160a060020a038316600090815260208190526040902054610627908363ffffffff610b3516565b600160a060020a0384166000818152602081905260409081902092909255907f0f6798a560793a54c3bcfe86a93cde1e73087d944c0ea20544137d41213968859084905190815260200160405180910390a2600160a060020a03831660007fddf252ad1be2c89b69c2b068fc378daa952ba7f163c4a11628f55a4df523b3ef8460405190815260200160405180910390a350600192915050565b600160a060020a0333811660009081526002602090815260408083209386168352929052908120548083111561071e57600160a060020a033381166000908152600260209081526040808320938816835292905290812055610755565b61072e818463ffffffff610b2316565b600160a060020a033381166000908152600260209081526040808320938916835292905220555b600160a060020a0333811660008181526002602090815260408083209489168084529490915290819020547f8c5be1e5ebec7d5bd14f71427d1e84f3dd0314c0f7b2291e5b200ac8c7c3b925915190815260200160405180910390a35060019392505050565b600160a060020a031660009081526020819052604090205490565b60035460009033600160a060020a039081169116146107f457600080fd5b60035460a060020a900460ff161561080b57600080fd5b6003805474ff0000000000000000000000000000000000000000191660a060020a1790557fae5184fba832cb2b1f702aca6117b8d265eaf03ad33eb133f19dde0f5920fa0860405160405180910390a150600190565b600354600160a060020a031681565b60408051908101604052600181527f4400000000000000000000000000000000000000000000000000000000000000602082015281565b6000600160a060020a03831615156108be57600080fd5b600160a060020a0333166000908152602081905260409020548211156108e357600080fd5b600160a060020a03331660009081526020819052604090205461090c908363ffffffff610b2316565b600160a060020a033381166000908152602081905260408082209390935590851681522054610941908363ffffffff610b3516565b60008085600160a060020a0316600160a060020a031681526020019081526020016000208190555082600160a060020a031633600160a060020a03167fddf252ad1be2c89b69c2b068fc378daa952ba7f163c4a11628f55a4df523b3ef8460405190815260200160405180910390a350600192915050565b600160a060020a0333811660009081526002602090815260408083209386168352929052908120546109f1908363ffffffff610b3516565b600160a060020a0333811660008181526002602090815260408083209489168084529490915290819020849055919290917f8c5be1e5ebec7d5bd14f71427d1e84f3dd0314c0f7b2291e5b200ac8c7c3b92591905190815260200160405180910390a350600192915050565b600160a060020a03918216600090815260026020908152604080832093909416825291909152205490565b60035433600160a060020a03908116911614610aa357600080fd5b600160a060020a0381161515610ab857600080fd5b600354600160a060020a0380831691167f8be0079c531659141344cd1fd0a4f28419497f9722a3daafe3b4186f6b6457e060405160405180910390a36003805473ffffffffffffffffffffffffffffffffffffffff1916600160a060020a0392909216919091179055565b600082821115610b2f57fe5b50900390565b600082820183811015610b4457fe5b93925050505600a165627a7a723058200870d1386164bc6fc733d94fe88a71ad4ba11c4f4ffd39528d2507c721dd27ec0029",
  "source": "pragma solidity ^0.4.19;\n\nimport \"./Crowdsale.sol\";\nimport \"../token/MintableToken.sol\";\nimport \"./RefundableCrowdsale.sol\"; \nimport \"zeppelin-solidity/contracts/lifecycle/Destructible.sol\";\nimport \"../token/VolaviaToken.sol\";\nimport \"zeppelin-solidity/contracts/token/ERC20/TokenTimelock.sol\";\n\ncontract PreIcoCrowdsale is FinalizableCrowdsale,RefundableCrowdsale,Destructible {\n   \n    //Child contract to have the same constructor as the parent contract.\n    //ie is order to call super on constrcutor\n    \n    function PreIcoCrowdsale(uint256 _rate, uint256 _goal, address _wallet, uint256 _releaseTime, uint256 _minTransactionValue) public\n       \n        FinalizableCrowdsale()\n        RefundableCrowdsale(_goal)\n        Crowdsale(_rate,_wallet,_releaseTime,_minTransactionValue) \n        {\n           //As goal needs to be met for a successful crowdsale\n           //the value needs to less or equal than a cap which is limit for accepted funds\n           \n            \n        }\n\n     \n    \n    function createTokenContract() internal returns (MintableToken) {\n        return new VolaviaToken();\n    }\n\n}",
  "sourcePath": "/home/cheshta/Documents/projects-nodejs/crowdsale_v1.1/contracts/crowdsale/PreIcoCrowdsale.sol",
  "compiler": {
    "name": "solc",
    "version": "0.4.19+commit.c4cbbb05.Emscripten.clang"
  },
  "schemaVersion": "1.0.1",
  "updatedAt": "2018-05-15T10:22:25.055Z"
}