{
  "contractName": "PreIcoCrowdsale",
  "abi": [
    {
      "constant": true,
      "inputs": [],
      "name": "hasClosed",
      "outputs": [
        {
          "name": "",
          "type": "bool"
        }
      ],
      "payable": false,
      "stateMutability": "view",
      "type": "function"
    },
    {
      "constant": false,
      "inputs": [
        {
          "name": "myid",
          "type": "bytes32"
        },
        {
          "name": "result",
          "type": "string"
        }
      ],
      "name": "__callback",
      "outputs": [],
      "payable": false,
      "stateMutability": "nonpayable",
      "type": "function"
    },
    {
      "constant": true,
      "inputs": [],
      "name": "rate",
      "outputs": [
        {
          "name": "",
          "type": "uint256"
        }
      ],
      "payable": false,
      "stateMutability": "view",
      "type": "function"
    },
    {
      "constant": false,
      "inputs": [
        {
          "name": "_myid",
          "type": "bytes32"
        },
        {
          "name": "_result",
          "type": "string"
        },
        {
          "name": "proof",
          "type": "bytes"
        }
      ],
      "name": "__callback",
      "outputs": [],
      "payable": false,
      "stateMutability": "nonpayable",
      "type": "function"
    },
    {
      "constant": true,
      "inputs": [],
      "name": "goal",
      "outputs": [
        {
          "name": "",
          "type": "uint256"
        }
      ],
      "payable": false,
      "stateMutability": "view",
      "type": "function"
    },
    {
      "constant": true,
      "inputs": [],
      "name": "weiRaised",
      "outputs": [
        {
          "name": "",
          "type": "uint256"
        }
      ],
      "payable": false,
      "stateMutability": "view",
      "type": "function"
    },
    {
      "constant": false,
      "inputs": [],
      "name": "finalize",
      "outputs": [],
      "payable": false,
      "stateMutability": "nonpayable",
      "type": "function"
    },
    {
      "constant": false,
      "inputs": [
        {
          "name": "beneficiary",
          "type": "address"
        },
        {
          "name": "tokenCount",
          "type": "uint256"
        }
      ],
      "name": "preallocate",
      "outputs": [],
      "payable": false,
      "stateMutability": "nonpayable",
      "type": "function"
    },
    {
      "constant": true,
      "inputs": [],
      "name": "tokensSold",
      "outputs": [
        {
          "name": "",
          "type": "uint256"
        }
      ],
      "payable": false,
      "stateMutability": "view",
      "type": "function"
    },
    {
      "constant": true,
      "inputs": [],
      "name": "wallet",
      "outputs": [
        {
          "name": "",
          "type": "address"
        }
      ],
      "payable": false,
      "stateMutability": "view",
      "type": "function"
    },
    {
      "constant": false,
      "inputs": [],
      "name": "updatePrice",
      "outputs": [],
      "payable": true,
      "stateMutability": "payable",
      "type": "function"
    },
    {
      "constant": true,
      "inputs": [],
      "name": "goalReached",
      "outputs": [
        {
          "name": "",
          "type": "bool"
        }
      ],
      "payable": false,
      "stateMutability": "view",
      "type": "function"
    },
    {
      "constant": false,
      "inputs": [],
      "name": "destroy",
      "outputs": [],
      "payable": false,
      "stateMutability": "nonpayable",
      "type": "function"
    },
    {
      "constant": true,
      "inputs": [],
      "name": "oraclizeGetPrice",
      "outputs": [
        {
          "name": "",
          "type": "uint256"
        }
      ],
      "payable": false,
      "stateMutability": "view",
      "type": "function"
    },
    {
      "constant": true,
      "inputs": [],
      "name": "isFinalized",
      "outputs": [
        {
          "name": "",
          "type": "bool"
        }
      ],
      "payable": false,
      "stateMutability": "view",
      "type": "function"
    },
    {
      "constant": true,
      "inputs": [],
      "name": "owner",
      "outputs": [
        {
          "name": "",
          "type": "address"
        }
      ],
      "payable": false,
      "stateMutability": "view",
      "type": "function"
    },
    {
      "constant": true,
      "inputs": [],
      "name": "minTransactionValue",
      "outputs": [
        {
          "name": "",
          "type": "uint256"
        }
      ],
      "payable": false,
      "stateMutability": "view",
      "type": "function"
    },
    {
      "constant": true,
      "inputs": [],
      "name": "tokens",
      "outputs": [
        {
          "name": "",
          "type": "uint256"
        }
      ],
      "payable": false,
      "stateMutability": "view",
      "type": "function"
    },
    {
      "constant": true,
      "inputs": [],
      "name": "price",
      "outputs": [
        {
          "name": "",
          "type": "uint256"
        }
      ],
      "payable": false,
      "stateMutability": "view",
      "type": "function"
    },
    {
      "constant": false,
      "inputs": [],
      "name": "claimRefund",
      "outputs": [],
      "payable": false,
      "stateMutability": "nonpayable",
      "type": "function"
    },
    {
      "constant": false,
      "inputs": [
        {
          "name": "beneficiary",
          "type": "address"
        }
      ],
      "name": "buyTokens",
      "outputs": [],
      "payable": true,
      "stateMutability": "payable",
      "type": "function"
    },
    {
      "constant": true,
      "inputs": [],
      "name": "hasEnded",
      "outputs": [
        {
          "name": "",
          "type": "bool"
        }
      ],
      "payable": false,
      "stateMutability": "view",
      "type": "function"
    },
    {
      "constant": false,
      "inputs": [
        {
          "name": "newOwner",
          "type": "address"
        }
      ],
      "name": "transferOwnership",
      "outputs": [],
      "payable": false,
      "stateMutability": "nonpayable",
      "type": "function"
    },
    {
      "constant": false,
      "inputs": [
        {
          "name": "_recipient",
          "type": "address"
        }
      ],
      "name": "destroyAndSend",
      "outputs": [],
      "payable": false,
      "stateMutability": "nonpayable",
      "type": "function"
    },
    {
      "constant": true,
      "inputs": [],
      "name": "vault",
      "outputs": [
        {
          "name": "",
          "type": "address"
        }
      ],
      "payable": false,
      "stateMutability": "view",
      "type": "function"
    },
    {
      "constant": true,
      "inputs": [],
      "name": "token",
      "outputs": [
        {
          "name": "",
          "type": "address"
        }
      ],
      "payable": false,
      "stateMutability": "view",
      "type": "function"
    },
    {
      "constant": false,
      "inputs": [],
      "name": "shutdown",
      "outputs": [
        {
          "name": "",
          "type": "bool"
        }
      ],
      "payable": false,
      "stateMutability": "nonpayable",
      "type": "function"
    },
    {
      "inputs": [
        {
          "name": "_rate",
          "type": "uint256"
        },
        {
          "name": "_goal",
          "type": "uint256"
        },
        {
          "name": "_wallet",
          "type": "address"
        },
        {
          "name": "_minTransactionValue",
          "type": "uint256"
        }
      ],
      "payable": true,
      "stateMutability": "payable",
      "type": "constructor"
    },
    {
      "payable": true,
      "stateMutability": "payable",
      "type": "fallback"
    },
    {
      "anonymous": false,
      "inputs": [],
      "name": "Finalized",
      "type": "event"
    },
    {
      "anonymous": false,
      "inputs": [
        {
          "indexed": true,
          "name": "purchaser",
          "type": "address"
        },
        {
          "indexed": true,
          "name": "beneficiary",
          "type": "address"
        },
        {
          "indexed": false,
          "name": "value",
          "type": "uint256"
        },
        {
          "indexed": false,
          "name": "amount",
          "type": "uint256"
        }
      ],
      "name": "TokenPurchase",
      "type": "event"
    },
    {
      "anonymous": false,
      "inputs": [
        {
          "indexed": false,
          "name": "receiver",
          "type": "address"
        },
        {
          "indexed": false,
          "name": "tokenCount",
          "type": "uint256"
        },
        {
          "indexed": false,
          "name": "tokens",
          "type": "uint256"
        }
      ],
      "name": "Invested",
      "type": "event"
    },
    {
      "anonymous": false,
      "inputs": [
        {
          "indexed": false,
          "name": "text",
          "type": "string"
        }
      ],
      "name": "Log",
      "type": "event"
    },
    {
      "anonymous": false,
      "inputs": [
        {
          "indexed": false,
          "name": "text",
          "type": "string"
        }
      ],
      "name": "LogFailure",
      "type": "event"
    },
    {
      "anonymous": false,
      "inputs": [
        {
          "indexed": false,
          "name": "amt",
          "type": "uint256"
        }
      ],
      "name": "LogPrice",
      "type": "event"
    },
    {
      "anonymous": false,
      "inputs": [
        {
          "indexed": true,
          "name": "previousOwner",
          "type": "address"
        },
        {
          "indexed": true,
          "name": "newOwner",
          "type": "address"
        }
      ],
      "name": "OwnershipTransferred",
      "type": "event"
    }
  ],
  "bytecode": "0x60606040908152600e805460ff199081169091556010805490911690555160808062004d468339810160405280805191906020018051919060200180519190602001805160008054600160a060020a03191633600160a060020a031617905591508390508483836200007e640100000000620001eb8102620009321704565b600083116200008c57600080fd5b600160a060020a0382161515620000a257600080fd5b60008111620000b057600080fd5b620000c864010000000062001c3d6200035782021704565b60088054600160a060020a031916600160a060020a03928316179081905516638456cb596040518163ffffffff167c0100000000000000000000000000000000000000000000000000000000028152600401600060405180830381600087803b15156200013457600080fd5b6102c65a03f115156200014657600080fd5b505050600c92909255600b8054600160a060020a031916600160a060020a0392909216919091179055600a55600081116200018057600080fd5b600b54600160a060020a03166200019662000e2d565b600160a060020a039091168152602001604051809103906000f0801515620001bd57600080fd5b60128054600160a060020a031916600160a060020a03929092169190911790556011555062000ef192505050565b60007f3d0eca545e3cd19801e484dd4ad2c6e1a2c2384066ae97c5c003f8f6ec700bc36200025a60408051908101604052600381527f55524c00000000000000000000000000000000000000000000000000000000006020820152640100000000620010d26200038082021704565b60405190815260200160405180910390a16200033b6040805190810160405280600381526020017f55524c000000000000000000000000000000000000000000000000000000000081525060806040519081016040908152604982527f6a736f6e2868747470733a2f2f6d696e2d6170692e63727970746f636f6d706160208301527f72652e636f6d2f646174612f70726963653f6673796d3d455448267473796d73908201527f3d555344292e55534400000000000000000000000000000000000000000000006060820152640100000000620012e06200060582021704565b6000908152600760205260409020805460ff1916600117905550565b60006200036362000e3e565b604051809103906000f08015156200037a57600080fd5b90505b90565b600154600090600160a060020a03161580620003be5750600154620003bc90600160a060020a03166401000000006200168162000a1782021704565b155b15620003e057620003de60006401000000006200168562000a1b82021704565b505b600154600160a060020a03166338cc48316000604051602001526040518163ffffffff167c0100000000000000000000000000000000000000000000000000000000028152600401602060405180830381600087803b15156200044257600080fd5b6102c65a03f115156200045457600080fd5b5050506040518051600254600160a060020a0390811691161490506200051257600154600160a060020a03166338cc48316000604051602001526040518163ffffffff167c0100000000000000000000000000000000000000000000000000000000028152600401602060405180830381600087803b1515620004d657600080fd5b6102c65a03f11515620004e857600080fd5b505050604051805160028054600160a060020a031916600160a060020a0392909216919091179055505b600254600160a060020a031663524f3889836000604051602001526040518263ffffffff167c01000000000000000000000000000000000000000000000000000000000281526004018080602001828103825283818151815260200191508051906020019080838360005b83811015620005975780820151838201526020016200057d565b50505050905090810190601f168015620005c55780820380516001836020036101000a031916815260200191505b5092505050602060405180830381600087803b1515620005e457600080fd5b6102c65a03f11515620005f657600080fd5b50505060405180519392505050565b6001546000908190600160a060020a031615806200064557506001546200064390600160a060020a03166401000000006200168162000a1782021704565b155b1562000667576200066560006401000000006200168562000a1b82021704565b505b600154600160a060020a03166338cc48316000604051602001526040518163ffffffff167c0100000000000000000000000000000000000000000000000000000000028152600401602060405180830381600087803b1515620006c957600080fd5b6102c65a03f11515620006db57600080fd5b5050506040518051600254600160a060020a0390811691161490506200079957600154600160a060020a03166338cc48316000604051602001526040518163ffffffff167c0100000000000000000000000000000000000000000000000000000000028152600401602060405180830381600087803b15156200075d57600080fd5b6102c65a03f115156200076f57600080fd5b505050604051805160028054600160a060020a031916600160a060020a0392909216919091179055505b600254600160a060020a031663524f3889856000604051602001526040518263ffffffff167c01000000000000000000000000000000000000000000000000000000000281526004018080602001828103825283818151815260200191508051906020019080838360005b838110156200081e57808201518382015260200162000804565b50505050905090810190601f1680156200084c5780820380516001836020036101000a031916815260200191505b5092505050602060405180830381600087803b15156200086b57600080fd5b6102c65a03f115156200087d57600080fd5b5050506040518051915050670de0b6b3a764000062030d403a0201811115620008aa576000915062000a10565b600254600160a060020a031663adf59f99826000878782604051602001526040518563ffffffff167c0100000000000000000000000000000000000000000000000000000000028152600401808481526020018060200180602001838103835285818151815260200191508051906020019080838360005b838110156200093c57808201518382015260200162000922565b50505050905090810190601f1680156200096a5780820380516001836020036101000a031916815260200191505b50838103825284818151815260200191508051906020019080838360005b83811015620009a257808201518382015260200162000988565b50505050905090810190601f168015620009d05780820380516001836020036101000a031916815260200191505b50955050505050506020604051808303818588803b1515620009f157600080fd5b6125ee5a03f1151562000a0357600080fd5b5050505060405180519250505b5092915050565b3b90565b600062000a356401000000006200186262000a3b82021704565b92915050565b60008062000a6b731d3b2638a7cc9f2cb3d298a3da7a90b67e5506ed6401000000006200168162000a1782021704565b111562000aed5760018054600160a060020a031916731d3b2638a7cc9f2cb3d298a3da7a90b67e5506ed17905562000ae460408051908101604052600b81527f6574685f6d61696e6e6574000000000000000000000000000000000000000000602082015264010000000062001b8062000e1482021704565b5060016200037d565b600062000b1c73c03a2615d5efaf5f49f60b7bb6583eaec212fdf16401000000006200168162000a1782021704565b111562000b955760018054600160a060020a03191673c03a2615d5efaf5f49f60b7bb6583eaec212fdf117905562000ae460408051908101604052600c81527f6574685f726f707374656e330000000000000000000000000000000000000000602082015264010000000062001b8062000e1482021704565b600062000bc473b7a07bcf2ba2f2703b24c0691b5278999c59ac7e6401000000006200168162000a1782021704565b111562000c3d5760018054600160a060020a03191673b7a07bcf2ba2f2703b24c0691b5278999c59ac7e17905562000ae460408051908101604052600981527f6574685f6b6f76616e0000000000000000000000000000000000000000000000602082015264010000000062001b8062000e1482021704565b600062000c6c73146500cfd35b22e4a392fe0adc06de1a1368ed486401000000006200168162000a1782021704565b111562000ce55760018054600160a060020a03191673146500cfd35b22e4a392fe0adc06de1a1368ed4817905562000ae460408051908101604052600b81527f6574685f72696e6b656279000000000000000000000000000000000000000000602082015264010000000062001b8062000e1482021704565b600062000d14736f485c8bf6fc43ea212e93bbf8ce046c7f1cb4756401000000006200168162000a1782021704565b111562000d48575060018054600160a060020a031916736f485c8bf6fc43ea212e93bbf8ce046c7f1cb4751781556200037d565b600062000d777320e12a1f859b3feae5fb2a0a32c18f5a65555bbf6401000000006200168162000a1782021704565b111562000dab575060018054600160a060020a0319167320e12a1f859b3feae5fb2a0a32c18f5a65555bbf1781556200037d565b600062000dda7351efaf4c8b3c9afbd5ab9f4bbc82784ab6ef8faa6401000000006200168162000a1782021704565b111562000e0e575060018054600160a060020a0319167351efaf4c8b3c9afbd5ab9f4bbc82784ab6ef8faa1781556200037d565b50600090565b600381805162000e2992916020019062000e4f565b5050565b60405161060c806200396a83390190565b604051610dd08062003f7683390190565b828054600181600116156101000203166002900490600052602060002090601f016020900481019282601f1062000e9257805160ff191683800117855562000ec2565b8280016001018555821562000ec2579182015b8281111562000ec257825182559160200191906001019062000ea5565b5062000ed092915062000ed4565b5090565b6200037d91905b8082111562000ed0576000815560010162000edb565b612a698062000f016000396000f3006060604052600436106101455763ffffffff60e060020a6000350416631515bc2b811461015057806327dc297e146101775780632c4e722e146101cd57806338bbfa50146101f2578063401938831461028a5780634042b66f1461029d5780634bb278f3146102b05780635100602a146102c3578063518ab2a8146102e5578063521eb273146102f8578063673a7e28146103275780637d3d65221461032f57806383197ef0146103425780638805493f146103555780638d4e4083146103685780638da5cb5b1461037b57806397ca05e41461038e5780639d63848a146103a1578063a035b1fe146103b4578063b5545a3c146103c7578063ec8ac4d8146103da578063ecb70fb7146103ee578063f2fde38b14610401578063f5074f4114610420578063fbfa77cf1461043f578063fc0c546a14610452578063fc0e74d114610465575b61014e33610478565b005b341561015b57600080fd5b6101636105d1565b604051901515815260200160405180910390f35b341561018257600080fd5b61014e600480359060446024803590810190830135806020601f820181900481020160405190810160405281815292919060208401838380828437509496506105da95505050505050565b34156101d857600080fd5b6101e061060c565b60405190815260200160405180910390f35b34156101fd57600080fd5b61014e600480359060446024803590810190830135806020601f8201819004810201604051908101604052818152929190602084018383808284378201915050505050509190803590602001908201803590602001908080601f01602080910402602001604051908101604052818152929190602084018383808284375094965061061295505050505050565b341561029557600080fd5b6101e0610714565b34156102a857600080fd5b6101e061071a565b34156102bb57600080fd5b61014e610720565b34156102ce57600080fd5b61014e600160a060020a03600435166024356107da565b34156102f057600080fd5b6101e061091d565b341561030357600080fd5b61030b610923565b604051600160a060020a03909116815260200160405180910390f35b61014e610932565b341561033a57600080fd5b610163610a7f565b341561034d57600080fd5b61014e610a8b565b341561036057600080fd5b6101e0610ab4565b341561037357600080fd5b610163610af7565b341561038657600080fd5b61030b610b00565b341561039957600080fd5b6101e0610b0f565b34156103ac57600080fd5b6101e0610b15565b34156103bf57600080fd5b6101e0610b1b565b34156103d257600080fd5b61014e610b21565b61014e600160a060020a0360043516610478565b34156103f957600080fd5b610163610ba5565b341561040c57600080fd5b61014e600160a060020a0360043516610bae565b341561042b57600080fd5b61014e600160a060020a0360043516610c3c565b341561044a57600080fd5b61030b610c63565b341561045d57600080fd5b61030b610c72565b341561047057600080fd5b610163610c81565b600080600160a060020a038316151561049057600080fd5b610498610932565b6104a0610cb3565b15156104ab57600080fd5b600e5460ff161515600114156104c057600080fd5b3491506104cc82610d04565b600d549091506104e2908363ffffffff610d7416565b600d55600f546104f8908263ffffffff610d7416565b600f55600854600160a060020a03166340c10f19848360006040516020015260405160e060020a63ffffffff8516028152600160a060020a0390921660048301526024820152604401602060405180830381600087803b151561055a57600080fd5b6102c65a03f1151561056b57600080fd5b505050604051805190505082600160a060020a031633600160a060020a03167f623b3804fa71d67900d064613da8f94b9617215ee90799290593e1745087ad18848460405191825260208201526040908101905180910390a36105cc610d8e565b505050565b600e5460ff1681565b610608828260006040518059106105ee5750595b818152601f19601f83011681016020016040529050610612565b5050565b600c5481565b60008381526007602052604090205460ff16151561062f57600080fd5b610637610df5565b600160a060020a031633600160a060020a031614151561065657600080fd5b7fcf34ef537ac33ee1ac626ca1587a0a7e8e51561e5514f8cb36afa1c5102b3bab8260405160208082528190810183818151815260200191508051906020019080838360005b838110156106b457808201518382015260200161069c565b50505050905090810190601f1680156106e15780820380516001836020036101000a031916815260200191505b509250505060405180910390a16106f782610f95565b60065550506000908152600760205260409020805460ff19169055565b60115481565b600d5481565b60005433600160a060020a0390811691161461073b57600080fd5b60105460ff161561074b57600080fd5b610753610ba5565b151561075e57600080fd5b600054600160a060020a039081169030163180156108fc0290604051600060405180830381858888f19350505050151561079757600080fd5b61079f610fa8565b7f6823b073d48d6e3a7d385eeb601452d680e74bb46afe3255a7d778f3a9b1768160405160405180910390a16010805460ff19166001179055565b6000805433600160a060020a039081169116146107f657600080fd5b600160a060020a038316151561080b57600080fd5b600e5460ff1615156001141561082057600080fd5b610829826110bf565b600854909150600160a060020a03166340c10f19848360006040516020015260405160e060020a63ffffffff8516028152600160a060020a0390921660048301526024820152604401602060405180830381600087803b151561088b57600080fd5b6102c65a03f1151561089c57600080fd5b50505060405180515050600f546108b9908263ffffffff610d7416565b600f557f9e9d071824fd57d062ca63fd8b786d8da48a6807eebbcb2d83f9e8d21398e28c8383836040518084600160a060020a0316600160a060020a03168152602001838152602001828152602001935050505060405180910390a16105cc610d8e565b600f5481565b600b54600160a060020a031681565b60007f3d0eca545e3cd19801e484dd4ad2c6e1a2c2384066ae97c5c003f8f6ec700bc361099160408051908101604052600381527f55524c000000000000000000000000000000000000000000000000000000000060208201526110d2565b60405190815260200160405180910390a1610a636040805190810160405280600381526020017f55524c0000000000000000000000000000000000000000000000000000000000815250608060405190810160405280604981526020017f6a736f6e2868747470733a2f2f6d696e2d6170692e63727970746f636f6d706181526020017f72652e636f6d2f646174612f70726963653f6673796d3d455448267473796d7381526020017f3d555344292e55534400000000000000000000000000000000000000000000008152506112e0565b6000908152600760205260409020805460ff1916600117905550565b601154600d5410155b90565b60005433600160a060020a03908116911614610aa657600080fd5b600054600160a060020a0316ff5b6000610af260408051908101604052600381527f55524c000000000000000000000000000000000000000000000000000000000060208201526110d2565b905090565b60105460ff1681565b600054600160a060020a031681565b600a5481565b60095481565b60065481565b60105460ff161515610b3257600080fd5b610b3a610a7f565b15610b4457600080fd5b601254600160a060020a031663fa89401a3360405160e060020a63ffffffff8416028152600160a060020a039091166004820152602401600060405180830381600087803b1515610b9457600080fd5b6102c65a03f115156105cc57600080fd5b600e5460ff1690565b60005433600160a060020a03908116911614610bc957600080fd5b600160a060020a0381161515610bde57600080fd5b600054600160a060020a0380831691167f8be0079c531659141344cd1fd0a4f28419497f9722a3daafe3b4186f6b6457e060405160405180910390a360008054600160a060020a031916600160a060020a0392909216919091179055565b60005433600160a060020a03908116911614610c5757600080fd5b80600160a060020a0316ff5b601254600160a060020a031681565b600854600160a060020a031681565b6000805433600160a060020a03908116911614610c9d57600080fd5b50600e805460ff19166001179081905560ff1690565b60008060008034600014159250670de0b6b3a7640000610cde3460065461165690919063ffffffff16565b811515610ce757fe5b049150600a548210159050828015610cfc5750805b935050505090565b6000806000670de0b6b3a7640000610d3885610d2c606460065461165690919063ffffffff16565b9063ffffffff61165616565b811515610d4157fe5b049150600c54670de0b6b3a7640000811515610d5957fe5b049050610d6c818363ffffffff61165616565b949350505050565b600082820183811015610d8357fe5b8091505b5092915050565b601254600160a060020a031663f340fa01343360405160e060020a63ffffffff8516028152600160a060020a0390911660048201526024016000604051808303818588803b1515610dde57600080fd5b6125ee5a03f11515610def57600080fd5b50505050565b600154600090600160a060020a03161580610e225750600154610e2090600160a060020a0316611681565b155b15610e3357610e316000611685565b505b600154600160a060020a03166338cc48316000604051602001526040518163ffffffff1660e060020a028152600401602060405180830381600087803b1515610e7b57600080fd5b6102c65a03f11515610e8c57600080fd5b5050506040518051600254600160a060020a039081169116149050610f2e57600154600160a060020a03166338cc48316000604051602001526040518163ffffffff1660e060020a028152600401602060405180830381600087803b1515610ef357600080fd5b6102c65a03f11515610f0457600080fd5b505050604051805160028054600160a060020a031916600160a060020a0392909216919091179055505b600254600160a060020a031663c281d19e6000604051602001526040518163ffffffff1660e060020a028152600401602060405180830381600087803b1515610f7657600080fd5b6102c65a03f11515610f8757600080fd5b505050604051805191505090565b6000610fa282600061168f565b92915050565b610fb0610a7f565b1561106157601254600160a060020a03166343d726d66040518163ffffffff1660e060020a028152600401600060405180830381600087803b1515610ff457600080fd5b6102c65a03f1151561100557600080fd5b5050600854600160a060020a03169050633f4ba83a6040518163ffffffff1660e060020a028152600401600060405180830381600087803b151561104857600080fd5b6102c65a03f1151561105957600080fd5b5050506110b5565b601254600160a060020a0316638c52dc416040518163ffffffff1660e060020a028152600401600060405180830381600087803b15156110a057600080fd5b6102c65a03f115156110b157600080fd5b5050505b6110bd6117fd565b565b6000610fa282600163ffffffff61165616565b600154600090600160a060020a031615806110ff57506001546110fd90600160a060020a0316611681565b155b156111105761110e6000611685565b505b600154600160a060020a03166338cc48316000604051602001526040518163ffffffff1660e060020a028152600401602060405180830381600087803b151561115857600080fd5b6102c65a03f1151561116957600080fd5b5050506040518051600254600160a060020a03908116911614905061120b57600154600160a060020a03166338cc48316000604051602001526040518163ffffffff1660e060020a028152600401602060405180830381600087803b15156111d057600080fd5b6102c65a03f115156111e157600080fd5b505050604051805160028054600160a060020a031916600160a060020a0392909216919091179055505b600254600160a060020a031663524f3889836000604051602001526040518263ffffffff1660e060020a0281526004018080602001828103825283818151815260200191508051906020019080838360005b8381101561127557808201518382015260200161125d565b50505050905090810190601f1680156112a25780820380516001836020036101000a031916815260200191505b5092505050602060405180830381600087803b15156112c057600080fd5b6102c65a03f115156112d157600080fd5b50505060405180519392505050565b6001546000908190600160a060020a0316158061130f575060015461130d90600160a060020a0316611681565b155b156113205761131e6000611685565b505b600154600160a060020a03166338cc48316000604051602001526040518163ffffffff1660e060020a028152600401602060405180830381600087803b151561136857600080fd5b6102c65a03f1151561137957600080fd5b5050506040518051600254600160a060020a03908116911614905061141b57600154600160a060020a03166338cc48316000604051602001526040518163ffffffff1660e060020a028152600401602060405180830381600087803b15156113e057600080fd5b6102c65a03f115156113f157600080fd5b505050604051805160028054600160a060020a031916600160a060020a0392909216919091179055505b600254600160a060020a031663524f3889856000604051602001526040518263ffffffff1660e060020a0281526004018080602001828103825283818151815260200191508051906020019080838360005b8381101561148557808201518382015260200161146d565b50505050905090810190601f1680156114b25780820380516001836020036101000a031916815260200191505b5092505050602060405180830381600087803b15156114d057600080fd5b6102c65a03f115156114e157600080fd5b5050506040518051915050670de0b6b3a764000062030d403a020181111561150c5760009150610d87565b600254600160a060020a031663adf59f99826000878782604051602001526040518563ffffffff1660e060020a028152600401808481526020018060200180602001838103835285818151815260200191508051906020019080838360005b8381101561158357808201518382015260200161156b565b50505050905090810190601f1680156115b05780820380516001836020036101000a031916815260200191505b50838103825284818151815260200191508051906020019080838360005b838110156115e65780820151838201526020016115ce565b50505050905090810190601f1680156116135780820380516001836020036101000a031916815260200191505b50955050505050506020604051808303818588803b151561163357600080fd5b6125ee5a03f1151561164457600080fd5b50505050604051805195945050505050565b6000808315156116695760009150610d87565b5082820282848281151561167957fe5b0414610d8357fe5b3b90565b6000610fa2611862565b6000611699611b93565b5082600080805b83518110156117e0577f30000000000000000000000000000000000000000000000000000000000000008482815181106116d657fe5b016020015160f860020a900460f860020a02600160f860020a0319161015801561174757507f390000000000000000000000000000000000000000000000000000000000000084828151811061172857fe5b016020015160f860020a900460f860020a02600160f860020a03191611155b1561179d5781156117665785151561175e576117e0565b600019909501945b600a83029250603084828151811061177a57fe5b016020015160f860020a900460f860020a0260f860020a900403830192506117d8565b8381815181106117a957fe5b016020015160f860020a900460f860020a02600160f860020a031916602e60f860020a0214156117d857600191505b6001016116a0565b60008611156117f25785600a0a830292505b509095945050505050565b600854600160a060020a0316637d64bcb46000604051602001526040518163ffffffff1660e060020a028152600401602060405180830381600087803b151561184557600080fd5b6102c65a03f1151561185657600080fd5b50505060405180515050565b600080611882731d3b2638a7cc9f2cb3d298a3da7a90b67e5506ed611681565b11156118f25760018054600160a060020a031916731d3b2638a7cc9f2cb3d298a3da7a90b67e5506ed1790556118ea60408051908101604052600b81527f6574685f6d61696e6e65740000000000000000000000000000000000000000006020820152611b80565b506001610a88565b600061191173c03a2615d5efaf5f49f60b7bb6583eaec212fdf1611681565b11156119795760018054600160a060020a03191673c03a2615d5efaf5f49f60b7bb6583eaec212fdf11790556118ea60408051908101604052600c81527f6574685f726f707374656e3300000000000000000000000000000000000000006020820152611b80565b600061199873b7a07bcf2ba2f2703b24c0691b5278999c59ac7e611681565b1115611a005760018054600160a060020a03191673b7a07bcf2ba2f2703b24c0691b5278999c59ac7e1790556118ea60408051908101604052600981527f6574685f6b6f76616e00000000000000000000000000000000000000000000006020820152611b80565b6000611a1f73146500cfd35b22e4a392fe0adc06de1a1368ed48611681565b1115611a875760018054600160a060020a03191673146500cfd35b22e4a392fe0adc06de1a1368ed481790556118ea60408051908101604052600b81527f6574685f72696e6b6562790000000000000000000000000000000000000000006020820152611b80565b6000611aa6736f485c8bf6fc43ea212e93bbf8ce046c7f1cb475611681565b1115611ad8575060018054600160a060020a031916736f485c8bf6fc43ea212e93bbf8ce046c7f1cb475178155610a88565b6000611af77320e12a1f859b3feae5fb2a0a32c18f5a65555bbf611681565b1115611b29575060018054600160a060020a0319167320e12a1f859b3feae5fb2a0a32c18f5a65555bbf178155610a88565b6000611b487351efaf4c8b3c9afbd5ab9f4bbc82784ab6ef8faa611681565b1115611b7a575060018054600160a060020a0319167351efaf4c8b3c9afbd5ab9f4bbc82784ab6ef8faa178155610a88565b50600090565b6003818051610608929160200190611ba5565b60206040519081016040526000815290565b828054600181600116156101000203166002900490600052602060002090601f016020900481019282601f10611be657805160ff1916838001178555611c13565b82800160010185558215611c13579182015b82811115611c13578251825591602001919060010190611bf8565b50611c1f929150611c23565b5090565b610a8891905b80821115611c1f5760008155600101611c29565b6000611c47611c5d565b604051809103906000f0801515610af257600080fd5b604051610dd080611c6e833901905600606060405260038054600160b060020a03191633600160a060020a0316179055610da28061002e6000396000f3006060604052600436106101065763ffffffff7c010000000000000000000000000000000000000000000000000000000060003504166305d2035b811461010b57806306fdde0314610132578063095ea7b3146101bc57806318160ddd146101de57806323b872dd14610203578063313ce5671461022b5780633f4ba83a1461025457806340c10f19146102695780635c975abb1461028b578063661884631461029e57806370a08231146102c05780637d64bcb4146102df5780638456cb59146102f25780638da5cb5b1461030557806395d89b4114610334578063a9059cbb14610347578063d73dd62314610369578063dd62ed3e1461038b578063f2fde38b146103b0575b600080fd5b341561011657600080fd5b61011e6103cf565b604051901515815260200160405180910390f35b341561013d57600080fd5b6101456103df565b60405160208082528190810183818151815260200191508051906020019080838360005b83811015610181578082015183820152602001610169565b50505050905090810190601f1680156101ae5780820380516001836020036101000a031916815260200191505b509250505060405180910390f35b34156101c757600080fd5b61011e600160a060020a0360043516602435610416565b34156101e957600080fd5b6101f1610441565b60405190815260200160405180910390f35b341561020e57600080fd5b61011e600160a060020a0360043581169060243516604435610447565b341561023657600080fd5b61023e610474565b60405160ff909116815260200160405180910390f35b341561025f57600080fd5b610267610479565b005b341561027457600080fd5b61011e600160a060020a03600435166024356104f8565b341561029657600080fd5b61011e610606565b34156102a957600080fd5b61011e600160a060020a0360043516602435610616565b34156102cb57600080fd5b6101f1600160a060020a036004351661063a565b34156102ea57600080fd5b61011e610655565b34156102fd57600080fd5b6102676106e1565b341561031057600080fd5b610318610765565b604051600160a060020a03909116815260200160405180910390f35b341561033f57600080fd5b610145610774565b341561035257600080fd5b61011e600160a060020a03600435166024356107ab565b341561037457600080fd5b61011e600160a060020a03600435166024356107cf565b341561039657600080fd5b6101f1600160a060020a03600435811690602435166107f3565b34156103bb57600080fd5b610267600160a060020a036004351661081e565b60035460a860020a900460ff1681565b60408051908101604052600581527f44756d6d79000000000000000000000000000000000000000000000000000000602082015281565b60035460009060a060020a900460ff161561043057600080fd5b61043a83836108b9565b9392505050565b60015490565b60035460009060a060020a900460ff161561046157600080fd5b61046c848484610925565b949350505050565b601281565b60035433600160a060020a0390811691161461049457600080fd5b60035460a060020a900460ff1615156104ac57600080fd5b6003805474ff0000000000000000000000000000000000000000191690557f7805862f689e2f13df9f062ff482ad3ad112aca9e0847911ed832e158c525b3360405160405180910390a1565b60035460009033600160a060020a0390811691161461051657600080fd5b60035460a860020a900460ff161561052d57600080fd5b600154610540908363ffffffff610aa516565b600155600160a060020a03831660009081526020819052604090205461056c908363ffffffff610aa516565b600160a060020a0384166000818152602081905260409081902092909255907f0f6798a560793a54c3bcfe86a93cde1e73087d944c0ea20544137d41213968859084905190815260200160405180910390a2600160a060020a03831660007fddf252ad1be2c89b69c2b068fc378daa952ba7f163c4a11628f55a4df523b3ef8460405190815260200160405180910390a350600192915050565b60035460a060020a900460ff1681565b60035460009060a060020a900460ff161561063057600080fd5b61043a8383610ab4565b600160a060020a031660009081526020819052604090205490565b60035460009033600160a060020a0390811691161461067357600080fd5b60035460a860020a900460ff161561068a57600080fd5b6003805475ff000000000000000000000000000000000000000000191660a860020a1790557fae5184fba832cb2b1f702aca6117b8d265eaf03ad33eb133f19dde0f5920fa0860405160405180910390a150600190565b60035433600160a060020a039081169116146106fc57600080fd5b60035460a060020a900460ff161561071357600080fd5b6003805474ff0000000000000000000000000000000000000000191660a060020a1790557f6985a02210a168e66602d3235cb6db0e70f92b3ba4d376a33c0f3d9434bff62560405160405180910390a1565b600354600160a060020a031681565b60408051908101604052600181527f4400000000000000000000000000000000000000000000000000000000000000602082015281565b60035460009060a060020a900460ff16156107c557600080fd5b61043a8383610bae565b60035460009060a060020a900460ff16156107e957600080fd5b61043a8383610cc0565b600160a060020a03918216600090815260026020908152604080832093909416825291909152205490565b60035433600160a060020a0390811691161461083957600080fd5b600160a060020a038116151561084e57600080fd5b600354600160a060020a0380831691167f8be0079c531659141344cd1fd0a4f28419497f9722a3daafe3b4186f6b6457e060405160405180910390a36003805473ffffffffffffffffffffffffffffffffffffffff1916600160a060020a0392909216919091179055565b600160a060020a03338116600081815260026020908152604080832094871680845294909152808220859055909291907f8c5be1e5ebec7d5bd14f71427d1e84f3dd0314c0f7b2291e5b200ac8c7c3b9259085905190815260200160405180910390a350600192915050565b6000600160a060020a038316151561093c57600080fd5b600160a060020a03841660009081526020819052604090205482111561096157600080fd5b600160a060020a038085166000908152600260209081526040808320339094168352929052205482111561099457600080fd5b600160a060020a0384166000908152602081905260409020546109bd908363ffffffff610d6416565b600160a060020a0380861660009081526020819052604080822093909355908516815220546109f2908363ffffffff610aa516565b600160a060020a0380851660009081526020818152604080832094909455878316825260028152838220339093168252919091522054610a38908363ffffffff610d6416565b600160a060020a03808616600081815260026020908152604080832033861684529091529081902093909355908516917fddf252ad1be2c89b69c2b068fc378daa952ba7f163c4a11628f55a4df523b3ef9085905190815260200160405180910390a35060019392505050565b60008282018381101561043a57fe5b600160a060020a03338116600090815260026020908152604080832093861683529290529081205480831115610b1157600160a060020a033381166000908152600260209081526040808320938816835292905290812055610b48565b610b21818463ffffffff610d6416565b600160a060020a033381166000908152600260209081526040808320938916835292905220555b600160a060020a0333811660008181526002602090815260408083209489168084529490915290819020547f8c5be1e5ebec7d5bd14f71427d1e84f3dd0314c0f7b2291e5b200ac8c7c3b925915190815260200160405180910390a35060019392505050565b6000600160a060020a0383161515610bc557600080fd5b600160a060020a033316600090815260208190526040902054821115610bea57600080fd5b600160a060020a033316600090815260208190526040902054610c13908363ffffffff610d6416565b600160a060020a033381166000908152602081905260408082209390935590851681522054610c48908363ffffffff610aa516565b60008085600160a060020a0316600160a060020a031681526020019081526020016000208190555082600160a060020a031633600160a060020a03167fddf252ad1be2c89b69c2b068fc378daa952ba7f163c4a11628f55a4df523b3ef8460405190815260200160405180910390a350600192915050565b600160a060020a033381166000908152600260209081526040808320938616835292905290812054610cf8908363ffffffff610aa516565b600160a060020a0333811660008181526002602090815260408083209489168084529490915290819020849055919290917f8c5be1e5ebec7d5bd14f71427d1e84f3dd0314c0f7b2291e5b200ac8c7c3b92591905190815260200160405180910390a350600192915050565b600082821115610d7057fe5b509003905600a165627a7a723058204045aa2b05f34dfcfd967c7848c0669b29cb0edbd7ce613943b8dca360b44ba60029a165627a7a72305820edbc7c0122b9a9f896c42b39c6f8f790f2e2a41b94dc35cb26eae2dcc86f712700296060604052341561000f57600080fd5b60405160208061060c8339810160405280805160008054600160a060020a03191633600160a060020a039081169190911790915590925082161515905061005557600080fd5b60028054600160a060020a031916600160a060020a03929092169190911760a060020a60ff021916905561057e8061008e6000396000f3006060604052600436106100985763ffffffff7c010000000000000000000000000000000000000000000000000000000060003504166343d726d6811461009d578063521eb273146100b25780638c52dc41146100e15780638da5cb5b146100f4578063c19d93fb14610107578063cb13cddb1461013e578063f2fde38b1461016f578063f340fa011461018e578063fa89401a146101a2575b600080fd5b34156100a857600080fd5b6100b06101c1565b005b34156100bd57600080fd5b6100c561029c565b604051600160a060020a03909116815260200160405180910390f35b34156100ec57600080fd5b6100b06102ab565b34156100ff57600080fd5b6100c561033c565b341561011257600080fd5b61011a61034b565b6040518082600281111561012a57fe5b60ff16815260200191505060405180910390f35b341561014957600080fd5b61015d600160a060020a036004351661035b565b60405190815260200160405180910390f35b341561017a57600080fd5b6100b0600160a060020a036004351661036d565b6100b0600160a060020a0360043516610408565b34156101ad57600080fd5b6100b0600160a060020a036004351661048c565b60005433600160a060020a039081169116146101dc57600080fd5b60006002805460a060020a900460ff16908111156101f657fe5b1461020057600080fd5b6002805474ff00000000000000000000000000000000000000001916740200000000000000000000000000000000000000001790557f1cdde67b72a90f19919ac732a437ac2f7a10fc128d28c2a6e525d89ce5cd9d3a60405160405180910390a1600254600160a060020a039081169030163180156108fc0290604051600060405180830381858888f19350505050151561029a57600080fd5b565b600254600160a060020a031681565b60005433600160a060020a039081169116146102c657600080fd5b60006002805460a060020a900460ff16908111156102e057fe5b146102ea57600080fd5b6002805474ff0000000000000000000000000000000000000000191660a060020a1790557f599d8e5a83cffb867d051598c4d70e805d59802d8081c1c7d6dffc5b6aca2b8960405160405180910390a1565b600054600160a060020a031681565b60025460a060020a900460ff1681565b60016020526000908152604090205481565b60005433600160a060020a0390811691161461038857600080fd5b600160a060020a038116151561039d57600080fd5b600054600160a060020a0380831691167f8be0079c531659141344cd1fd0a4f28419497f9722a3daafe3b4186f6b6457e060405160405180910390a36000805473ffffffffffffffffffffffffffffffffffffffff1916600160a060020a0392909216919091179055565b60005433600160a060020a0390811691161461042357600080fd5b60006002805460a060020a900460ff169081111561043d57fe5b1461044757600080fd5b600160a060020a038116600090815260016020526040902054610470903463ffffffff61053c16565b600160a060020a03909116600090815260016020526040902055565b600060016002805460a060020a900460ff16908111156104a857fe5b146104b257600080fd5b50600160a060020a038116600081815260016020526040808220805492905590919082156108fc0290839051600060405180830381858888f1935050505015156104fb57600080fd5b81600160a060020a03167fd7dee2702d63ad89917b6a4da9981c90c4d24f8c2bdfd64c604ecae57d8d06518260405190815260200160405180910390a25050565b60008282018381101561054b57fe5b93925050505600a165627a7a72305820a773f0d1fb76300cced31acf9528258287bc5e1029fe78860691b8df8646ef080029606060405260038054600160b060020a03191633600160a060020a0316179055610da28061002e6000396000f3006060604052600436106101065763ffffffff7c010000000000000000000000000000000000000000000000000000000060003504166305d2035b811461010b57806306fdde0314610132578063095ea7b3146101bc57806318160ddd146101de57806323b872dd14610203578063313ce5671461022b5780633f4ba83a1461025457806340c10f19146102695780635c975abb1461028b578063661884631461029e57806370a08231146102c05780637d64bcb4146102df5780638456cb59146102f25780638da5cb5b1461030557806395d89b4114610334578063a9059cbb14610347578063d73dd62314610369578063dd62ed3e1461038b578063f2fde38b146103b0575b600080fd5b341561011657600080fd5b61011e6103cf565b604051901515815260200160405180910390f35b341561013d57600080fd5b6101456103df565b60405160208082528190810183818151815260200191508051906020019080838360005b83811015610181578082015183820152602001610169565b50505050905090810190601f1680156101ae5780820380516001836020036101000a031916815260200191505b509250505060405180910390f35b34156101c757600080fd5b61011e600160a060020a0360043516602435610416565b34156101e957600080fd5b6101f1610441565b60405190815260200160405180910390f35b341561020e57600080fd5b61011e600160a060020a0360043581169060243516604435610447565b341561023657600080fd5b61023e610474565b60405160ff909116815260200160405180910390f35b341561025f57600080fd5b610267610479565b005b341561027457600080fd5b61011e600160a060020a03600435166024356104f8565b341561029657600080fd5b61011e610606565b34156102a957600080fd5b61011e600160a060020a0360043516602435610616565b34156102cb57600080fd5b6101f1600160a060020a036004351661063a565b34156102ea57600080fd5b61011e610655565b34156102fd57600080fd5b6102676106e1565b341561031057600080fd5b610318610765565b604051600160a060020a03909116815260200160405180910390f35b341561033f57600080fd5b610145610774565b341561035257600080fd5b61011e600160a060020a03600435166024356107ab565b341561037457600080fd5b61011e600160a060020a03600435166024356107cf565b341561039657600080fd5b6101f1600160a060020a03600435811690602435166107f3565b34156103bb57600080fd5b610267600160a060020a036004351661081e565b60035460a860020a900460ff1681565b60408051908101604052600581527f44756d6d79000000000000000000000000000000000000000000000000000000602082015281565b60035460009060a060020a900460ff161561043057600080fd5b61043a83836108b9565b9392505050565b60015490565b60035460009060a060020a900460ff161561046157600080fd5b61046c848484610925565b949350505050565b601281565b60035433600160a060020a0390811691161461049457600080fd5b60035460a060020a900460ff1615156104ac57600080fd5b6003805474ff0000000000000000000000000000000000000000191690557f7805862f689e2f13df9f062ff482ad3ad112aca9e0847911ed832e158c525b3360405160405180910390a1565b60035460009033600160a060020a0390811691161461051657600080fd5b60035460a860020a900460ff161561052d57600080fd5b600154610540908363ffffffff610aa516565b600155600160a060020a03831660009081526020819052604090205461056c908363ffffffff610aa516565b600160a060020a0384166000818152602081905260409081902092909255907f0f6798a560793a54c3bcfe86a93cde1e73087d944c0ea20544137d41213968859084905190815260200160405180910390a2600160a060020a03831660007fddf252ad1be2c89b69c2b068fc378daa952ba7f163c4a11628f55a4df523b3ef8460405190815260200160405180910390a350600192915050565b60035460a060020a900460ff1681565b60035460009060a060020a900460ff161561063057600080fd5b61043a8383610ab4565b600160a060020a031660009081526020819052604090205490565b60035460009033600160a060020a0390811691161461067357600080fd5b60035460a860020a900460ff161561068a57600080fd5b6003805475ff000000000000000000000000000000000000000000191660a860020a1790557fae5184fba832cb2b1f702aca6117b8d265eaf03ad33eb133f19dde0f5920fa0860405160405180910390a150600190565b60035433600160a060020a039081169116146106fc57600080fd5b60035460a060020a900460ff161561071357600080fd5b6003805474ff0000000000000000000000000000000000000000191660a060020a1790557f6985a02210a168e66602d3235cb6db0e70f92b3ba4d376a33c0f3d9434bff62560405160405180910390a1565b600354600160a060020a031681565b60408051908101604052600181527f4400000000000000000000000000000000000000000000000000000000000000602082015281565b60035460009060a060020a900460ff16156107c557600080fd5b61043a8383610bae565b60035460009060a060020a900460ff16156107e957600080fd5b61043a8383610cc0565b600160a060020a03918216600090815260026020908152604080832093909416825291909152205490565b60035433600160a060020a0390811691161461083957600080fd5b600160a060020a038116151561084e57600080fd5b600354600160a060020a0380831691167f8be0079c531659141344cd1fd0a4f28419497f9722a3daafe3b4186f6b6457e060405160405180910390a36003805473ffffffffffffffffffffffffffffffffffffffff1916600160a060020a0392909216919091179055565b600160a060020a03338116600081815260026020908152604080832094871680845294909152808220859055909291907f8c5be1e5ebec7d5bd14f71427d1e84f3dd0314c0f7b2291e5b200ac8c7c3b9259085905190815260200160405180910390a350600192915050565b6000600160a060020a038316151561093c57600080fd5b600160a060020a03841660009081526020819052604090205482111561096157600080fd5b600160a060020a038085166000908152600260209081526040808320339094168352929052205482111561099457600080fd5b600160a060020a0384166000908152602081905260409020546109bd908363ffffffff610d6416565b600160a060020a0380861660009081526020819052604080822093909355908516815220546109f2908363ffffffff610aa516565b600160a060020a0380851660009081526020818152604080832094909455878316825260028152838220339093168252919091522054610a38908363ffffffff610d6416565b600160a060020a03808616600081815260026020908152604080832033861684529091529081902093909355908516917fddf252ad1be2c89b69c2b068fc378daa952ba7f163c4a11628f55a4df523b3ef9085905190815260200160405180910390a35060019392505050565b60008282018381101561043a57fe5b600160a060020a03338116600090815260026020908152604080832093861683529290529081205480831115610b1157600160a060020a033381166000908152600260209081526040808320938816835292905290812055610b48565b610b21818463ffffffff610d6416565b600160a060020a033381166000908152600260209081526040808320938916835292905220555b600160a060020a0333811660008181526002602090815260408083209489168084529490915290819020547f8c5be1e5ebec7d5bd14f71427d1e84f3dd0314c0f7b2291e5b200ac8c7c3b925915190815260200160405180910390a35060019392505050565b6000600160a060020a0383161515610bc557600080fd5b600160a060020a033316600090815260208190526040902054821115610bea57600080fd5b600160a060020a033316600090815260208190526040902054610c13908363ffffffff610d6416565b600160a060020a033381166000908152602081905260408082209390935590851681522054610c48908363ffffffff610aa516565b60008085600160a060020a0316600160a060020a031681526020019081526020016000208190555082600160a060020a031633600160a060020a03167fddf252ad1be2c89b69c2b068fc378daa952ba7f163c4a11628f55a4df523b3ef8460405190815260200160405180910390a350600192915050565b600160a060020a033381166000908152600260209081526040808320938616835292905290812054610cf8908363ffffffff610aa516565b600160a060020a0333811660008181526002602090815260408083209489168084529490915290819020849055919290917f8c5be1e5ebec7d5bd14f71427d1e84f3dd0314c0f7b2291e5b200ac8c7c3b92591905190815260200160405180910390a350600192915050565b600082821115610d7057fe5b509003905600a165627a7a723058204045aa2b05f34dfcfd967c7848c0669b29cb0edbd7ce613943b8dca360b44ba60029",
  "source": "pragma solidity ^0.4.19;\n\nimport \"./Crowdsale.sol\";\nimport \"../token/MintableToken.sol\";\nimport \"./RefundableCrowdsale.sol\"; \nimport \"zeppelin-solidity/contracts/lifecycle/Destructible.sol\";\nimport \"../token/VolaviaToken.sol\";\n\ncontract PreIcoCrowdsale is FinalizableCrowdsale,RefundableCrowdsale,Destructible {\n   \n    //Child contract to have the same constructor as the parent contract.\n    //ie is order to call super on constrcutor\n    \n    function PreIcoCrowdsale(uint256 _rate, uint256 _goal, address _wallet, uint256 _minTransactionValue) public payable\n       \n        FinalizableCrowdsale()\n        RefundableCrowdsale(_goal)\n        Crowdsale(_rate,_wallet,_minTransactionValue) \n        {\n           //As goal needs to be met for a successful crowdsale\n           //the value needs to less or equal than a cap which is limit for accepted funds\n           \n            \n        }   \n\n    \n    function createTokenContract() internal returns (MintableToken) {\n        return new VolaviaToken();\n    }\n\n}",
  "sourcePath": "/home/cheshta/Desktop/smartcontract/contracts/crowdsale/PreIcoCrowdsale.sol",
  "compiler": {
    "name": "solc",
    "version": "0.4.19+commit.c4cbbb05.Emscripten.clang"
  },
  "schemaVersion": "1.0.1",
  "updatedAt": "2018-07-20T10:47:42.818Z"
}