{
  "contractName": "PreIcoCrowdsale",
  "abi": [
    {
      "constant": true,
      "inputs": [],
      "name": "rate",
      "outputs": [
        {
          "name": "",
          "type": "uint256"
        }
      ],
      "payable": false,
      "stateMutability": "view",
      "type": "function"
    },
    {
      "constant": true,
      "inputs": [],
      "name": "endTime",
      "outputs": [
        {
          "name": "",
          "type": "uint256"
        }
      ],
      "payable": false,
      "stateMutability": "view",
      "type": "function"
    },
    {
      "constant": true,
      "inputs": [],
      "name": "cap",
      "outputs": [
        {
          "name": "",
          "type": "uint256"
        }
      ],
      "payable": false,
      "stateMutability": "view",
      "type": "function"
    },
    {
      "constant": true,
      "inputs": [],
      "name": "goal",
      "outputs": [
        {
          "name": "",
          "type": "uint256"
        }
      ],
      "payable": false,
      "stateMutability": "view",
      "type": "function"
    },
    {
      "constant": true,
      "inputs": [],
      "name": "weiRaised",
      "outputs": [
        {
          "name": "",
          "type": "uint256"
        }
      ],
      "payable": false,
      "stateMutability": "view",
      "type": "function"
    },
    {
      "constant": false,
      "inputs": [],
      "name": "finalize",
      "outputs": [],
      "payable": false,
      "stateMutability": "nonpayable",
      "type": "function"
    },
    {
      "constant": true,
      "inputs": [],
      "name": "wallet",
      "outputs": [
        {
          "name": "",
          "type": "address"
        }
      ],
      "payable": false,
      "stateMutability": "view",
      "type": "function"
    },
    {
      "constant": true,
      "inputs": [],
      "name": "startTime",
      "outputs": [
        {
          "name": "",
          "type": "uint256"
        }
      ],
      "payable": false,
      "stateMutability": "view",
      "type": "function"
    },
    {
      "constant": true,
      "inputs": [],
      "name": "goalReached",
      "outputs": [
        {
          "name": "",
          "type": "bool"
        }
      ],
      "payable": false,
      "stateMutability": "view",
      "type": "function"
    },
    {
      "constant": false,
      "inputs": [],
      "name": "destroy",
      "outputs": [],
      "payable": false,
      "stateMutability": "nonpayable",
      "type": "function"
    },
    {
      "constant": true,
      "inputs": [],
      "name": "isFinalized",
      "outputs": [
        {
          "name": "",
          "type": "bool"
        }
      ],
      "payable": false,
      "stateMutability": "view",
      "type": "function"
    },
    {
      "constant": true,
      "inputs": [],
      "name": "owner",
      "outputs": [
        {
          "name": "",
          "type": "address"
        }
      ],
      "payable": false,
      "stateMutability": "view",
      "type": "function"
    },
    {
      "constant": true,
      "inputs": [],
      "name": "minTransactionValue",
      "outputs": [
        {
          "name": "",
          "type": "uint256"
        }
      ],
      "payable": false,
      "stateMutability": "view",
      "type": "function"
    },
    {
      "constant": false,
      "inputs": [],
      "name": "releaseTokens",
      "outputs": [],
      "payable": false,
      "stateMutability": "nonpayable",
      "type": "function"
    },
    {
      "constant": false,
      "inputs": [],
      "name": "claimRefund",
      "outputs": [],
      "payable": false,
      "stateMutability": "nonpayable",
      "type": "function"
    },
    {
      "constant": true,
      "inputs": [],
      "name": "releaseTime",
      "outputs": [
        {
          "name": "",
          "type": "uint256"
        }
      ],
      "payable": false,
      "stateMutability": "view",
      "type": "function"
    },
    {
      "constant": true,
      "inputs": [],
      "name": "tokenTimelock",
      "outputs": [
        {
          "name": "",
          "type": "address"
        }
      ],
      "payable": false,
      "stateMutability": "view",
      "type": "function"
    },
    {
      "constant": false,
      "inputs": [
        {
          "name": "beneficiary",
          "type": "address"
        }
      ],
      "name": "buyTokens",
      "outputs": [],
      "payable": true,
      "stateMutability": "payable",
      "type": "function"
    },
    {
      "constant": true,
      "inputs": [],
      "name": "hasEnded",
      "outputs": [
        {
          "name": "",
          "type": "bool"
        }
      ],
      "payable": false,
      "stateMutability": "view",
      "type": "function"
    },
    {
      "constant": false,
      "inputs": [
        {
          "name": "newOwner",
          "type": "address"
        }
      ],
      "name": "transferOwnership",
      "outputs": [],
      "payable": false,
      "stateMutability": "nonpayable",
      "type": "function"
    },
    {
      "constant": false,
      "inputs": [
        {
          "name": "_recipient",
          "type": "address"
        }
      ],
      "name": "destroyAndSend",
      "outputs": [],
      "payable": false,
      "stateMutability": "nonpayable",
      "type": "function"
    },
    {
      "constant": true,
      "inputs": [],
      "name": "vault",
      "outputs": [
        {
          "name": "",
          "type": "address"
        }
      ],
      "payable": false,
      "stateMutability": "view",
      "type": "function"
    },
    {
      "constant": true,
      "inputs": [],
      "name": "token",
      "outputs": [
        {
          "name": "",
          "type": "address"
        }
      ],
      "payable": false,
      "stateMutability": "view",
      "type": "function"
    },
    {
      "inputs": [
        {
          "name": "_startTime",
          "type": "uint256"
        },
        {
          "name": "_endTime",
          "type": "uint256"
        },
        {
          "name": "_rate",
          "type": "uint256"
        },
        {
          "name": "_goal",
          "type": "uint256"
        },
        {
          "name": "_cap",
          "type": "uint256"
        },
        {
          "name": "_wallet",
          "type": "address"
        },
        {
          "name": "_releaseTime",
          "type": "uint256"
        },
        {
          "name": "_minTransactionValue",
          "type": "uint256"
        }
      ],
      "payable": false,
      "stateMutability": "nonpayable",
      "type": "constructor"
    },
    {
      "payable": true,
      "stateMutability": "payable",
      "type": "fallback"
    },
    {
      "anonymous": false,
      "inputs": [],
      "name": "Finalized",
      "type": "event"
    },
    {
      "anonymous": false,
      "inputs": [
        {
          "indexed": true,
          "name": "previousOwner",
          "type": "address"
        },
        {
          "indexed": true,
          "name": "newOwner",
          "type": "address"
        }
      ],
      "name": "OwnershipTransferred",
      "type": "event"
    },
    {
      "anonymous": false,
      "inputs": [
        {
          "indexed": true,
          "name": "purchaser",
          "type": "address"
        },
        {
          "indexed": true,
          "name": "beneficiary",
          "type": "address"
        },
        {
          "indexed": false,
          "name": "value",
          "type": "uint256"
        },
        {
          "indexed": false,
          "name": "amount",
          "type": "uint256"
        }
      ],
      "name": "TokenPurchase",
      "type": "event"
    }
  ],
  "bytecode": "0x6060604052600a805460a060020a60ff0219169055341561001f57600080fd5b6040516101008062002ccd83398101604052808051919060200180519190602001805191906020018051919060200180519190602001805191906020018051919060200180519150859050848989898787874286101561007e57600080fd5b8585101561008b57600080fd5b6000841161009857600080fd5b600160a060020a03831615156100ad57600080fd5b600081116100ba57600080fd5b848210156100c757600080fd5b6100dc640100000000610a0f6101d582021704565b60008054600160a060020a03928316600160a060020a031991821617825560019890985560029690965560069490945560058054939094169290951691909117909155600355600491909155811161013357600080fd5b600955600a8054600160a060020a03191633600160a060020a03161790556000811161015e57600080fd5b600554600160a060020a03166101726101fa565b600160a060020a039091168152602001604051809103906000f080151561019857600080fd5b600c8054600160a060020a031916600160a060020a0392909216919091179055600b55838511156101c857600080fd5b505050505050505061021c565b60006101df61020b565b604051809103906000f08015156101f557600080fd5b905090565b60405161060c8062001b1c83390190565b604051610ba5806200212883390190565b6118f0806200022c6000396000f3006060604052600436106101195763ffffffff60e060020a6000350416632c4e722e81146101245780633197cbb614610149578063355274ea1461015c578063401938831461016f5780634042b66f146101825780634bb278f314610195578063521eb273146101a857806378e97925146101d75780637d3d6522146101ea57806383197ef0146102115780638d4e4083146102245780638da5cb5b1461023757806397ca05e41461024a578063a96f86681461025d578063b5545a3c14610270578063b91d400114610283578063bba5251614610296578063ec8ac4d8146102a9578063ecb70fb7146102bd578063f2fde38b146102d0578063f5074f41146102ef578063fbfa77cf1461030e578063fc0c546a14610321575b61012233610334565b005b341561012f57600080fd5b6101376104d4565b60405190815260200160405180910390f35b341561015457600080fd5b6101376104da565b341561016757600080fd5b6101376104e0565b341561017a57600080fd5b6101376104e6565b341561018d57600080fd5b6101376104ec565b34156101a057600080fd5b6101226104f2565b34156101b357600080fd5b6101bb610591565b604051600160a060020a03909116815260200160405180910390f35b34156101e257600080fd5b6101376105a0565b34156101f557600080fd5b6101fd6105a6565b604051901515815260200160405180910390f35b341561021c57600080fd5b6101226105b1565b341561022f57600080fd5b6101fd6105da565b341561024257600080fd5b6101bb6105ea565b341561025557600080fd5b6101376105f9565b341561026857600080fd5b6101226105ff565b341561027b57600080fd5b61012261066a565b341561028e57600080fd5b6101376106e4565b34156102a157600080fd5b6101bb6106ea565b610122600160a060020a0360043516610334565b34156102c857600080fd5b6101fd6106f9565b34156102db57600080fd5b610122600160a060020a036004351661071a565b34156102fa57600080fd5b610122600160a060020a03600435166107b5565b341561031957600080fd5b6101bb6107dc565b341561032c57600080fd5b6101bb6107eb565b600080600160a060020a038316151561034c57600080fd5b6103546107fa565b151561035f57600080fd5b34915061036b82610829565b600754909150610381908363ffffffff61084616565b600755600054600354600160a060020a039091169084906103a06109ff565b600160a060020a0393841681529190921660208201526040808201929092526060019051809103906000f08015156103d757600080fd5b6008805473ffffffffffffffffffffffffffffffffffffffff1916600160a060020a039283161790819055600080548316926340c10f1992169084906040516020015260405160e060020a63ffffffff8516028152600160a060020a0390921660048301526024820152604401602060405180830381600087803b151561045d57600080fd5b6102c65a03f1151561046e57600080fd5b505050604051805190505082600160a060020a031633600160a060020a03167f623b3804fa71d67900d064613da8f94b9617215ee90799290593e1745087ad18848460405191825260208201526040908101905180910390a36104cf610860565b505050565b60065481565b60025481565b60095481565b600b5481565b60075481565b600a5433600160a060020a0390811691161461050d57600080fd5b600a5460a060020a900460ff161561052457600080fd5b61052c6106f9565b151561053757600080fd5b61053f6108c7565b7f6823b073d48d6e3a7d385eeb601452d680e74bb46afe3255a7d778f3a9b1768160405160405180910390a1600a805474ff0000000000000000000000000000000000000000191660a060020a179055565b600554600160a060020a031681565b60015481565b600b54600754101590565b600a5433600160a060020a039081169116146105cc57600080fd5b600a54600160a060020a0316ff5b600a5460a060020a900460ff1681565b600a54600160a060020a031681565b60045481565b600a5433600160a060020a0390811691161461061a57600080fd5b600854600160a060020a03166386d1a69f6040518163ffffffff1660e060020a028152600401600060405180830381600087803b151561065957600080fd5b6102c65a03f115156104cf57600080fd5b600a5460a060020a900460ff16151561068257600080fd5b61068a6105a6565b1561069457600080fd5b600c54600160a060020a031663fa89401a3360405160e060020a63ffffffff8416028152600160a060020a039091166004820152602401600060405180830381600087803b151561065957600080fd5b60035481565b600854600160a060020a031681565b60095460075460009190101580806107145750610714610986565b91505090565b600a5433600160a060020a0390811691161461073557600080fd5b600160a060020a038116151561074a57600080fd5b600a54600160a060020a0380831691167f8be0079c531659141344cd1fd0a4f28419497f9722a3daafe3b4186f6b6457e060405160405180910390a3600a805473ffffffffffffffffffffffffffffffffffffffff1916600160a060020a0392909216919091179055565b600a5433600160a060020a039081169116146107d057600080fd5b80600160a060020a0316ff5b600c54600160a060020a031681565b600054600160a060020a031681565b6000806009546108153460075461084690919063ffffffff16565b11159050808015610714575061071461098e565b6000610840600654836109d490919063ffffffff16565b92915050565b60008282018381101561085557fe5b8091505b5092915050565b600c54600160a060020a031663f340fa01343360405160e060020a63ffffffff8516028152600160a060020a0390911660048201526024016000604051808303818588803b15156108b057600080fd5b6125ee5a03f115156108c157600080fd5b50505050565b6108cf6105a6565b1561092c57600c54600160a060020a03166343d726d66040518163ffffffff1660e060020a028152600401600060405180830381600087803b151561091357600080fd5b6102c65a03f1151561092457600080fd5b505050610980565b600c54600160a060020a0316638c52dc416040518163ffffffff1660e060020a028152600401600060405180830381600087803b151561096b57600080fd5b6102c65a03f1151561097c57600080fd5b5050505b6109845b565b600254421190565b60008060008060015442101580156109a857506002544211155b92503460001415915060045434101590508280156109c35750815b80156109cc5750805b935050505090565b6000808315156109e75760009150610859565b508282028284828115156109f757fe5b041461085557fe5b6040516102db80610a4583390190565b6000610a19610a34565b604051809103906000f0801515610a2f57600080fd5b905090565b604051610ba580610d208339019056006060604052341561000f57600080fd5b6040516060806102db83398101604052808051919060200180519190602001805191505042811161003f57600080fd5b60008054600160a060020a03948516600160a060020a031991821617909155600180549390941692169190911790915560025561025a806100816000396000f3006060604052600436106100485763ffffffff60e060020a60003504166338af3eed811461004d57806386d1a69f1461007c578063b91d400114610091578063fc0c546a146100b6575b600080fd5b341561005857600080fd5b6100606100c9565b604051600160a060020a03909116815260200160405180910390f35b341561008757600080fd5b61008f6100d8565b005b341561009c57600080fd5b6100a4610194565b60405190815260200160405180910390f35b34156100c157600080fd5b61006061019a565b600154600160a060020a031681565b6002546000904210156100ea57600080fd5b60008054600160a060020a0316906370a082319030906040516020015260405160e060020a63ffffffff8416028152600160a060020a039091166004820152602401602060405180830381600087803b151561014557600080fd5b6102c65a03f1151561015657600080fd5b50505060405180519150506000811161016e57600080fd5b60015460005461019191600160a060020a0391821691168363ffffffff6101a916565b50565b60025481565b600054600160a060020a031681565b82600160a060020a031663a9059cbb838360006040516020015260405160e060020a63ffffffff8516028152600160a060020a0390921660048301526024820152604401602060405180830381600087803b151561020657600080fd5b6102c65a03f1151561021757600080fd5b50505060405180519050151561022957fe5b5050505600a165627a7a7230582086fcdb1253f88f6468f5d5ae734f61a01e7264540f2c89762fc1d061f04aa50f0029606060405260038054600160a860020a03191633600160a060020a0316179055610b778061002e6000396000f3006060604052600436106100e55763ffffffff7c010000000000000000000000000000000000000000000000000000000060003504166305d2035b81146100ea57806306fdde0314610111578063095ea7b31461019b57806318160ddd146101bd57806323b872dd146101e2578063313ce5671461020a57806340c10f1914610233578063661884631461025557806370a08231146102775780637d64bcb4146102965780638da5cb5b146102a957806395d89b41146102d8578063a9059cbb146102eb578063d73dd6231461030d578063dd62ed3e1461032f578063f2fde38b14610354575b600080fd5b34156100f557600080fd5b6100fd610375565b604051901515815260200160405180910390f35b341561011c57600080fd5b610124610385565b60405160208082528190810183818151815260200191508051906020019080838360005b83811015610160578082015183820152602001610148565b50505050905090810190601f16801561018d5780820380516001836020036101000a031916815260200191505b509250505060405180910390f35b34156101a657600080fd5b6100fd600160a060020a03600435166024356103bc565b34156101c857600080fd5b6101d0610428565b60405190815260200160405180910390f35b34156101ed57600080fd5b6100fd600160a060020a036004358116906024351660443561042e565b341561021557600080fd5b61021d6105ae565b60405160ff909116815260200160405180910390f35b341561023e57600080fd5b6100fd600160a060020a03600435166024356105b3565b341561026057600080fd5b6100fd600160a060020a03600435166024356106c1565b341561028257600080fd5b6101d0600160a060020a03600435166107bb565b34156102a157600080fd5b6100fd6107d6565b34156102b457600080fd5b6102bc610861565b604051600160a060020a03909116815260200160405180910390f35b34156102e357600080fd5b610124610870565b34156102f657600080fd5b6100fd600160a060020a03600435166024356108a7565b341561031857600080fd5b6100fd600160a060020a03600435166024356109b9565b341561033a57600080fd5b6101d0600160a060020a0360043581169060243516610a5d565b341561035f57600080fd5b610373600160a060020a0360043516610a88565b005b60035460a060020a900460ff1681565b60408051908101604052600581527f44756d6d79000000000000000000000000000000000000000000000000000000602082015281565b600160a060020a03338116600081815260026020908152604080832094871680845294909152808220859055909291907f8c5be1e5ebec7d5bd14f71427d1e84f3dd0314c0f7b2291e5b200ac8c7c3b9259085905190815260200160405180910390a350600192915050565b60015490565b6000600160a060020a038316151561044557600080fd5b600160a060020a03841660009081526020819052604090205482111561046a57600080fd5b600160a060020a038085166000908152600260209081526040808320339094168352929052205482111561049d57600080fd5b600160a060020a0384166000908152602081905260409020546104c6908363ffffffff610b2316565b600160a060020a0380861660009081526020819052604080822093909355908516815220546104fb908363ffffffff610b3516565b600160a060020a0380851660009081526020818152604080832094909455878316825260028152838220339093168252919091522054610541908363ffffffff610b2316565b600160a060020a03808616600081815260026020908152604080832033861684529091529081902093909355908516917fddf252ad1be2c89b69c2b068fc378daa952ba7f163c4a11628f55a4df523b3ef9085905190815260200160405180910390a35060019392505050565b601281565b60035460009033600160a060020a039081169116146105d157600080fd5b60035460a060020a900460ff16156105e857600080fd5b6001546105fb908363ffffffff610b3516565b600155600160a060020a038316600090815260208190526040902054610627908363ffffffff610b3516565b600160a060020a0384166000818152602081905260409081902092909255907f0f6798a560793a54c3bcfe86a93cde1e73087d944c0ea20544137d41213968859084905190815260200160405180910390a2600160a060020a03831660007fddf252ad1be2c89b69c2b068fc378daa952ba7f163c4a11628f55a4df523b3ef8460405190815260200160405180910390a350600192915050565b600160a060020a0333811660009081526002602090815260408083209386168352929052908120548083111561071e57600160a060020a033381166000908152600260209081526040808320938816835292905290812055610755565b61072e818463ffffffff610b2316565b600160a060020a033381166000908152600260209081526040808320938916835292905220555b600160a060020a0333811660008181526002602090815260408083209489168084529490915290819020547f8c5be1e5ebec7d5bd14f71427d1e84f3dd0314c0f7b2291e5b200ac8c7c3b925915190815260200160405180910390a35060019392505050565b600160a060020a031660009081526020819052604090205490565b60035460009033600160a060020a039081169116146107f457600080fd5b60035460a060020a900460ff161561080b57600080fd5b6003805474ff0000000000000000000000000000000000000000191660a060020a1790557fae5184fba832cb2b1f702aca6117b8d265eaf03ad33eb133f19dde0f5920fa0860405160405180910390a150600190565b600354600160a060020a031681565b60408051908101604052600181527f4400000000000000000000000000000000000000000000000000000000000000602082015281565b6000600160a060020a03831615156108be57600080fd5b600160a060020a0333166000908152602081905260409020548211156108e357600080fd5b600160a060020a03331660009081526020819052604090205461090c908363ffffffff610b2316565b600160a060020a033381166000908152602081905260408082209390935590851681522054610941908363ffffffff610b3516565b60008085600160a060020a0316600160a060020a031681526020019081526020016000208190555082600160a060020a031633600160a060020a03167fddf252ad1be2c89b69c2b068fc378daa952ba7f163c4a11628f55a4df523b3ef8460405190815260200160405180910390a350600192915050565b600160a060020a0333811660009081526002602090815260408083209386168352929052908120546109f1908363ffffffff610b3516565b600160a060020a0333811660008181526002602090815260408083209489168084529490915290819020849055919290917f8c5be1e5ebec7d5bd14f71427d1e84f3dd0314c0f7b2291e5b200ac8c7c3b92591905190815260200160405180910390a350600192915050565b600160a060020a03918216600090815260026020908152604080832093909416825291909152205490565b60035433600160a060020a03908116911614610aa357600080fd5b600160a060020a0381161515610ab857600080fd5b600354600160a060020a0380831691167f8be0079c531659141344cd1fd0a4f28419497f9722a3daafe3b4186f6b6457e060405160405180910390a36003805473ffffffffffffffffffffffffffffffffffffffff1916600160a060020a0392909216919091179055565b600082821115610b2f57fe5b50900390565b600082820183811015610b4457fe5b93925050505600a165627a7a72305820b18be11ac7ce8cd92e62211716e8a8909acd005a4897b3733a2028ef495baeb20029a165627a7a7230582006c6121fbe1a828f99d4c3822897d6ab50f72095806acc0612ec74e6b608db2a00296060604052341561000f57600080fd5b60405160208061060c8339810160405280805160008054600160a060020a03191633600160a060020a039081169190911790915590925082161515905061005557600080fd5b60028054600160a060020a031916600160a060020a03929092169190911760a060020a60ff021916905561057e8061008e6000396000f3006060604052600436106100985763ffffffff7c010000000000000000000000000000000000000000000000000000000060003504166343d726d6811461009d578063521eb273146100b25780638c52dc41146100e15780638da5cb5b146100f4578063c19d93fb14610107578063cb13cddb1461013e578063f2fde38b1461016f578063f340fa011461018e578063fa89401a146101a2575b600080fd5b34156100a857600080fd5b6100b06101c1565b005b34156100bd57600080fd5b6100c561029c565b604051600160a060020a03909116815260200160405180910390f35b34156100ec57600080fd5b6100b06102ab565b34156100ff57600080fd5b6100c561033c565b341561011257600080fd5b61011a61034b565b6040518082600281111561012a57fe5b60ff16815260200191505060405180910390f35b341561014957600080fd5b61015d600160a060020a036004351661035b565b60405190815260200160405180910390f35b341561017a57600080fd5b6100b0600160a060020a036004351661036d565b6100b0600160a060020a0360043516610408565b34156101ad57600080fd5b6100b0600160a060020a036004351661048c565b60005433600160a060020a039081169116146101dc57600080fd5b60006002805460a060020a900460ff16908111156101f657fe5b1461020057600080fd5b6002805474ff00000000000000000000000000000000000000001916740200000000000000000000000000000000000000001790557f1cdde67b72a90f19919ac732a437ac2f7a10fc128d28c2a6e525d89ce5cd9d3a60405160405180910390a1600254600160a060020a039081169030163180156108fc0290604051600060405180830381858888f19350505050151561029a57600080fd5b565b600254600160a060020a031681565b60005433600160a060020a039081169116146102c657600080fd5b60006002805460a060020a900460ff16908111156102e057fe5b146102ea57600080fd5b6002805474ff0000000000000000000000000000000000000000191660a060020a1790557f599d8e5a83cffb867d051598c4d70e805d59802d8081c1c7d6dffc5b6aca2b8960405160405180910390a1565b600054600160a060020a031681565b60025460a060020a900460ff1681565b60016020526000908152604090205481565b60005433600160a060020a0390811691161461038857600080fd5b600160a060020a038116151561039d57600080fd5b600054600160a060020a0380831691167f8be0079c531659141344cd1fd0a4f28419497f9722a3daafe3b4186f6b6457e060405160405180910390a36000805473ffffffffffffffffffffffffffffffffffffffff1916600160a060020a0392909216919091179055565b60005433600160a060020a0390811691161461042357600080fd5b60006002805460a060020a900460ff169081111561043d57fe5b1461044757600080fd5b600160a060020a038116600090815260016020526040902054610470903463ffffffff61053c16565b600160a060020a03909116600090815260016020526040902055565b600060016002805460a060020a900460ff16908111156104a857fe5b146104b257600080fd5b50600160a060020a038116600081815260016020526040808220805492905590919082156108fc0290839051600060405180830381858888f1935050505015156104fb57600080fd5b81600160a060020a03167fd7dee2702d63ad89917b6a4da9981c90c4d24f8c2bdfd64c604ecae57d8d06518260405190815260200160405180910390a25050565b60008282018381101561054b57fe5b93925050505600a165627a7a72305820a773f0d1fb76300cced31acf9528258287bc5e1029fe78860691b8df8646ef080029606060405260038054600160a860020a03191633600160a060020a0316179055610b778061002e6000396000f3006060604052600436106100e55763ffffffff7c010000000000000000000000000000000000000000000000000000000060003504166305d2035b81146100ea57806306fdde0314610111578063095ea7b31461019b57806318160ddd146101bd57806323b872dd146101e2578063313ce5671461020a57806340c10f1914610233578063661884631461025557806370a08231146102775780637d64bcb4146102965780638da5cb5b146102a957806395d89b41146102d8578063a9059cbb146102eb578063d73dd6231461030d578063dd62ed3e1461032f578063f2fde38b14610354575b600080fd5b34156100f557600080fd5b6100fd610375565b604051901515815260200160405180910390f35b341561011c57600080fd5b610124610385565b60405160208082528190810183818151815260200191508051906020019080838360005b83811015610160578082015183820152602001610148565b50505050905090810190601f16801561018d5780820380516001836020036101000a031916815260200191505b509250505060405180910390f35b34156101a657600080fd5b6100fd600160a060020a03600435166024356103bc565b34156101c857600080fd5b6101d0610428565b60405190815260200160405180910390f35b34156101ed57600080fd5b6100fd600160a060020a036004358116906024351660443561042e565b341561021557600080fd5b61021d6105ae565b60405160ff909116815260200160405180910390f35b341561023e57600080fd5b6100fd600160a060020a03600435166024356105b3565b341561026057600080fd5b6100fd600160a060020a03600435166024356106c1565b341561028257600080fd5b6101d0600160a060020a03600435166107bb565b34156102a157600080fd5b6100fd6107d6565b34156102b457600080fd5b6102bc610861565b604051600160a060020a03909116815260200160405180910390f35b34156102e357600080fd5b610124610870565b34156102f657600080fd5b6100fd600160a060020a03600435166024356108a7565b341561031857600080fd5b6100fd600160a060020a03600435166024356109b9565b341561033a57600080fd5b6101d0600160a060020a0360043581169060243516610a5d565b341561035f57600080fd5b610373600160a060020a0360043516610a88565b005b60035460a060020a900460ff1681565b60408051908101604052600581527f44756d6d79000000000000000000000000000000000000000000000000000000602082015281565b600160a060020a03338116600081815260026020908152604080832094871680845294909152808220859055909291907f8c5be1e5ebec7d5bd14f71427d1e84f3dd0314c0f7b2291e5b200ac8c7c3b9259085905190815260200160405180910390a350600192915050565b60015490565b6000600160a060020a038316151561044557600080fd5b600160a060020a03841660009081526020819052604090205482111561046a57600080fd5b600160a060020a038085166000908152600260209081526040808320339094168352929052205482111561049d57600080fd5b600160a060020a0384166000908152602081905260409020546104c6908363ffffffff610b2316565b600160a060020a0380861660009081526020819052604080822093909355908516815220546104fb908363ffffffff610b3516565b600160a060020a0380851660009081526020818152604080832094909455878316825260028152838220339093168252919091522054610541908363ffffffff610b2316565b600160a060020a03808616600081815260026020908152604080832033861684529091529081902093909355908516917fddf252ad1be2c89b69c2b068fc378daa952ba7f163c4a11628f55a4df523b3ef9085905190815260200160405180910390a35060019392505050565b601281565b60035460009033600160a060020a039081169116146105d157600080fd5b60035460a060020a900460ff16156105e857600080fd5b6001546105fb908363ffffffff610b3516565b600155600160a060020a038316600090815260208190526040902054610627908363ffffffff610b3516565b600160a060020a0384166000818152602081905260409081902092909255907f0f6798a560793a54c3bcfe86a93cde1e73087d944c0ea20544137d41213968859084905190815260200160405180910390a2600160a060020a03831660007fddf252ad1be2c89b69c2b068fc378daa952ba7f163c4a11628f55a4df523b3ef8460405190815260200160405180910390a350600192915050565b600160a060020a0333811660009081526002602090815260408083209386168352929052908120548083111561071e57600160a060020a033381166000908152600260209081526040808320938816835292905290812055610755565b61072e818463ffffffff610b2316565b600160a060020a033381166000908152600260209081526040808320938916835292905220555b600160a060020a0333811660008181526002602090815260408083209489168084529490915290819020547f8c5be1e5ebec7d5bd14f71427d1e84f3dd0314c0f7b2291e5b200ac8c7c3b925915190815260200160405180910390a35060019392505050565b600160a060020a031660009081526020819052604090205490565b60035460009033600160a060020a039081169116146107f457600080fd5b60035460a060020a900460ff161561080b57600080fd5b6003805474ff0000000000000000000000000000000000000000191660a060020a1790557fae5184fba832cb2b1f702aca6117b8d265eaf03ad33eb133f19dde0f5920fa0860405160405180910390a150600190565b600354600160a060020a031681565b60408051908101604052600181527f4400000000000000000000000000000000000000000000000000000000000000602082015281565b6000600160a060020a03831615156108be57600080fd5b600160a060020a0333166000908152602081905260409020548211156108e357600080fd5b600160a060020a03331660009081526020819052604090205461090c908363ffffffff610b2316565b600160a060020a033381166000908152602081905260408082209390935590851681522054610941908363ffffffff610b3516565b60008085600160a060020a0316600160a060020a031681526020019081526020016000208190555082600160a060020a031633600160a060020a03167fddf252ad1be2c89b69c2b068fc378daa952ba7f163c4a11628f55a4df523b3ef8460405190815260200160405180910390a350600192915050565b600160a060020a0333811660009081526002602090815260408083209386168352929052908120546109f1908363ffffffff610b3516565b600160a060020a0333811660008181526002602090815260408083209489168084529490915290819020849055919290917f8c5be1e5ebec7d5bd14f71427d1e84f3dd0314c0f7b2291e5b200ac8c7c3b92591905190815260200160405180910390a350600192915050565b600160a060020a03918216600090815260026020908152604080832093909416825291909152205490565b60035433600160a060020a03908116911614610aa357600080fd5b600160a060020a0381161515610ab857600080fd5b600354600160a060020a0380831691167f8be0079c531659141344cd1fd0a4f28419497f9722a3daafe3b4186f6b6457e060405160405180910390a36003805473ffffffffffffffffffffffffffffffffffffffff1916600160a060020a0392909216919091179055565b600082821115610b2f57fe5b50900390565b600082820183811015610b4457fe5b93925050505600a165627a7a72305820b18be11ac7ce8cd92e62211716e8a8909acd005a4897b3733a2028ef495baeb20029",
  "source": "pragma solidity ^0.4.19;\n\nimport \"./Crowdsale.sol\";\nimport \"../token/MintableToken.sol\";\nimport \"./CappedCrowdsale.sol\";\nimport \"./RefundableCrowdsale.sol\"; \nimport \"zeppelin-solidity/contracts/lifecycle/Destructible.sol\";\nimport \"../token/VolaviaToken.sol\";\nimport \"zeppelin-solidity/contracts/token/ERC20/TokenTimelock.sol\";\n\ncontract PreIcoCrowdsale is CappedCrowdsale,RefundableCrowdsale,Destructible {\n   \n    //Child contract to have the same constructor as the parent contract.\n    //ie is order to call super on constrcutor\n    \n    function PreIcoCrowdsale(uint256 _startTime, uint256 _endTime, uint256 _rate, uint256 _goal, uint256 _cap, address _wallet, uint256 _releaseTime, uint256 _minTransactionValue) public\n        CappedCrowdsale(_cap)\n        FinalizableCrowdsale()\n        RefundableCrowdsale(_goal)\n        Crowdsale(_startTime,_endTime,_rate,_wallet,_releaseTime,_minTransactionValue) \n        {\n           //As goal needs to be met for a successful crowdsale\n           //the value needs to less or equal than a cap which is limit for accepted funds\n           require(_goal <= _cap);\n            \n        }\n\n     \n    \n    function createTokenContract() internal returns (MintableToken) {\n        return new VolaviaToken();\n    }\n\n}",
  "sourcePath": "/home/cheshta/Documents/projects-nodejs/crowdsale_vers2_testcasescovered_changes/contracts/crowdsale/PreIcoCrowdsale.sol",
  "compiler": {
    "name": "solc",
    "version": "0.4.19+commit.c4cbbb05.Emscripten.clang"
  },
  "schemaVersion": "1.0.1",
  "updatedAt": "2018-04-09T10:04:24.791Z"
}