{
  "contractName": "TestOraclizeCall",
  "abi": [
    {
      "constant": true,
      "inputs": [],
      "name": "price",
      "outputs": [
        {
          "name": "",
          "type": "uint256"
        }
      ],
      "payable": false,
      "stateMutability": "view",
      "type": "function"
    },
    {
      "inputs": [],
      "payable": true,
      "stateMutability": "payable",
      "type": "constructor"
    },
    {
      "anonymous": false,
      "inputs": [
        {
          "indexed": false,
          "name": "text",
          "type": "string"
        }
      ],
      "name": "Log",
      "type": "event"
    },
    {
      "constant": false,
      "inputs": [
        {
          "name": "_myid",
          "type": "bytes32"
        },
        {
          "name": "_result",
          "type": "string"
        }
      ],
      "name": "__callback",
      "outputs": [],
      "payable": false,
      "stateMutability": "nonpayable",
      "type": "function"
    },
    {
      "constant": false,
      "inputs": [
        {
          "name": "_myid",
          "type": "bytes32"
        },
        {
          "name": "_result",
          "type": "string"
        },
        {
          "name": "proof",
          "type": "bytes"
        }
      ],
      "name": "__callback",
      "outputs": [],
      "payable": false,
      "stateMutability": "nonpayable",
      "type": "function"
    },
    {
      "constant": false,
      "inputs": [],
      "name": "update",
      "outputs": [],
      "payable": true,
      "stateMutability": "payable",
      "type": "function"
    }
  ],
  "bytecode": "0x60606040526200001c640100000000620003136200002282021704565b620009c6565b620000f26040805190810160405280600381526020017f55524c000000000000000000000000000000000000000000000000000000000081525060806040519081016040908152604982527f6a736f6e2868747470733a2f2f6d696e2d6170692e63727970746f636f6d706160208301527f72652e636f6d2f646174612f70726963653f6673796d3d455448267473796d73908201527f3d555344292e55534400000000000000000000000000000000000000000000006060820152640100000000620006e6620000f582021704565b50565b600080548190600160a060020a031615806200013357506000546200013190600160a060020a031664010000000062000a5e6200050782021704565b155b15620001555762000153600064010000000062000a626200050b82021704565b505b60008054600160a060020a0316906338cc483190604051602001526040518163ffffffff167c0100000000000000000000000000000000000000000000000000000000028152600401602060405180830381600087803b1515620001b857600080fd5b6102c65a03f11515620001ca57600080fd5b5050506040518051600154600160a060020a039081169116149050620002895760008054600160a060020a0316906338cc483190604051602001526040518163ffffffff167c0100000000000000000000000000000000000000000000000000000000028152600401602060405180830381600087803b15156200024d57600080fd5b6102c65a03f115156200025f57600080fd5b505050604051805160018054600160a060020a031916600160a060020a0392909216919091179055505b600154600160a060020a031663524f3889856000604051602001526040518263ffffffff167c01000000000000000000000000000000000000000000000000000000000281526004018080602001828103825283818151815260200191508051906020019080838360005b838110156200030e578082015183820152602001620002f4565b50505050905090810190601f1680156200033c5780820380516001836020036101000a031916815260200191505b5092505050602060405180830381600087803b15156200035b57600080fd5b6102c65a03f115156200036d57600080fd5b5050506040518051915050670de0b6b3a764000062030d403a02018111156200039a576000915062000500565b600154600160a060020a031663adf59f99826000878782604051602001526040518563ffffffff167c0100000000000000000000000000000000000000000000000000000000028152600401808481526020018060200180602001838103835285818151815260200191508051906020019080838360005b838110156200042c57808201518382015260200162000412565b50505050905090810190601f1680156200045a5780820380516001836020036101000a031916815260200191505b50838103825284818151815260200191508051906020019080838360005b838110156200049257808201518382015260200162000478565b50505050905090810190601f168015620004c05780820380516001836020036101000a031916815260200191505b50955050505050506020604051808303818588803b1515620004e157600080fd5b6125ee5a03f11515620004f357600080fd5b5050505060405180519250505b5092915050565b3b90565b60006200052564010000000062000a726200052b82021704565b92915050565b6000806200055b731d3b2638a7cc9f2cb3d298a3da7a90b67e5506ed64010000000062000a5e6200050782021704565b1115620005dd5760008054600160a060020a031916731d3b2638a7cc9f2cb3d298a3da7a90b67e5506ed179055620005d460408051908101604052600b81527f6574685f6d61696e6e6574000000000000000000000000000000000000000000602082015264010000000062000d966200090b82021704565b50600162000908565b60006200060c73c03a2615d5efaf5f49f60b7bb6583eaec212fdf164010000000062000a5e6200050782021704565b1115620006855760008054600160a060020a03191673c03a2615d5efaf5f49f60b7bb6583eaec212fdf1179055620005d460408051908101604052600c81527f6574685f726f707374656e330000000000000000000000000000000000000000602082015264010000000062000d966200090b82021704565b6000620006b473b7a07bcf2ba2f2703b24c0691b5278999c59ac7e64010000000062000a5e6200050782021704565b11156200072d5760008054600160a060020a03191673b7a07bcf2ba2f2703b24c0691b5278999c59ac7e179055620005d460408051908101604052600981527f6574685f6b6f76616e0000000000000000000000000000000000000000000000602082015264010000000062000d966200090b82021704565b60006200075c73146500cfd35b22e4a392fe0adc06de1a1368ed4864010000000062000a5e6200050782021704565b1115620007d55760008054600160a060020a03191673146500cfd35b22e4a392fe0adc06de1a1368ed48179055620005d460408051908101604052600b81527f6574685f72696e6b656279000000000000000000000000000000000000000000602082015264010000000062000d966200090b82021704565b600062000804736f485c8bf6fc43ea212e93bbf8ce046c7f1cb47564010000000062000a5e6200050782021704565b11156200083a575060008054600160a060020a031916736f485c8bf6fc43ea212e93bbf8ce046c7f1cb475179055600162000908565b6000620008697320e12a1f859b3feae5fb2a0a32c18f5a65555bbf64010000000062000a5e6200050782021704565b11156200089f575060008054600160a060020a0319167320e12a1f859b3feae5fb2a0a32c18f5a65555bbf179055600162000908565b6000620008ce7351efaf4c8b3c9afbd5ab9f4bbc82784ab6ef8faa64010000000062000a5e6200050782021704565b111562000904575060008054600160a060020a0319167351efaf4c8b3c9afbd5ab9f4bbc82784ab6ef8faa179055600162000908565b5060005b90565b60028180516200092092916020019062000924565b5050565b828054600181600116156101000203166002900490600052602060002090601f016020900481019282601f106200096757805160ff191683800117855562000997565b8280016001018555821562000997579182015b82811115620009975782518255916020019190600101906200097a565b50620009a5929150620009a9565b5090565b6200090891905b80821115620009a55760008155600101620009b0565b610e8380620009d66000396000f3006060604052600436106100485763ffffffff60e060020a60003504166327dc297e811461004d57806338bbfa50146100a5578063a035b1fe1461013d578063a2e6204514610162575b600080fd5b341561005857600080fd5b6100a3600480359060446024803590810190830135806020601f8201819004810201604051908101604052818152929190602084018383808284375094965061016a95505050505050565b005b34156100b057600080fd5b6100a3600480359060446024803590810190830135806020601f8201819004810201604051908101604052818152929190602084018383808284378201915050505050509190803590602001908201803590602001908080601f01602080910402602001604051908101604052818152929190602084018383808284375094965061023b95505050505050565b341561014857600080fd5b61015061030d565b60405190815260200160405180910390f35b6100a3610313565b6101726103d7565b600160a060020a031633600160a060020a031614151561019157600080fd5b7fcf34ef537ac33ee1ac626ca1587a0a7e8e51561e5514f8cb36afa1c5102b3bab8160405160208082528190810183818151815260200191508051906020019080838360005b838110156101ef5780820151838201526020016101d7565b50505050905090810190601f16801561021c5780820380516001836020036101000a031916815260200191505b509250505060405180910390a1610234816002610578565b6005555050565b6102436103d7565b600160a060020a031633600160a060020a031614151561026257600080fd5b7fcf34ef537ac33ee1ac626ca1587a0a7e8e51561e5514f8cb36afa1c5102b3bab8260405160208082528190810183818151815260200191508051906020019080838360005b838110156102c05780820151838201526020016102a8565b50505050905090810190601f1680156102ed5780820380516001836020036101000a031916815260200191505b509250505060405180910390a1610305826002610578565b600555505050565b60055481565b6103d46040805190810160405280600381526020017f55524c0000000000000000000000000000000000000000000000000000000000815250608060405190810160405280604981526020017f6a736f6e2868747470733a2f2f6d696e2d6170692e63727970746f636f6d706181526020017f72652e636f6d2f646174612f70726963653f6673796d3d455448267473796d7381526020017f3d555344292e55534400000000000000000000000000000000000000000000008152506106e6565b50565b60008054600160a060020a03161580610402575060005461040090600160a060020a0316610a5e565b155b15610413576104116000610a62565b505b60008054600160a060020a0316906338cc483190604051602001526040518163ffffffff1660e060020a028152600401602060405180830381600087803b151561045c57600080fd5b6102c65a03f1151561046d57600080fd5b5050506040518051600154600160a060020a0390811691161490506105105760008054600160a060020a0316906338cc483190604051602001526040518163ffffffff1660e060020a028152600401602060405180830381600087803b15156104d557600080fd5b6102c65a03f115156104e657600080fd5b505050604051805160018054600160a060020a031916600160a060020a0392909216919091179055505b600154600160a060020a031663c281d19e6000604051602001526040518163ffffffff1660e060020a028152600401602060405180830381600087803b151561055857600080fd5b6102c65a03f1151561056957600080fd5b50505060405180519150505b90565b6000610582610dad565b5082600080805b83518110156106c9577f30000000000000000000000000000000000000000000000000000000000000008482815181106105bf57fe5b016020015160f860020a900460f860020a02600160f860020a0319161015801561063057507f390000000000000000000000000000000000000000000000000000000000000084828151811061061157fe5b016020015160f860020a900460f860020a02600160f860020a03191611155b1561068657811561064f57851515610647576106c9565b600019909501945b600a83029250603084828151811061066357fe5b016020015160f860020a900460f860020a0260f860020a900403830192506106c1565b83818151811061069257fe5b016020015160f860020a900460f860020a02600160f860020a031916602e60f860020a0214156106c157600191505b600101610589565b60008611156106db5785600a0a830292505b509095945050505050565b600080548190600160a060020a03161580610713575060005461071190600160a060020a0316610a5e565b155b15610724576107226000610a62565b505b60008054600160a060020a0316906338cc483190604051602001526040518163ffffffff1660e060020a028152600401602060405180830381600087803b151561076d57600080fd5b6102c65a03f1151561077e57600080fd5b5050506040518051600154600160a060020a0390811691161490506108215760008054600160a060020a0316906338cc483190604051602001526040518163ffffffff1660e060020a028152600401602060405180830381600087803b15156107e657600080fd5b6102c65a03f115156107f757600080fd5b505050604051805160018054600160a060020a031916600160a060020a0392909216919091179055505b600154600160a060020a031663524f3889856000604051602001526040518263ffffffff1660e060020a0281526004018080602001828103825283818151815260200191508051906020019080838360005b8381101561088b578082015183820152602001610873565b50505050905090810190601f1680156108b85780820380516001836020036101000a031916815260200191505b5092505050602060405180830381600087803b15156108d657600080fd5b6102c65a03f115156108e757600080fd5b5050506040518051915050670de0b6b3a764000062030d403a02018111156109125760009150610a57565b600154600160a060020a031663adf59f99826000878782604051602001526040518563ffffffff1660e060020a028152600401808481526020018060200180602001838103835285818151815260200191508051906020019080838360005b83811015610989578082015183820152602001610971565b50505050905090810190601f1680156109b65780820380516001836020036101000a031916815260200191505b50838103825284818151815260200191508051906020019080838360005b838110156109ec5780820151838201526020016109d4565b50505050905090810190601f168015610a195780820380516001836020036101000a031916815260200191505b50955050505050506020604051808303818588803b1515610a3957600080fd5b6125ee5a03f11515610a4a57600080fd5b5050505060405180519250505b5092915050565b3b90565b6000610a6c610a72565b92915050565b600080610a92731d3b2638a7cc9f2cb3d298a3da7a90b67e5506ed610a5e565b1115610b025760008054600160a060020a031916731d3b2638a7cc9f2cb3d298a3da7a90b67e5506ed179055610afa60408051908101604052600b81527f6574685f6d61696e6e65740000000000000000000000000000000000000000006020820152610d96565b506001610575565b6000610b2173c03a2615d5efaf5f49f60b7bb6583eaec212fdf1610a5e565b1115610b895760008054600160a060020a03191673c03a2615d5efaf5f49f60b7bb6583eaec212fdf1179055610afa60408051908101604052600c81527f6574685f726f707374656e3300000000000000000000000000000000000000006020820152610d96565b6000610ba873b7a07bcf2ba2f2703b24c0691b5278999c59ac7e610a5e565b1115610c105760008054600160a060020a03191673b7a07bcf2ba2f2703b24c0691b5278999c59ac7e179055610afa60408051908101604052600981527f6574685f6b6f76616e00000000000000000000000000000000000000000000006020820152610d96565b6000610c2f73146500cfd35b22e4a392fe0adc06de1a1368ed48610a5e565b1115610c975760008054600160a060020a03191673146500cfd35b22e4a392fe0adc06de1a1368ed48179055610afa60408051908101604052600b81527f6574685f72696e6b6562790000000000000000000000000000000000000000006020820152610d96565b6000610cb6736f485c8bf6fc43ea212e93bbf8ce046c7f1cb475610a5e565b1115610cea575060008054600160a060020a031916736f485c8bf6fc43ea212e93bbf8ce046c7f1cb4751790556001610575565b6000610d097320e12a1f859b3feae5fb2a0a32c18f5a65555bbf610a5e565b1115610d3d575060008054600160a060020a0319167320e12a1f859b3feae5fb2a0a32c18f5a65555bbf1790556001610575565b6000610d5c7351efaf4c8b3c9afbd5ab9f4bbc82784ab6ef8faa610a5e565b1115610d90575060008054600160a060020a0319167351efaf4c8b3c9afbd5ab9f4bbc82784ab6ef8faa1790556001610575565b50600090565b6002818051610da9929160200190610dbf565b5050565b60206040519081016040526000815290565b828054600181600116156101000203166002900490600052602060002090601f016020900481019282601f10610e0057805160ff1916838001178555610e2d565b82800160010185558215610e2d579182015b82811115610e2d578251825591602001919060010190610e12565b50610e39929150610e3d565b5090565b61057591905b80821115610e395760008155600101610e435600a165627a7a72305820d1c827ac514d093b43bdf809f8172132faa55d6f168ecd6fcb9eb2f2646bc7b70029",
  "source": "pragma solidity ^0.4.19;\n\nimport \"installed_contracts/oraclize-api/contracts/usingOraclize.sol\"; //Importing Oraclize\n\ncontract TestOraclizeCall is usingOraclize {\n\n    uint public price;\n    event Log(string text);\n\n    function TestOraclizeCall() payable {\n        update();\n    }\n\n    function __callback(bytes32 _myid, string _result){\n        require(msg.sender == oraclize_cbAddress());\n        Log(_result);\n        price = parseInt(_result, 2);\n    }\n    function __callback(bytes32 _myid, string _result, bytes proof){\n        require(msg.sender == oraclize_cbAddress());\n        Log(_result);\n        price = parseInt(_result, 2);\n    }\n\n    function update() payable {\n        oraclize_query(\"URL\",\"json(https://min-api.cryptocompare.com/data/price?fsym=ETH&tsyms=USD).USD\");\n    }\n    \n}",
  "sourcePath": "/home/cheshta/Documents/projects-nodejs/crowdsale_v1.1/contracts/TestOraclizeCall.sol",
  "compiler": {
    "name": "solc",
    "version": "0.4.19+commit.c4cbbb05.Emscripten.clang"
  },
  "schemaVersion": "1.0.1",
  "updatedAt": "2018-05-15T10:21:12.908Z"
}