{
  "contractName": "TestOraclizeCall",
  "abi": [
    {
      "constant": true,
      "inputs": [],
      "name": "price",
      "outputs": [
        {
          "name": "",
          "type": "uint256"
        }
      ],
      "payable": false,
      "stateMutability": "view",
      "type": "function"
    },
    {
      "inputs": [],
      "payable": false,
      "stateMutability": "nonpayable",
      "type": "constructor"
    },
    {
      "anonymous": false,
      "inputs": [
        {
          "indexed": false,
          "name": "text",
          "type": "string"
        }
      ],
      "name": "Log",
      "type": "event"
    },
    {
      "anonymous": false,
      "inputs": [
        {
          "indexed": false,
          "name": "text",
          "type": "string"
        }
      ],
      "name": "LogFailure",
      "type": "event"
    },
    {
      "anonymous": false,
      "inputs": [
        {
          "indexed": false,
          "name": "amt",
          "type": "uint256"
        }
      ],
      "name": "LogPrice",
      "type": "event"
    },
    {
      "constant": false,
      "inputs": [
        {
          "name": "myid",
          "type": "bytes32"
        },
        {
          "name": "result",
          "type": "string"
        }
      ],
      "name": "__callback",
      "outputs": [],
      "payable": false,
      "stateMutability": "nonpayable",
      "type": "function"
    },
    {
      "constant": false,
      "inputs": [
        {
          "name": "_myid",
          "type": "bytes32"
        },
        {
          "name": "_result",
          "type": "string"
        },
        {
          "name": "proof",
          "type": "bytes"
        }
      ],
      "name": "__callback",
      "outputs": [],
      "payable": false,
      "stateMutability": "nonpayable",
      "type": "function"
    },
    {
      "constant": true,
      "inputs": [],
      "name": "oraclizeGetPrice",
      "outputs": [
        {
          "name": "",
          "type": "uint256"
        }
      ],
      "payable": false,
      "stateMutability": "view",
      "type": "function"
    },
    {
      "constant": false,
      "inputs": [],
      "name": "updatePrice",
      "outputs": [],
      "payable": true,
      "stateMutability": "payable",
      "type": "function"
    }
  ],
  "bytecode": "0x606060405234156200001057600080fd5b62000028640100000000620002bc6200002e82021704565b62000cf0565b60007f3d0eca545e3cd19801e484dd4ad2c6e1a2c2384066ae97c5c003f8f6ec700bc36200009d60408051908101604052600381527f55524c00000000000000000000000000000000000000000000000000000000006020820152640100000000620006066200019a82021704565b60405190815260200160405180910390a16200017e6040805190810160405280600381526020017f55524c000000000000000000000000000000000000000000000000000000000081525060806040519081016040908152604982527f6a736f6e2868747470733a2f2f6d696e2d6170692e63727970746f636f6d706160208301527f72652e636f6d2f646174612f70726963653f6673796d3d455448267473796d73908201527f3d555344292e55534400000000000000000000000000000000000000000000006060820152640100000000620008146200041f82021704565b6000908152600660205260409020805460ff1916600117905550565b60008054600160a060020a03161580620001d65750600054620001d490600160a060020a031664010000000062000b8c6200083182021704565b155b15620001f857620001f6600064010000000062000b906200083582021704565b505b60008054600160a060020a0316906338cc483190604051602001526040518163ffffffff167c0100000000000000000000000000000000000000000000000000000000028152600401602060405180830381600087803b15156200025b57600080fd5b6102c65a03f115156200026d57600080fd5b5050506040518051600154600160a060020a0390811691161490506200032c5760008054600160a060020a0316906338cc483190604051602001526040518163ffffffff167c0100000000000000000000000000000000000000000000000000000000028152600401602060405180830381600087803b1515620002f057600080fd5b6102c65a03f115156200030257600080fd5b505050604051805160018054600160a060020a031916600160a060020a0392909216919091179055505b600154600160a060020a031663524f3889836000604051602001526040518263ffffffff167c01000000000000000000000000000000000000000000000000000000000281526004018080602001828103825283818151815260200191508051906020019080838360005b83811015620003b157808201518382015260200162000397565b50505050905090810190601f168015620003df5780820380516001836020036101000a031916815260200191505b5092505050602060405180830381600087803b1515620003fe57600080fd5b6102c65a03f115156200041057600080fd5b50505060405180519392505050565b600080548190600160a060020a031615806200045d57506000546200045b90600160a060020a031664010000000062000b8c6200083182021704565b155b156200047f576200047d600064010000000062000b906200083582021704565b505b60008054600160a060020a0316906338cc483190604051602001526040518163ffffffff167c0100000000000000000000000000000000000000000000000000000000028152600401602060405180830381600087803b1515620004e257600080fd5b6102c65a03f11515620004f457600080fd5b5050506040518051600154600160a060020a039081169116149050620005b35760008054600160a060020a0316906338cc483190604051602001526040518163ffffffff167c0100000000000000000000000000000000000000000000000000000000028152600401602060405180830381600087803b15156200057757600080fd5b6102c65a03f115156200058957600080fd5b505050604051805160018054600160a060020a031916600160a060020a0392909216919091179055505b600154600160a060020a031663524f3889856000604051602001526040518263ffffffff167c01000000000000000000000000000000000000000000000000000000000281526004018080602001828103825283818151815260200191508051906020019080838360005b83811015620006385780820151838201526020016200061e565b50505050905090810190601f168015620006665780820380516001836020036101000a031916815260200191505b5092505050602060405180830381600087803b15156200068557600080fd5b6102c65a03f115156200069757600080fd5b5050506040518051915050670de0b6b3a764000062030d403a0201811115620006c457600091506200082a565b600154600160a060020a031663adf59f99826000878782604051602001526040518563ffffffff167c0100000000000000000000000000000000000000000000000000000000028152600401808481526020018060200180602001838103835285818151815260200191508051906020019080838360005b83811015620007565780820151838201526020016200073c565b50505050905090810190601f168015620007845780820380516001836020036101000a031916815260200191505b50838103825284818151815260200191508051906020019080838360005b83811015620007bc578082015183820152602001620007a2565b50505050905090810190601f168015620007ea5780820380516001836020036101000a031916815260200191505b50955050505050506020604051808303818588803b15156200080b57600080fd5b6125ee5a03f115156200081d57600080fd5b5050505060405180519250505b5092915050565b3b90565b60006200084f64010000000062000d086200085582021704565b92915050565b60008062000885731d3b2638a7cc9f2cb3d298a3da7a90b67e5506ed64010000000062000b8c6200083182021704565b1115620009075760008054600160a060020a031916731d3b2638a7cc9f2cb3d298a3da7a90b67e5506ed179055620008fe60408051908101604052600b81527f6574685f6d61696e6e657400000000000000000000000000000000000000000060208201526401000000006200102c62000c3582021704565b50600162000c32565b60006200093673c03a2615d5efaf5f49f60b7bb6583eaec212fdf164010000000062000b8c6200083182021704565b1115620009af5760008054600160a060020a03191673c03a2615d5efaf5f49f60b7bb6583eaec212fdf1179055620008fe60408051908101604052600c81527f6574685f726f707374656e33000000000000000000000000000000000000000060208201526401000000006200102c62000c3582021704565b6000620009de73b7a07bcf2ba2f2703b24c0691b5278999c59ac7e64010000000062000b8c6200083182021704565b111562000a575760008054600160a060020a03191673b7a07bcf2ba2f2703b24c0691b5278999c59ac7e179055620008fe60408051908101604052600981527f6574685f6b6f76616e000000000000000000000000000000000000000000000060208201526401000000006200102c62000c3582021704565b600062000a8673146500cfd35b22e4a392fe0adc06de1a1368ed4864010000000062000b8c6200083182021704565b111562000aff5760008054600160a060020a03191673146500cfd35b22e4a392fe0adc06de1a1368ed48179055620008fe60408051908101604052600b81527f6574685f72696e6b65627900000000000000000000000000000000000000000060208201526401000000006200102c62000c3582021704565b600062000b2e736f485c8bf6fc43ea212e93bbf8ce046c7f1cb47564010000000062000b8c6200083182021704565b111562000b64575060008054600160a060020a031916736f485c8bf6fc43ea212e93bbf8ce046c7f1cb475179055600162000c32565b600062000b937320e12a1f859b3feae5fb2a0a32c18f5a65555bbf64010000000062000b8c6200083182021704565b111562000bc9575060008054600160a060020a0319167320e12a1f859b3feae5fb2a0a32c18f5a65555bbf179055600162000c32565b600062000bf87351efaf4c8b3c9afbd5ab9f4bbc82784ab6ef8faa64010000000062000b8c6200083182021704565b111562000c2e575060008054600160a060020a0319167351efaf4c8b3c9afbd5ab9f4bbc82784ab6ef8faa179055600162000c32565b5060005b90565b600281805162000c4a92916020019062000c4e565b5050565b828054600181600116156101000203166002900490600052602060002090601f016020900481019282601f1062000c9157805160ff191683800117855562000cc1565b8280016001018555821562000cc1579182015b8281111562000cc157825182559160200191906001019062000ca4565b5062000ccf92915062000cd3565b5090565b62000c3291905b8082111562000ccf576000815560010162000cda565b6111158062000d006000396000f3006060604052600436106100535763ffffffff60e060020a60003504166327dc297e811461005857806338bbfa50146100b0578063673a7e28146101485780638805493f14610150578063a035b1fe14610175575b600080fd5b341561006357600080fd5b6100ae600480359060446024803590810190830135806020601f8201819004810201604051908101604052818152929190602084018383808284375094965061018895505050505050565b005b34156100bb57600080fd5b6100ae600480359060446024803590810190830135806020601f8201819004810201604051908101604052818152929190602084018383808284378201915050505050509190803590602001908201803590602001908080601f0160208091040260200160405190810160405281815292919060208401838380828437509496506101ba95505050505050565b6100ae6102bc565b341561015b57600080fd5b610163610409565b60405190815260200160405180910390f35b341561018057600080fd5b61016361044d565b6101b68282600060405180591061019c5750595b818152601f19601f830116810160200160405290506101ba565b5050565b60008381526006602052604090205460ff1615156101d757600080fd5b6101df610453565b600160a060020a031633600160a060020a03161415156101fe57600080fd5b7fcf34ef537ac33ee1ac626ca1587a0a7e8e51561e5514f8cb36afa1c5102b3bab8260405160208082528190810183818151815260200191508051906020019080838360005b8381101561025c578082015183820152602001610244565b50505050905090810190601f1680156102895780820380516001836020036101000a031916815260200191505b509250505060405180910390a161029f826105f3565b60055550506000908152600660205260409020805460ff19169055565b60007f3d0eca545e3cd19801e484dd4ad2c6e1a2c2384066ae97c5c003f8f6ec700bc361031b60408051908101604052600381527f55524c00000000000000000000000000000000000000000000000000000000006020820152610606565b60405190815260200160405180910390a16103ed6040805190810160405280600381526020017f55524c0000000000000000000000000000000000000000000000000000000000815250608060405190810160405280604981526020017f6a736f6e2868747470733a2f2f6d696e2d6170692e63727970746f636f6d706181526020017f72652e636f6d2f646174612f70726963653f6673796d3d455448267473796d7381526020017f3d555344292e5553440000000000000000000000000000000000000000000000815250610814565b6000908152600660205260409020805460ff1916600117905550565b600061044760408051908101604052600381527f55524c00000000000000000000000000000000000000000000000000000000006020820152610606565b90505b90565b60055481565b60008054600160a060020a0316158061047e575060005461047c90600160a060020a0316610b8c565b155b1561048f5761048d6000610b90565b505b60008054600160a060020a0316906338cc483190604051602001526040518163ffffffff1660e060020a028152600401602060405180830381600087803b15156104d857600080fd5b6102c65a03f115156104e957600080fd5b5050506040518051600154600160a060020a03908116911614905061058c5760008054600160a060020a0316906338cc483190604051602001526040518163ffffffff1660e060020a028152600401602060405180830381600087803b151561055157600080fd5b6102c65a03f1151561056257600080fd5b505050604051805160018054600160a060020a031916600160a060020a0392909216919091179055505b600154600160a060020a031663c281d19e6000604051602001526040518163ffffffff1660e060020a028152600401602060405180830381600087803b15156105d457600080fd5b6102c65a03f115156105e557600080fd5b505050604051805191505090565b6000610600826000610b9a565b92915050565b60008054600160a060020a03161580610631575060005461062f90600160a060020a0316610b8c565b155b15610642576106406000610b90565b505b60008054600160a060020a0316906338cc483190604051602001526040518163ffffffff1660e060020a028152600401602060405180830381600087803b151561068b57600080fd5b6102c65a03f1151561069c57600080fd5b5050506040518051600154600160a060020a03908116911614905061073f5760008054600160a060020a0316906338cc483190604051602001526040518163ffffffff1660e060020a028152600401602060405180830381600087803b151561070457600080fd5b6102c65a03f1151561071557600080fd5b505050604051805160018054600160a060020a031916600160a060020a0392909216919091179055505b600154600160a060020a031663524f3889836000604051602001526040518263ffffffff1660e060020a0281526004018080602001828103825283818151815260200191508051906020019080838360005b838110156107a9578082015183820152602001610791565b50505050905090810190601f1680156107d65780820380516001836020036101000a031916815260200191505b5092505050602060405180830381600087803b15156107f457600080fd5b6102c65a03f1151561080557600080fd5b50505060405180519392505050565b600080548190600160a060020a03161580610841575060005461083f90600160a060020a0316610b8c565b155b15610852576108506000610b90565b505b60008054600160a060020a0316906338cc483190604051602001526040518163ffffffff1660e060020a028152600401602060405180830381600087803b151561089b57600080fd5b6102c65a03f115156108ac57600080fd5b5050506040518051600154600160a060020a03908116911614905061094f5760008054600160a060020a0316906338cc483190604051602001526040518163ffffffff1660e060020a028152600401602060405180830381600087803b151561091457600080fd5b6102c65a03f1151561092557600080fd5b505050604051805160018054600160a060020a031916600160a060020a0392909216919091179055505b600154600160a060020a031663524f3889856000604051602001526040518263ffffffff1660e060020a0281526004018080602001828103825283818151815260200191508051906020019080838360005b838110156109b95780820151838201526020016109a1565b50505050905090810190601f1680156109e65780820380516001836020036101000a031916815260200191505b5092505050602060405180830381600087803b1515610a0457600080fd5b6102c65a03f11515610a1557600080fd5b5050506040518051915050670de0b6b3a764000062030d403a0201811115610a405760009150610b85565b600154600160a060020a031663adf59f99826000878782604051602001526040518563ffffffff1660e060020a028152600401808481526020018060200180602001838103835285818151815260200191508051906020019080838360005b83811015610ab7578082015183820152602001610a9f565b50505050905090810190601f168015610ae45780820380516001836020036101000a031916815260200191505b50838103825284818151815260200191508051906020019080838360005b83811015610b1a578082015183820152602001610b02565b50505050905090810190601f168015610b475780820380516001836020036101000a031916815260200191505b50955050505050506020604051808303818588803b1515610b6757600080fd5b6125ee5a03f11515610b7857600080fd5b5050505060405180519250505b5092915050565b3b90565b6000610600610d08565b6000610ba461103f565b5082600080805b8351811015610ceb577f3000000000000000000000000000000000000000000000000000000000000000848281518110610be157fe5b016020015160f860020a900460f860020a02600160f860020a03191610158015610c5257507f3900000000000000000000000000000000000000000000000000000000000000848281518110610c3357fe5b016020015160f860020a900460f860020a02600160f860020a03191611155b15610ca8578115610c7157851515610c6957610ceb565b600019909501945b600a830292506030848281518110610c8557fe5b016020015160f860020a900460f860020a0260f860020a90040383019250610ce3565b838181518110610cb457fe5b016020015160f860020a900460f860020a02600160f860020a031916602e60f860020a021415610ce357600191505b600101610bab565b6000861115610cfd5785600a0a830292505b509095945050505050565b600080610d28731d3b2638a7cc9f2cb3d298a3da7a90b67e5506ed610b8c565b1115610d985760008054600160a060020a031916731d3b2638a7cc9f2cb3d298a3da7a90b67e5506ed179055610d9060408051908101604052600b81527f6574685f6d61696e6e6574000000000000000000000000000000000000000000602082015261102c565b50600161044a565b6000610db773c03a2615d5efaf5f49f60b7bb6583eaec212fdf1610b8c565b1115610e1f5760008054600160a060020a03191673c03a2615d5efaf5f49f60b7bb6583eaec212fdf1179055610d9060408051908101604052600c81527f6574685f726f707374656e330000000000000000000000000000000000000000602082015261102c565b6000610e3e73b7a07bcf2ba2f2703b24c0691b5278999c59ac7e610b8c565b1115610ea65760008054600160a060020a03191673b7a07bcf2ba2f2703b24c0691b5278999c59ac7e179055610d9060408051908101604052600981527f6574685f6b6f76616e0000000000000000000000000000000000000000000000602082015261102c565b6000610ec573146500cfd35b22e4a392fe0adc06de1a1368ed48610b8c565b1115610f2d5760008054600160a060020a03191673146500cfd35b22e4a392fe0adc06de1a1368ed48179055610d9060408051908101604052600b81527f6574685f72696e6b656279000000000000000000000000000000000000000000602082015261102c565b6000610f4c736f485c8bf6fc43ea212e93bbf8ce046c7f1cb475610b8c565b1115610f80575060008054600160a060020a031916736f485c8bf6fc43ea212e93bbf8ce046c7f1cb475179055600161044a565b6000610f9f7320e12a1f859b3feae5fb2a0a32c18f5a65555bbf610b8c565b1115610fd3575060008054600160a060020a0319167320e12a1f859b3feae5fb2a0a32c18f5a65555bbf179055600161044a565b6000610ff27351efaf4c8b3c9afbd5ab9f4bbc82784ab6ef8faa610b8c565b1115611026575060008054600160a060020a0319167351efaf4c8b3c9afbd5ab9f4bbc82784ab6ef8faa179055600161044a565b50600090565b60028180516101b6929160200190611051565b60206040519081016040526000815290565b828054600181600116156101000203166002900490600052602060002090601f016020900481019282601f1061109257805160ff19168380011785556110bf565b828001600101855582156110bf579182015b828111156110bf5782518255916020019190600101906110a4565b506110cb9291506110cf565b5090565b61044a91905b808211156110cb57600081556001016110d55600a165627a7a723058205d01213660b3287a18b4240dc55d06bc7cd59626859baab7d9cc523fe5d52a750029",
  "source": "pragma solidity ^0.4.19;\n\nimport \"installed_contracts/oraclize-api/contracts/usingOraclize.sol\"; //Importing Oraclize\n\ncontract TestOraclizeCall is usingOraclize {\n\n    uint public price;\n    event Log(string text);\n    event LogFailure(string text);\n    event LogPrice(uint256 amt);\n    mapping(bytes32=>bool) validIds;\n\n    function TestOraclizeCall() public {\n        updatePrice();\n    }\n\n\n    function __callback(bytes32 _myid, string _result, bytes proof){\n        if (!validIds[_myid]) revert();\n        require(msg.sender == oraclize_cbAddress());\n        Log(_result);\n        price = parseInt(_result);\n        delete validIds[_myid];\n        //updatePrice();\n\n    }\n\n    function oraclizeGetPrice() public constant returns (uint256){\n        return oraclize_getPrice(\"URL\");\n    }\n   \n\n    function updatePrice() payable {\n        LogPrice(oraclize_getPrice(\"URL\"));\n        bytes32 queryId = oraclize_query(\"URL\",\"json(https://min-api.cryptocompare.com/data/price?fsym=ETH&tsyms=USD).USD\");\n        validIds[queryId] = true;\n        \n    }\n\n}",
  "sourcePath": "/home/cheshta/Desktop/smartcontract/contracts/TestOraclizeCall.sol",
  "compiler": {
    "name": "solc",
    "version": "0.4.19+commit.c4cbbb05.Emscripten.clang"
  },
  "schemaVersion": "1.0.1",
  "updatedAt": "2018-07-20T10:46:37.514Z"
}